:020000040800F2
:1000000070EA00209D0100084D110008E110000871
:100010004911000821080008172500080000000009
:100020000000000000000000000000006919000846
:100030000110000800000000DD150008091B000881
:10004000B7010008B7010008B7010008B7010008B0
:10005000B7010008B7010008B7010008B7010008A0
:10006000B7010008B7010008B7010008B701000890
:10007000B7010008B7010008B7010008B701000880
:10008000B7010008B7010008B7010008B701000870
:10009000B7010008B7010008B7010008B701000860
:1000A000B7010008B7010008B7010008B701000850
:1000B000B7010008E51B00083D1E0008B701000855
:1000C000B7010008B7010008B7010008B701000830
:1000D000B7010008AD22000835230008B701000869
:1000E000B7010008B7010008B7010008B701000810
:1000F000B7010008B7010008B7010008B701000800
:10010000B7010008B7010008B7010008B7010008EF
:10011000B7010008B7010008B7010008B7010008DF
:10012000B7010008B7010008B7010008B7010008CF
:10013000B7010008B7010008B7010008B7010008BF
:10014000B7010008B7010008B7010008B7010008AF
:10015000B7010008B7010008B7010008B70100089F
:10016000B7010008B7010008B7010008B70100088F
:10017000B7010008B70100087D0B0008B7010008AF
:10018000B7010008B7010008DFF80CD000F0A8FAAA
:10019000004800478D32000870EA0020064880477A
:1001A00006480047FEE7FEE7FEE7FEE7FEE7FEE75C
:1001B000FEE7FEE7FEE7FEE77D1B00088901000879
:1001C0002DE9FE4F804681EA0300C00F0C460090E7
:1001D00021F0004123F00045B8EB0200A94105D20F
:1001E0004046214690461C460B46024623F00040FE
:1001F000104347D0270DC7F30A00C3F30A510290FA
:10020000401A019040286BDAC3F3130040F4801BBE
:100210000098924620B10023D2EB030A63EB0B0B4C
:1002200001985946C0F14002504600F054F9064684
:100230000D4650465946019A00F05CF910EB080053
:100240006141002487EA115284EAE7731A4340D0DF
:10025000009A62B3019A012A4FEA075215DC001B8B
:1002600061EB02014FF0004202EA0752CDE9004281
:10027000001C41F5801132462B4600F05CF903B0BA
:10028000BDE8F08F40462146F9E7001B61EB020113
:10029000001C41F5801300185B412018A2F50017DF
:1002A00047EB030140EAD570B6196D4111E06D08C6
:1002B0004FEA360645EAC0754FEA0752001B61EB6C
:1002C0000201001C41F5801149084FEA3000001975
:1002D000514132462B4603B0BDE8F04F00F01CB947
:1002E0000098012240000023D0EB020263EBE07390
:1002F000009821464FEAE074B8EB000061EB04017E
:10030000E9E783F000435BE781F0004158E72DE91E
:10031000FE4F81EA030404F0004421F00041009400
:100320004FF0000B23F0004350EA01045ED052EA84
:1003300003045BD0C3F30A54C1F30A552C44A4F25E
:10034000F3340194A0FB0254C1F3130141F4801172
:10035000C3F3130343F4801301FB024400FB034E79
:10036000840A970A44EA815447EA8357A4FB076842
:1003700002958D0A05FB07854FEA932C04FB0C546C
:100380002705029D4FEA065847EA1637B5EB0805E0
:100390006EEB070C870E920E47EA811742EA831232
:1003A000A7FB0201B6EB0B0164EB00042B0D43EA43
:1003B0000C335E1844EB1C50DA465146E7FB020151
:1003C000C5F313044FEA0B3343EA14534FEA0432E4
:1003D000019C43EA0603A4F10C040294009CCDE9BD
:1003E00000B400F0A8F803B0BDE8F08F002001468B
:1003F000F9E700F0004230F000400AD0C10D01F5ED
:100400006071C0F3160042EA0151C208400711436F
:10041000704700200146704730B5041E71F100049A
:1004200004DB4FF00044404264EB0101141E73F101
:10043000000405DB1C464FF00043524263EB04030B
:10044000994208BF904230BD30B50B4601460020AE
:100450002022012409E021FA02F59D4205D303FA86
:1004600002F5491B04FA02F52844151EA2F1010207
:10047000F1DC30BD2DE9F05F0546002092469B4639
:1004800088460646814640241BE0284641464746AA
:10049000224600F037F953465A46C01A914110D30C
:1004A00011461846224600F016F82D1A67EB01088F
:1004B0004F4622460120002100F00DF817EB0009FD
:1004C0004E41201EA4F10104DFDC484631462A4695
:1004D0004346BDE8F09F202A04DB203A00FA02F1EF
:1004E000002070479140C2F1200320FA03F3194322
:1004F00090407047202A06DBCB17203A41FA02F0E1
:1005000043EAE07306E041FA02F3D040C2F1200270
:10051000914008431946704710B5141E73F100044A
:1005200008DA401C41F1000192185B411A4301D1E5
:1005300020F0010010BD2DE9F04D92469B4611B10F
:10054000B1FA81F202E0B0FA80F220329046FFF771
:10055000C2FF04460F4640EA0A0041EA0B01534637
:100560005A46084313D0114653EA010019D0C8F186
:100570004002504600F0C6F805460E465046594621
:100580004246FFF7A8FF084305D0012004E02046BB
:100590003946BDE8F08D0020054346EAE0762C435D
:1005A00037430A986305E40AA0EB08000022FD0A1D
:1005B00044EA47540A3002D500200146E9E7010524
:1005C00010196941DDE9084500196941BDE8F04DA0
:1005D000A2E72DE9F04D81EA030404F0004B21F07D
:1005E000004514464FF0000A23F0004150EA05028E
:1005F00020D054EA01021DD0C5F30A570246C5F3C4
:100600001303C1F31300C1F30A5640F4801543F4F9
:100610008013A7EB0608101BD64608F2FD3873EBD3
:10062000050002D308F1010801E092185B41B8F11E
:10063000000F03DA00200146BDE8F08D00204FF4E2
:100640008011064684460EE0171B73EB050705D3A1
:10065000121B63EB050306434CEA010C49084FEA01
:10066000300092185B4150EA0107EDD152EA0300D5
:1006700012D082EA040083EA0501084305D0101B6A
:10068000AB4106D20122002306E000224FF00043D6
:1006900002E06FF0010253101AEB06004CEB085118
:1006A00010EB0A0041EB0B01BDE8F04DFFF734BF42
:1006B000C1F30A52C1F3130140F2FF3341F4801138
:1006C0009A4202DA00200146704740F233439A42D0
:1006D000A2F2334202DC524200F014B8FFF7FBBE34
:1006E000064C074D06E0E06840F0010394E807007F
:1006F00098471034AC42F6D3FFF74AFD844900080E
:10070000A4490008202A04DB203A21FA02F0002143
:10071000704721FA02F3D040C2F120029140084311
:100720001946704770B58C1810F8015B15F0070377
:1007300001D110F8013B2A1106D110F8012B03E07A
:1007400010F8016B01F8016B5B1EF9D12B0705D482
:100750000023521E0DD401F8013BFAE710F8013BCB
:10076000CB1A921C03E013F8015B01F8015B521EE7
:10077000F9D5A142D8D3002070BD000010B54FF4C8
:10078000806000F021FD01F0F9F900F0ABFC01F010
:10079000BFF94FF4E13001F005FF322000F012FE06
:1007A000002002F05DFC4FF4E13002F097FE1948A2
:1007B00041685420884700F011FDB8B115E04FF4AE
:1007C0000071154800F088FC4FF4967002F07AFC36
:1007D0004FF40071104800F081FC4FF4967002F065
:1007E00071FC00210D4801F092FEE8E74FF47A70A9
:1007F00002F068FC00F008FA02F0C8FD4FF47A70CD
:1008000002F060FC42F2CF0142F20F7001F0E8FA10
:10081000012010BDEC000020000402400044004014
:1008200000BFFEE700B589B00121084600F0E8FEF0
:100830000121880500F0D4FE0121172000F0D0FE30
:100840000121082000F0CCFE002208217C4800F0A5
:1008500020FC4FF48070079002208DF821008DF865
:10086000200000208DF8220001208DF8230007A928
:10087000734800F0C6FB00214FF4800000F064FFD5
:100880008020079001208DF8200002208DF82100A3
:1008900000208DF8220001208DF8230007A9684868
:1008A00000F0AFFB8021664800F016FC8020079026
:1008B00000208DF8200003208DF8210000208DF805
:1008C000220001208DF8230007A95E4800F099FB63
:1008D00080215C4800F002FC0A2002F0F3FB80213A
:1008E000584800F0F9FB0A2002F0ECFB8021554843
:1008F00000F0F4FB0D220421514800F0CAFB0D2248
:1009000006214F4800F0C5FB0D2206214E4800F09D
:10091000C0FB0D2207214C4800F0BBFB0D22052136
:100920004A4800F0B6FB0D220621484800F0B1FB12
:100930000D220621464800F0ACFB0D220721444859
:1009400000F0A7FB0D220021404800F0A2FB0D2281
:1009500001213E4800F09DFB0D2204213B4800F0A0
:1009600098FBC020079002208DF8200003208DF80E
:10097000210000208DF8220001208DF8230007A916
:10098000334800F03EFB7320079007A92F4800F082
:1009900038FBC020079007A92B4800F032FB5020FD
:1009A000079007A9264800F02CFB40F23F10ADF855
:1009B0000A000120ADF806007720ADF808000120FC
:1009C000ADF8040001A800F059F8012000F044F847
:1009D0000020ADF80C00ADF80E00ADF8100080203E
:1009E000ADF812000020ADF814004FF40070ADF81F
:1009F00016000020ADF8180003A800F0E5F801216A
:100A0000084600F0CFF8012000F060F84FF4806352
:100A10001A014FF416510F4800F06AF84E208DF875
:100A2000000002208DF8010000208DF80200012056
:100A30008DF80300684600F08BFB09B000BD000094
:100A400000000240000C024000040240001002407E
:100A5000000802407005002030B10749096841F0E4
:100A60000401054A116005E00349096821F0040109
:100A7000014A11607047000000000550418802885B
:100A800041EA0241044A1162C188828841EA024176
:100A9000014A5162704700000000055030B107491B
:100AA000096841F00101054A116005E00349096840
:100AB00021F00101014A116070470000000005505B
:100AC00001494861704700000000055030B10749F6
:100AD000096841F48041054A116005E0034909684D
:100AE00021F48041014A1160704700000000055068
:100AF000F0B58FB004460D4616461F460121880505
:100B000000F06EFD144800F099F800BF124800F0A4
:100B100041F90028FAD14FF0007000900F48019081
:100B20000294002003900495059006974FF480509E
:100B3000079008960011099040020A9004200B903B
:100B400003200C9000200D900E906946024800F0A2
:100B50002FF90FB0F0BD00002864024028000550B6
:100B6000014600200022044B1B6903EA01020AB17E
:100B7000012000E0002070470000055010B5012062
:100B8000FFF7EEFF012809D102F04CFB0120FFF72F
:100B900097FF03480078401C0149087010BD000011
:100BA0003000002029B1074AD2680243054BDA60C1
:100BB00006E0044AD268C3439BB21A40014BDA6094
:100BC000704700000000055000210E4A126844F2F0
:100BD00001039A430B4B1A601A46116840F6F272F1
:100BE0009143028843881A4383881A43C3881A436F
:100BF00003891A4343891A4383891A431143014ADB
:100C0000116070470000055010B50121044800F044
:100C100009F8642002F056FA0120FFF73FFF10BDEB
:100C20002864024021B1026842F00102026003E040
:100C3000026822F00102026070470000016821F0A2
:100C4000010101600021016041608160C1600161BA
:100C5000212141614A49884204D13D21484A103A44
:100C600091608CE046491831884205D14FF4746197
:100C7000434A103A916082E041493031884205D1BF
:100C80004FF474113E4A103A916078E03C49483183
:100C9000884205D14FF07461394A103A91606EE094
:100CA00037496031884204D13649354A103AD1601B
:100CB00065E033497831884204D13349304A103AEB
:100CC000D1605CE02E499031884204D12F492C4AF2
:100CD000103AD16053E02A49A831884205D14FF03B
:100CE0003D51274A103AD16049E02949884204D150
:100CF0003D21274A083A116041E0254918318842D0
:100D000005D14FF47461224A083A116037E0204956
:100D10003031884205D14FF474111D4A083A1160F0
:100D20002DE01B494831884205D14FF07461184AC3
:100D3000083A116023E016496031884204D1114914
:100D4000134A121F11601AE011497831884204D108
:100D50000D490F4A121F116011E00D499031884270
:100D600004D10A490A4A121F116008E00849A83153
:100D7000884204D14FF03D51054A121F116070475F
:100D8000106002403D000020400F002000003D2088
:100D900010640240014600200A6802F001020AB114
:100DA000012000E0002070470146486880B270478B
:100DB00010B500220268134B1A40CC680B6823431D
:100DC0004C6923438C692343CC6923430C6A234336
:100DD0004C6A23438C6A23434C6B23438C6B234321
:100DE0001A430260426922F00702D1E90B3423431F
:100DF0001A4342610B6943604B6883608B68C36030
:100E000010BD00003F801CF04160704710B50446E3
:100E10003448007838B9AA2C05D10120314908702E
:100E2000314804705DE02F480078012807D1AF2CCD
:100E300005D102202B4908702B48447051E0294805
:100E40000078022807D1F12C05DA03202549087023
:100E50002548847045E02348007803280CD1322CC3
:100E60000ADA04201F4908701F48C4701F48047024
:100E700000201F49087034E01A480078042819D16E
:100E80001A480078002815DD18480078401E1749D8
:100E900008701748007816490978491C144A1170DF
:100EA000001D11490C5411480078D0B905200D4996
:100EB000087016E00B48007805280FD1002009497A
:100EC00008700B480078001D07490C54084800784A
:100ED000401DC1B2044800F00DF802E000200149B5
:100EE000087010BD2B000020760200202900002091
:100EF0002A00002030B50023002204E0845C1C445A
:100F0000E3B2541CE2B24C1E9442F7DC441814F8CD
:100F1000014C9C4200D030BD0478AA2C02D1447808
:100F2000AF2C00D0F7E78478012C04D104792C4D44
:100F30002C7044796C708478022C04D10479294D8A
:100F40002C7044796C708478032C1AD1447905791B
:100F500044EA0524244D2C80C479857944EA05248B
:100F6000214D6C80447A057A44EA05241E4DAC80FC
:100F7000C47A857A44EA05241B4DEC8001241B4D7C
:100F80002C708478062C1AD14479057944EA05241A
:100F9000174D2C80C479857944EA0524144D6C8062
:100FA000447A057A44EA0524114DAC80C47A857AE6
:100FB00044EA05240E4DEC8001240E4D2C708478FB
:100FC000042C0BD10479012C02D144790A4D2C70E8
:100FD0000479022C02D14479084D2C7000BF9AE7A5
:100FE0003C000020440000200800002024000020D5
:100FF00010000020250000202C0000202D000020E3
:101000007047F0B50A4600210023002400BF3DE0F0
:10101000012505FA01F3156805EA03049C4234D161
:1010200005684F000326BE40B543056015794E00A4
:10103000B5400668354305601579012D02D0157954
:10104000022D16D185684F000326BE40B54385604A
:1010500055794E00B5408668354385604568012660
:101060008E40B5434560456896798E40B6B23543AB
:101070004560C5684F000326BE40B543C560D579BD
:101080004E00B540C6683543C560491C1029BFD322
:10109000F0BDF0B5002300244D07ED0E02FA05F374
:1010A000CE1000F1200555F826504E07F70E0F26FA
:1010B000BE40B543CF1000F1200646F82750CE10B1
:1010C00000F1200555F8265045EA0304CE1000F142
:1010D000200545F82640F0BD4183704701837047E5
:1010E00000BFFEE71CB50121022000F079FA0120C3
:1010F0008DF8040000208DF8060003208DF805000F
:1011000000208DF807004FF40070009069460448F5
:10111000FFF777FF4FF400710148FFF7DFFF1CBDB9
:101120000004024010B504462CB14FF4007105488C
:10113000FFF7D2FF04E04FF400710248FFF7CEFF43
:1011400010BD00000004024000BFFEE77047000031
:1011500070B5002100230F22C4781CB3174C2468FB
:1011600004F4E064C4F5E064C4F30721C1F10404AD
:10117000E3B20A4144789C40E1B2847814402143B0
:101180000C07210E0E4C05786155047804F01F05FC
:101190000124AC4005786D11AD0005F1E025C5F8DE
:1011A000004109E0047804F01F050124AC40054D1E
:1011B0000678761145F8264070BD00000CED00E081
:1011C00000E400E080E100E002490143024A1160CE
:1011D000704700000000FA050CED00E070B5FFF765
:1011E00021FB00F0BFFA00F0C0F8052001F06AFF13
:1011F00000F080F8054600240AE00B4A02EB4402A6
:101200005178094A12F8140000F0B5F8601CC4B215
:10121000B12CF2D37923A12282214FF4AC7000F0DB
:1012200005F8002070BD0000FC4600082DE9FC5FB9
:1012300004460D4616461F4604EB46004FF4447123
:1012400090FBF1F201FB12001FFA80F805EB47005A
:101250001FFA80F901A9322000F054F883469DF866
:10126000040000F0C00001906946032000F04AF835
:1012700083469DF8000000F0F000009008F00700A1
:101280009DF8041041EAC00004F0070140EA010A99
:101290005146322000F06FF88346C4F3C70A514626
:1012A000172000F068F88346C8F3C70A5146182093
:1012B00000F061F8834609F003009DF8001041EA50
:1012C000800005F0030140EA010A5146032000F0C6
:1012D00052F88346C5F3870A5146192000F04BF8AF
:1012E0008346C9F3870A51461A2000F044F8834622
:1012F000BDE8FC9F08B569460B2000F003F89DF897
:10130000000008BD70B505460C4600F09FFA42206B
:1013100000F0DAFA18B100F0BBFA012070BD0A2023
:1013200001F0DAFE284600F0CFFA18B100F0B0FA6A
:101330000220F3E700F0ACFA0A2001F0CDFE00F045
:1013400085FA432000F0C0FA18B100F0A1FA03209A
:10135000E4E70A2001F0C0FE00F020FA207001F05E
:10136000F3FF00F095FA0020D8E710B58021122095
:1013700000F001F810BD70B505460C4600F066FAA5
:10138000422000F0A1FA18B100F082FA012070BDED
:101390000A2001F0A1FE284600F096FA18B100F0EC
:1013A00077FA0220F3E70A2001F096FE204600F0CB
:1013B0008BFA18B100F06CFA0320E8E700F068FA45
:1013C0000020E4E770B58AB00646002542F21070AE
:1013D00006FB00F407A800F025FF02A800F0D1FEEC
:1013E0000CB9012004E07748844200D900E020468F
:1013F00004460121082000F013F90121084600F0FD
:101400001FF90121112000F0EBF80C2000900220C0
:101410008DF8040003208DF8050000208DF80600EB
:1014200001208DF8070069466748FFF7EAFD0222B0
:1014300011466548FFF72DFE022203216248FFF79F
:1014400028FE624800684008B0FBF4F0401E85B2F8
:1014500042F210700890ADF81C500020ADF8240046
:10146000ADF81E0007A95A4800F09AFE6020ADF8BA
:1014700008000020ADF814000120ADF80A004FF478
:10148000FA70049002A9524800F0D8FD0821504893
:1014900000F024FE0120ADF80A004FF4FA70049029
:1014A00002A94B4800F024FE0821494800F05CFEE8
:1014B0000121474800F0DEFC0121454800F0ECFC2A
:1014C0004FF4D440009002208DF8040003208DF8E2
:1014D000050000208DF8060001208DF80700694600
:1014E0003C48FFF78EFD012209213A48FFF7D1FD64
:1014F00001220B213748FFF7CCFD01220D21354891
:10150000FFF7C7FD01220E213248FFF7C2FD2F4829
:101510000068B0FBF4F0401E85B242F210700890F3
:10152000ADF81C500020ADF82400ADF81E008DF879
:10153000260007A9284800F033FE6020ADF8080017
:101540000020ADF80C00ADF814000820ADF816002E
:101550004001ADF818000020ADF81A000120ADF8E8
:101560000A004FF4FA70049002A91B4800F0D6FC60
:101570004FF4FA70049002A9174800F00DFD4FF4E3
:10158000FA70049002A9144800F058FD4FF4FA7064
:10159000049002A9104800F0ABFD01210E4800F0B4
:1015A00087FC01210C4800F065FC01210A4800F08D
:1015B00073FC0448844202D900200AB070BD0120A7
:1015C000FBE7000000BD0105000002407C00002098
:1015D000000C004000100240000001407047000075
:1015E00029B1064A12680243044B1A6004E0034A18
:1015F00012688243014B1A60704700003038024085
:1016000029B1064A12680243044B1A6004E0034AF7
:1016100012688243014B1A60704700003438024060
:1016200029B1064A12680243044B1A6004E0034AD7
:1016300012688243014B1A60704700004038024034
:1016400029B1064A12680243044B1A6004E0034AB7
:1016500012688243014B1A60704700004438024010
:10166000F0B5002100220024022500260223324F7B
:101670003F6807F00C0121B1042905D0082937D1B2
:1016800005E02E4F076036E02D4F076033E02A4F0C
:101690003F1F3F68C7F38056274F3F1F3F6807F043
:1016A0003F036EB1264FB7FBF3F7DFF88CC0ACF108
:1016B000040CDCF800C0CCF3881C07FB0CF40CE035
:1016C0001E4FB7FBF3F7DFF870C0ACF1040CDCF889
:1016D00000C0CCF3881C07FB0CF4174F3F1F3F687A
:1016E000C7F301477F1C7D00B4FBF5F7076002E0FC
:1016F000124F076000BF00BF0F4F3F6807F0F001B7
:101700000909104F7A5C0768D74047600A4F3F6865
:1017100007F4E051890A0B4F7A5C4768D74087602D
:10172000054F3F6807F46041490B064F7A5C4768F4
:10173000D740C760F0BD0000083802400024F40024
:1017400040787D016C00002002460020044B1868A0
:1017500020F0EC6042EA01031843014B1860704727
:10176000083802401CB501210220FFF739FF4FF471
:101770004060009001208DF8040000208DF80600E4
:1017800001208DF8070002208DF805006946024807
:10179000FFF737FC1CBD00000004024070B50024B8
:1017A00000F028F8322001F097FC08251AE03220DA
:1017B00001F092FC4FF480600D4908806006040E31
:1017C0000B480838006800F4006008B1601CC4B21F
:1017D000322001F081FC4FF480600549891C0880AB
:1017E000681EC5B2002DE2DC00F018F8204670BD7E
:1017F000180402401CB54FF40060009000208DF8E2
:10180000040001208DF8070002208DF805006946CC
:101810000148FFF7F6FB1CBD000402401CB54FF465
:101820000060009001208DF8040000208DF8060073
:1018300001208DF8070002208DF805006946024856
:10184000FFF7DFFB1CBD00000004024010B54FF4A1
:1018500000600E490880322001F03EFC4FF48060A9
:101860000A490880322001F037FC4FF40060074934
:10187000891C0880322001F02FFC4FF4806003495E
:10188000891C0880322001F027FC10BD180402409A
:1018900010B54FF400600B490880322001F01CFCA9
:1018A0004FF480600749891E0880322001F014FC43
:1018B0004FF400600349891E0880322001F00CFCBF
:1018C00010BD00001A04024070B50446002622E054
:1018D00004F0800020B14FF400602249088004E049
:1018E0004FF400601F49891C08806006040E3220F6
:1018F00001F0F2FB4FF480601A490880322001F0B9
:10190000EBFB4FF480601749891C0880322001F0FE
:10191000E3FB701CC6B2082EDADB0A2001F0DCFB08
:10192000FFF768FF322001F0D7FB4FF480600D49CC
:1019300008800A2001F0D0FB0A480838006800F44B
:10194000006008B1012500E000254FF480600549E2
:10195000891C0880322001F0BFFBFFF75FFF28469B
:1019600070BD000018040240704700003CB50346FB
:10197000002015E033F810402DF810403DF91040DC
:101980008C4201DA0C4607E03DF91040944201DD3B
:10199000144601E03DF910402DF81040441CE0B21F
:1019A0000428E7DBBDF9064004F5FA74084D2C6401
:1019B000BDF9044004F5FA74EC63BDF9024004F586
:1019C000FA74AC63BDF9004004F5FA746C633CBD75
:1019D00000000140F0B504462546954201DA16465E
:1019E00004E09D4201DD1E4600E02E4635460846D5
:1019F000904201DA164604E0984201DD1E4600E0FE
:101A00000646304600F5FA76034F3E6005F5FA7655
:101A10003F1F3E60F0BD0000400C00400CB50020B0
:101A2000019000903448006840F4803032490860EA
:101A300000BF3148006800F4003000900198401C5D
:101A40000190009818B90198B0F5A06FF1D12A481B
:101A5000006800F4003010B10120009001E0002087
:101A600000900098012846D123484030006840F09B
:101A700080502149403108602048006840F480408F
:101A80001E4908601C48083000681B49083108607E
:101A90000846006840F4004008600846006840F4CA
:101AA000A05008601648091F0860081F006840F031
:101AB0008070091F086000BF0F48006800F00070C8
:101AC0000028F9D040F205600E4908600A48083045
:101AD000006820F0030008490831086008460068E3
:101AE00040F00200086000BF03480830006800F0C2
:101AF0000C000828F8D10CBD0038024000700040EE
:101B000019544007003C024010B500F095FB10BD91
:101B100030B500BF15480068154AB0FBF2F1B1F1CD
:101B2000807F01D301201DE021F07F40401E4FF057
:101B3000E022506150170F22002807DA13071D0E0C
:101B40000C4B00F00F04241F1D5503E013071C0E5F
:101B5000094B1C5400BF00204FF0E0229061072089
:101B6000106100200028D5D130BD00007C0000208D
:101B700040420F0018ED00E000E400E010B5154809
:101B8000006840F47000134908601348006840F092
:101B900001001149086000200F49083108600E4813
:101BA00000680E4908400C4908600D48091D08608E
:101BB000081F006820F48020091F086000200649E3
:101BC0000C310860FFF72AFF4FF0006001498039AF
:101BD000086010BD88ED00E000380240FFFFF6FE0F
:101BE0001030002400B52DED028B83B00121364862
:101BF00000F079F901285ED134A000F04BFD3C489B
:101C0000C08800903A4883880288418839A000F053
:101C100041FD4148B0F9001040A000F03BFD4448B0
:101C200090ED010A10EE101A0846FEF7E2FB41ECB7
:101C3000180B8DED008B3E48427801783DA000F0F6
:101C400029FD434890ED010A10EE101A0846FEF7F0
:101C5000D0FB41EC180B8DED008B3D4842780178AC
:101C60003CA000F017FD424890ED010A10EE101A5A
:101C70000846FEF7BEFB41EC180B8DED008B3C488F
:101C8000427801783BA000F005FD414800780090C3
:101C900040480378404802784048017840A000F06E
:101CA000F9FC4B4801784BA000F0F4FC00203949C6
:101CB0000870374908700121034800F0EAF803B0C2
:101CC000BDEC028B00BD0000000400402D2D2D2D29
:101CD0002D2D2D2D2D2D2D2D2D2D2D2D2D2D2D2D34
:101CE0002D2D2D2D2D2D2D2D2D2D2D2D0D0A0000C1
:101CF00000000020726F6C6C3A25642C706974636C
:101D0000683A25642C7468723A25642C7961773AB4
:101D100025640D0A000000005C000020676F5F7002
:101D200069745F6F66667365743A25640D0A000016
:101D30003C00002066726F6E7420783A25642C791E
:101D40003A25642C726174696F3A25660D0A0000A9
:101D5000440000206261636B20783A25642C793A54
:101D600025642C726174696F3A25660D0A000000C3
:101D70004C0000206D6964646C6520783A25642C01
:101D8000793A25642C726174696F3A25660D0A00F0
:101D9000300000202E0000202D0000202C0000200C
:101DA00072656164795F313A25642C72656164798A
:101DB0005F323A25642C72656164795F333A256439
:101DC0002C6F765F6672616D653A25640D0A0000BE
:101DD000550000206D6F6465203A25640D0A0000EF
:101DE0007FB504460D4601210220FFF719FCADF82E
:101DF00004500020ADF806000294ADF80C0001A9D3
:101E00000D4800F0CDF9012211460B4800F07CF896
:101E10000121094800F040F81D208DF80000032042
:101E20008DF8010000208DF8020001208DF80300DC
:101E30006846FFF78DF97FBD0004004010B5012111
:101E40000A4800F050F801280AD10949086980477A
:101E50000021064800F0A1F96421044800F09BF934
:101E60000121024800F015F810BD000000080040F4
:101E7000EC00002021B1028842F08002028004E0E0
:101E800002884FF67F731A4002807047CA4302826D
:101E90007047CA430282704721B1028842F00102B2
:101EA000028004E002884FF6FE731A4002807047F9
:101EB00031B1B0F8442042F40042A0F8442005E0DB
:101EC000B0F84420C2F30E02A0F844207047014647
:101ED000486A704702460020138A0B400BB101206C
:101EE00000E00020704730B50246002000230024A7
:101EF000158A05EA0103958905EA010413B10CB1BD
:101F0000012000E0002030BD1AB183890B4383819A
:101F100002E083898B4383817047000070B5002401
:101F200000220023058C4FF6FE7635400584028C96
:101F30008388048B4FF68F752C40B51E2C400D887E
:101F40002C43751E2A408D892A434D882A43104D03
:101F5000A84202D00F4DA84213D14FF6F7752A4080
:101F6000CD892A434FF6FB752A408D882A434FF6C8
:101F7000FF652B404FF6FF552B400D8A2B434D8AB2
:101F80002B43838004838D684563028470BD000009
:101F9000000001400004014070B50024002200232D
:101FA000058C4FF6EF7635400584028C8388048BD0
:101FB00048F6FF752C404FF6FF452C400D884FF634
:101FC000FF7606EA05252C434FF6DF752A408D89FA
:101FD00006EA05152A434D8806EA05152A43154DDC
:101FE000A84202D0144DA8421DD14FF67F752A4059
:101FF000CD894FF6FF7606EA05152A434FF6BF75E1
:102000002A408D8806EA05152A434FF6FF352B40F6
:102010004FF2FF752B400D8A06EA85052B434D8A4A
:1020200006EA85052B43838004838D6885630284DB
:1020300070BD0000000001400004014070B50024A4
:1020400000220023058C4FF6FF6635400584028C84
:102050008388848B4FF68F752C404FF6FC752C408F
:102060000D882C434FF6FF552A408D894FF6FF7699
:1020700006EA05252A434D8806EA05252A43154D1B
:10208000A84202D0144DA8421DD14FF2FF752A403C
:10209000CD894FF6FF7606EA05252A434FF6FF3530
:1020A0002A408D8806EA05252A434EF6FF752B4007
:1020B0004DF6FF752B400D8A06EA05152B434D8A18
:1020C00006EA05152B43838084838D68C5630284EB
:1020D00070BD000000000140000401400A460021DC
:1020E000818B4FF6F77319401143818370470000CD
:1020F00070B5002200230024058C4EF6FF76354093
:102100000584038C8488828B48F6FF752A404FF63D
:10211000FF452A400D884FF6FF7606EA05252A433B
:102120004DF6FF752B408D8906EA05352B434D880A
:1021300006EA05352B430A4DA84202D0094DA842B4
:1021400008D14BF6FF752C400D8A4FF6FF7606EA54
:1021500085152C43848082838D680564038470BD5B
:1021600000000140000401400A460021818B4FF22B
:10217000FF7319404FF6FF7303EA0223194381836B
:102180007047002101804180818081608181C1810F
:10219000018241827047C16270474162704700000E
:1021A00000220288184B98420ED0184B98420BD050
:1021B000B0F1804F08D0164B984205D0154B98428D
:1021C00002D0154B984204D14FF68F731A404B88BA
:1021D0001A43124B984207D0114B984204D04FF645
:1021E000FF431A400B891A4302804B68C3620B8875
:1021F0000385054B984202D0044B984201D18B7A5B
:1022000003860123838270470000014000040140DF
:102210000004004000080040000C00400010004096
:10222000001400404FF0FF31416000210180018126
:1022300041808172704700000448006820B1034863
:102240000068401E014908607047000060000020DF
:102250007FB504460D4601210420FFF7E1F9ADF8F2
:1022600000500020ADF802000194ADF80800694666
:102270000D48FFF795FF012211460B48FFF744FE7A
:1022800001210948FFF708FE1E208DF80C000320ED
:102290008DF80D008DF80E0001208DF80F0003A8B9
:1022A000FEF756FF7FBD00000008004010B540F269
:1022B00025511D4800F06DF810B31B4800F022F9BD
:1022C000C4B21A48008800F40040C8B91748008812
:1022D00000F4804060B10A2C03D00020134908802C
:1022E00020E01248008840F400401049088019E0BE
:1022F0000D2C06D10D48008840F480400B49088021
:1023000010E00A480088C0F30D0009490C54074842
:102310000088401C0549088008460088C72801DD60
:102320000020088010BD000000100140680000205F
:10233000A802002010B500F0F1F810BD10B5002281
:10234000002340F66A14A14200D100BF0A12012402
:102350009440A3B2DC43048010BD10B502460020B7
:10236000108A20F470600B884C8823438C882343A8
:10237000CC8823431843108210BD21B1828942F4D6
:102380000052828104E082894DF6FF731A408281F7
:10239000704770B50246002400230025002040F657
:1023A0006A16B14200D100BFC1F3421501F01F030C
:1023B000012606FA03F3012D02D19689334006E087
:1023C000022D02D1168A334001E0968A33400C1266
:1023D000012606FA04F41688344013B10CB101202A
:1023E00000E0002070BDF0B5034600240026002563
:1023F000002040F66A17B94200D100BF1846C1F369
:10240000421401F01F06012707FA06F5012C01D13D
:102410000C3004E0022C01D1103000E014301AB16D
:1024200007682F43076002E00768AF430760F0BD0D
:102430002DE9FF4705460E460024A14600BFA046F1
:10244000B08900B100BF2C8A24F44054F0880443C2
:102450002C82AC8941F20C608443B08831890843F6
:10246000718908430443AC81AC8A24F44074B08978
:102470000443AC826846FFF7F3F82048854202D057
:102480001F48854202D1DDF80C9001E0DDF808908C
:10249000A88900F4004040B109EBC90000EB091025
:1024A00031684900B0FBF1F707E009EBC90000EB28
:1024B000091031688900B0FBF1F76420B7FBF0F038
:1024C00004012009642101FB1078A88900F4004070
:1024D00040B1322000EBC800B0FBF1F000F0070083
:1024E000044308E0322000EB08106421B0FBF1F057
:1024F00000F00F0004432C81BDE8FF87001001406D
:102500000014014001468888C0F308007047C1F3F9
:1025100008028280704700BFFEE7000010B51D482A
:10252000008800F0080018B11A48001D0088C4B2E5
:1025300040F225511748FFF72CFF58B140F22551C2
:102540001448FFF7FBFE1348001D0088C4B2204664
:10255000FEF75CFC40F227710E48FFF71AFFC0B18E
:102560000D4801780078401C0B4A10700B48405C05
:102570000849091D088010460078094909788842F1
:1025800007D104480C30008820F0800001490C314C
:10259000088010BD004400406A0000207003002045
:1025A0006B00002010B58AB0044601214804FFF7F3
:1025B00037F801210820FFF713F826208DF80C00CA
:1025C00001208DF80D0000208DF80E0001208DF8FF
:1025D0000F0003A8FEF7BCFD072205212B48FEF7DC
:1025E00058FD072206212948FEF753FD20200190BF
:1025F00002208DF808008DF8090000208DF80A00EF
:1026000001208DF80B0001A92048FEF7FAFC4020BC
:10261000019002208DF808008DF8090001208DF846
:102620000A0000208DF80B0001A91848FEF7E9FC0C
:1026300006940020ADF81C00ADF81E00ADF8200097
:10264000ADF824000C20ADF822000020ADF81000F9
:10265000ADF812004FF40070ADF814000020ADF892
:10266000160006A90A48FFF7E3FE04A90848FFF789
:1026700074FE012240F225510548FFF7B4FE012106
:102680000348FFF77AFE0AB010BD0000000C0240BC
:10269000004400400FB4054B10B503A9044A02984A
:1026A00000F0CAF810BC5DF814FB000035310008DA
:1026B0006400002002E008C8121F08C1002AFAD1F5
:1026C00070477047002001E001C1121F002AFBD1B2
:1026D000704700002DE9FF5FDDE90220010DDDF804
:1026E00038B0024318D044F61050A1F2FF314143F4
:1026F0000D140F98012820D0A5EB0B00401C5FEAB9
:10270000000A4FF00004474EDFF81C91A0465046E7
:1027100016D5CAF1000728E00F98012443A201282A
:1027200008D0002100980F9BC0E90021C0E90243B6
:10273000BDE8FF9F6FEA0B01F4E7CBF10000DEE795
:10274000074612E0F80707D022463346404649467E
:10275000FDF7DDFD80468946224633461046194680
:10276000FDF7D5FD04460E467F10002FEAD1DDE9C6
:102770000201BAF1000F42464B4602DAFDF7C7FDEF
:1027800001E0FDF726FF04460E460022284BFDF728
:1027900043FE03D84FF0FF30014607E00022254BEF
:1027A00020463146FDF70CFDFDF782FF102409E0BD
:1027B000002C0ADB0A220023FDF75CFE019B30326D
:1027C0001A55641E50EA0102F2D1641C019AC4F148
:1027D000110314440F9A012A03D0012208430DD19A
:1027E0000AE0084304D000204FF0110B0F9080E75F
:1027F000A3EB0B056D1E0DE05B4504DD4FF0000201
:1028000005F1010504E003DA4FF00002A5F101052E
:10281000002AECD000980F99C0E90231C0E90045C8
:1028200086E70000000024400000F03F3000000078
:102830000000F0430000E03F2DE9FF4F95B09B46BC
:102840008946064600250FE2252877D10024274631
:10285000F84A0121059400E0044316F8013F203BAB
:1028600001FA03F01042F7D130782A2811D06FF026
:102870002F033078A0F13002092A16D8059A44F0C7
:10288000020402EB820203EB42021044761C059024
:10289000EFE759F8042B0592002A03DA504244F47A
:1028A0000054059044F00204761C30782E2816D18E
:1028B00016F8010F44F004042A280DD06FF02F02FF
:1028C0003078A0F13003092B09D807EB870302EB1E
:1028D0004303C718761CF3E759F8047B761C30785D
:1028E0006C280FD006DC4C2817D068280DD06A2839
:1028F00014D104E0742810D07A280FD10DE044F4EC
:1029000000140AE044F4801401E044F440147278A6
:10291000824202D104F58014761C761C3078662839
:102920000BD013DC582877D009DC002875D0452857
:10293000F6D04628F4D047281AD19DE118E0632844
:1029400035D0642879D0652812D195E1702873D0EC
:1029500008DC6728F1D069286FD06E280DD06F2869
:1029600006D1B5E073282CD0752875D0782874D09E
:102970005A46179990476D1C75E1C4F3025002281E
:1029800009D003280DD0D9F8001004280DD00D600F
:1029900009F1040967E1D9F80010EA17C1E900520A
:1029A000F6E7D9F800100D80F2E70D70F0E719F89E
:1029B000041B8DF8001000208DF80100EA4601206C
:1029C00003E059F804AB4FF0FF3061074FF000010E
:1029D00002D40DE008F101018846B9420FDA8045C2
:1029E000F8DB1AF808100029F4D108E008F1010119
:1029F00088468142FADB1AF808100029F6D10598BA
:102A00005B46A0EB080721463846179A00F094FA77
:102A1000284400EB080507E04DE029E10DE01AF835
:102A2000010B5A4617999047B8F10108F7D25B4657
:102A300021463846179A13E142E00A220092C4F375
:102A400002524FF0000A022A08D059F804CB032A98
:102A50004FEAEC710AD00DE029E02AE009F1070104
:102A600021F00702F2E802C1914609E00FFA8CFC5E
:102A70004FEAEC71042A03D14FFA8CFC4FEAEC7157
:102A8000002907DA0A460021DCF1000C61EB0201A3
:102A90002D2202E0220504D52B228DF804200122EC
:102AA00003E0E20701D02022F7E7904659E00A212F
:102AB00002E010220DE010214FF0000A00910BE01F
:102AC00010224FF0000A44F004040827009203E0AB
:102AD00008224FF0000A0092C4F30252022A05D0E5
:102AE00059F804CB0021032A08D009E009F10701B5
:102AF00021F00702F2E802C1914605E01FFA8CFCC2
:102B0000042A01D10CF0FF0C4FF00008220728D551
:102B1000702806D0009B83F0100353EA0A0305D007
:102B20000EE040228DF80420012208E05CEA010258
:102B300006D030228DF804208DF805000222904640
:102B4000009B83F0080353EA0A030AD15CEA0102FE
:102B500001D1620705D530228DF804204FF001081D
:102B60007F1E582804D034A003900EA802900DE0D8
:102B700036A0F9E753466046009AFDF77BFC844691
:102B80000398825C0298401E029002705CEA010089
:102B9000F0D1029806A9081A00F1200A600702D5B0
:102BA00024F4803400E00127574502DDA7EB0A003A
:102BB00000E0002000EB0A01009005984144401A13
:102BC0000590E00306D45B462146179A059800F06D
:102BD000B3F90544002706E001A85A46C05D1799DD
:102BE00090476D1C7F1C4745F6DBE0030CD55B4628
:102BF0002146179A059800F09FF9054404E030201B
:102C00005A46179990476D1C0099481E009000295C
:102C1000F5DC08E0029802995A460078491C0291B6
:102C2000179990476D1CBAF10001AAF1010AF1DC75
:102C300065E1000009280100303132333435363780
:102C400038396162636465660000000030313233F8
:102C50003435363738394142434445460000000098
:102C600000F058F90544761C307800287FF4ECAD6C
:102C700019B02846BDE8F08F620700D4062709F195
:102C8000070222F0070CFCE80223E14603F00048AB
:102C90005FEA080C02D00FF2702C0DE05FEA045CD2
:102CA00002D50FF2682C07E05FEAC47C02D00FF275
:102CB000602C01E0AFF2700C4FF0FF3823F00043BE
:102CC000CDF850C065280CD006DC452809D0462830
:102CD0001DD047283DD13DE0662818D067287ED119
:102CE00038E00021112F01DB112000E0781CCDE934
:102CF000000106A90EA8FFF7EDFCDDE90F010E9A11
:102D000003910021009207F1010A04914DE04FF078
:102D100000400097CDE9011006A90EA8FFF7DAFCE4
:102D2000DDE90F0203920E9B11990022DDF80CA041
:102D30000093049211B9791C00EB010AB7EB0A0069
:102D400004D4C0F1FF3007F1010A0490AAEB070098
:102D5000019044E0012F00DA01270021112F01DD4D
:102D6000112000E03846CDE9000106A90EA8FFF7C2
:102D7000B1FCDDE90F010E9A03910021049100924C
:102D8000BA4621070CD40399514500DA8A46BAF1B4
:102D9000010F05DD009AAAF10101515C302908D02C
:102DA000B84202DA10F1040F06DA0121CDE9011070
:102DB00015E0AAF10101E9E7002805DC04990144C6
:102DC0000491AAEB000102E0411C514500DD8A4656
:102DD0000499401A401C01904FF0004002902007D7
:102DE00004D40198504501DBCDF8048000208DF813
:102DF0004F0002980DF14F07B0F1004F25D02B2066
:102E00000E9002984FF0020800280CDA404202901F
:102E10002D200E9007E00A210298FDF715FB3031B6
:102E2000029007F8011DB8F10001A8F10108F2DCD9
:102E300002980028EFD1791E0E980870307800F0C3
:102E4000200040F0450007F8020D12A8C01B00F159
:102E500007081498007800B1012000EB0A010198DE
:102E600001EBE07105984144401A401E0590E003D3
:102E700006D45B462146179A059800F05DF8054494
:102E80001498007818B15A46179990476D1CE003C2
:102E900024D55B462146179A059800F04DF8054465
:102EA0001CE00498002807DBDDE90301884203DD0C
:102EB0000098405C179901E0179930205A469047D6
:102EC000049805F10105401C04900198401E0190F2
:102ED00004D12E205A46179990476D1CBAF1000173
:102EE000AAF1010ADDDC05E017F8010B5A46179933
:102EF00090476D1CB8F10001A8F10108F4DC5B46B5
:102F00002146179A0598ABE62D0000002B00000023
:102F1000200000002DE9F041044600251E4617461A
:102F2000880404D405E039462020B0476D1C641E97
:102F3000F9D52846BDE8F0812DE9F0410446002589
:102F40001E469046C80301D5302700E0202788049C
:102F500004D505E041463846B0476D1C641EF9D5DE
:102F60002846BDE8F081000010B52DED028B174812
:102F7000008800F5B960164908804FF4C860888061
:102F800000F02EF8134890ED010A10EE101A0846D2
:102F9000FDF72FFA41EC180B9FED0F0B53EC102BA4
:102FA000FDF73AFA0ED2002000F05AF807480088E0
:102FB00000F2DC500649088040F2A4608880084690
:102FC00000F030FABDEC028B10BD0000580000206C
:102FD000000000204C000020333333333333D33F21
:102FE00010B50A48007801280ED1094840880949DF
:102FF00009880844084948800848008800F2DC50E5
:10300000C880084600F00EFA10BD00002500002020
:103010001000002056000020000000205A00002070
:1030200010B50A48007801280ED10948408809499E
:1030300009880844084948800848008800F2DC50A4
:10304000C880084600F0EEF910BD00002400002002
:103050000800002056000020000000205A00002038
:1030600010B50446012C0ED1FA200F490880488083
:103070000A46B2F90210B2F900004FF4FA730022C6
:10308000FEF7A8FC0EE06CB90020074908804880D4
:103090000A46B2F90210B2F900004FF4FA730022A6
:1030A000FEF798FC10BD0000200000204FF47A705D
:1030B0000349086000BF024800680028FBD1704740
:1030C0006000002000B5024601E0FFF7EFFF1000AE
:1030D000A2F10102F9D100BD0349086000BF024915
:1030E00009680029FBD170476000002010B50D4829
:1030F000008800F2DC500C4948800C48008800F23F
:10310000DC5008800A48008800F2DC50C88040F299
:10311000A4608880084600F085F90020FFF7A0FF32
:1031200010BD0000560000200000002058000020C4
:103130005A00002000BF054A128802F04002002A0F
:10314000F9D0C2B2014B9A807047000000100140D4
:103150002DE9F04F0346894600240027A4460020AD
:103160003EE0002136E000EB800A03EB8A1A1AF8F1
:1031700011A04FEACA6A4FEA1A6800EB800A03EB13
:103180008A1A3AF811A00AF4FC6A4FEAEA0500EB41
:10319000800A03EB8A1A3AF811A00AF4784A4FEA37
:1031A0002A26B8F1A30F11DA8C2D0FDABE2E0DDD11
:1031B000074404F1010A1FFA8AF401F19E0A4FF054
:1031C000A00B9AFBFBFE0BFB1EAAD44401F1010AE3
:1031D0001FFA8AF1A029C6DB00F1010A1FFA8AF062
:1031E0007828BEDBB7FBF4FA82F800A0BCFBF4FA47
:1031F00082F801A0BDE8F08F10B50748008800F202
:10320000DC500649098808440549088040F21450FA
:103210008880FFF705FF10BD580000205C000020EB
:103220000000002010B51648007898B90021154814
:10323000FDF7F8FC00BF1348FDF7ACFD0028FAD1FC
:103240001048FDF7B1FDC0F516500F490860012088
:103250000B4908700A48007802280FD14FF4165025
:103260000849091D086001460648FDF7CDFD01210A
:103270000448FDF7D7FC00200149087010BD00008C
:10328000380000202864024034000020FDF776FA60
:103290000D4908700D4C16E00D48007801280BD13F
:1032A00041020C48FDF718FF0B4A0C492046FFF776
:1032B0004FFF0220064908704FF400710548FDF7E2
:1032C0000DFF00F00DF8E7E72E000020700500204C
:1032D00038000020000402404C000020709B0020B9
:1032E00010B51748007810B901F0C8F921E014486A
:1032F0000078012802D100F0C1F81AE010480078E7
:10330000022802D1FFF778FF13E00D480078032868
:1033100002D100F0DDF80CE009480078042802D161
:10332000FFF722FE05E006480078052801D1FFF7E7
:10333000DDFE04480078401C0249087010BD000002
:10334000550000202E00002010B54FF400600E49FB
:1033500008803220FFF7C0FE4FF480600A490880E1
:103360003220FFF7B9FE4FF480600749891C0880BE
:103370003220FFF7B1FE4FF400600349891C08803A
:103380003220FFF7A9FE10BD18040240B7EE000A74
:103390000C4880ED000A9FED0C0A80ED020A9FEDBB
:1033A0000A0A80ED010AB7EE000A084880ED000A1B
:1033B0009FED050A80ED020A9FED030A80ED010AE8
:1033C00070470000E001002000000000080200201B
:1033D0000146086870470000A0F2DC5109B2014ABA
:1033E000118070475C0000200149087070470000A0
:1033F0005500002010B5A0F2DC531BB2064C238010
:10340000A1F2DC531BB2054C2380A2F2DC531BB2A9
:10341000034C238010BD00005600002058000020FF
:103420005A00002010B504466188A1F57A7000EBBF
:10343000D071491009B2104A11802188A1F57A7023
:1034400000EBD071491009B25180A188A1F57A70C2
:1034500000EBD071491009B29180E188A1F57A7032
:1034600000EBD071491009B2D1804FF4FA720021FB
:103470000148FEF77BFA10BD1800002010B50F4878
:10348000008800F2DC500E4948800E48008800F2A7
:10349000DC5008800C48008800F2DC50C8804FF4F3
:1034A000966088800846FFF7BDFF4FF4FA70FFF77B
:1034B00009FE02200549087010BD000056000020DA
:1034C00000000020580000205A0000205500002075
:1034D00010B50120FFF7C4FD10BD000010B588B085
:1034E000044601210846FEF77BF801211020FEF773
:1034F000A7F8072209212248FDF7CBFD07220A2160
:103500001F48FDF7C6FD4FF4C060069002208DF8FD
:103510001C008DF81D0000208DF81E0001208DF884
:103520001F0006A91648FDF76CFD02940020ADF8B7
:103530000C00ADF80E00ADF81000ADF814000C2032
:10354000ADF8120002A90F48FEF772FF01210D48E5
:10355000FEF713FF012240F225510A48FEF743FF10
:1035600025208DF8040001208DF805008DF8060057
:103570008DF8070001A8FDF7EBFD08B010BD0000B5
:10358000000002400010014030B595B0054613AB75
:1035900012AA09A9284600F039FA044614B12046B7
:1035A00015B030BD0020149026E0224909689DF82E
:1035B000502001EBC20113AB11AA486801A900F029
:1035C00025FA04460CB12046EAE709A901A800F053
:1035D000BBFC60B99DF844009DF84810884201DDAD
:1035E0000220DDE79DF85000124988750AE09DF839
:1035F0005000401CC0B214900E48007D9DF8501041
:103600008842D2DC00BF0B48007D9DF850108842F4
:1036100001D10420C4E714A9284600F0D7FA0446D3
:103620000CB12046BCE79DF85000024948750020C7
:10363000B6E70000EC0000202DE9F0419AB09C486C
:10364000847D007DA04202DC1AB0BDE8F08198497B
:10365000096801EBC40106AB07AA486808A900F095
:10366000D5F908A993A0FFF715F8002644E0904883
:10367000008B0121B1400840D8B122218FA0FFF773
:1036800009F8304600F028FB8949243147183946AB
:103690008BA0FEF7FFFF222188A0FEF7FBFF30463C
:1036A00000F01AFB82492431084410A941F8260091
:1036B00018E0304600F010FB7D492431085810A96D
:1036C00041F826007A48C07D30B910A850F826107D
:1036D0007CA0FEF7DFFF05E010A850F826107AA0C6
:1036E000FEF7D8FF9DF81C00401EB04202D078A023
:1036F000FEF7D0FF701CC6B29DF81C008642B6DBF8
:1037000074A0FEF7C7FF00F039FB6948407D0B2825
:103710000DD2DFE800F0060D151E27323F4E5F7216
:1037200087006349096851F834008047054690E0F6
:103730005F4A126852F8341010988847054688E0AE
:103740005B4B1B6853F83420DDE9100190470546B8
:103750007FE0574F3F6857F8343010A807C89847A4
:10376000054676E0DFF848C1DCF800C05CF834704C
:1037700010A80FC8B84705466BE01498DFF830C1B1
:103780000090DCF800C05CF8347010A80FC8B8478F
:1037900005465EE0DDE91401DFF814C1CDE9000162
:1037A000DCF800C05CF8347010A80FC8B8470546B4
:1037B0004FE0DDE914121698DFF8F4C0CDE90012ED
:1037C0000290DCF800C05CF8347010A80FC8B8474D
:1037D00005463EE0DDE91423DDE91610DFF8D0C030
:1037E000CDE90023CDE90210DCF800C05CF83470AC
:1037F00010A80FC8B84705462BE0DDE91523DDE921
:103800001710CDE90123CDE903101498DFF8A0C00B
:103810000090DCF800C05CF8347010A80FC8B847FE
:10382000054616E0DDE91623DDE91810CDE902238F
:10383000CDE90410DDE91401DFF874C0CDE9000121
:10384000DCF800C05CF8347010A80FC8B847054613
:1038500000BF00BF00F050FA9DF8180001280CD1FD
:103860001348C07D20B929461BA0FEF713FF07E0CF
:1038700029461BA0FEF70EFF02E018A0FEF70AFF84
:103880000B4890F8EC0088B10948D0F8F0000A2104
:10389000B0FBF1F201FB12070548D0F8F000B0FBD5
:1038A000F1F83A46414611A0FEF7F4FE00BFCBE620
:1038B000EC0000200D0A257328000000256300009D
:1038C00025730000256C7500305825580000000055
:1038D0002C000000290000003D256C753B0D0A00FE
:1038E0003D305825583B0D0A0000000046756E63B8
:1038F00074696F6E2052756E2054696D653A256447
:103900002E2531646D730D0A00000000F0B50346EA
:103910001546002000220026002455E01F782C2F99
:1039200001D104B901221F78292F01D01F780FB9C6
:1039300004B94AE0002E34D11F78302F02DB1F7803
:10394000392F11DD1F78612F02DB1F78662F0BDD09
:103950001F78412F02DB1F78462F05DD1F78582F77
:1039600002D01F78782F0CD102B12EE01F78612F82
:1039700003DB1F78203F0F7001E01F780F70491C98
:103980001FE01F78222F04D102B11EE0012601247E
:1039900017E01F78202F14D01F782C2F11D0FF266E
:1039A00013E01F78222F00D1002402B10DE044B1B2
:1039B0001F785C2F02D15B1C471CF8B21F780F7078
:1039C000491C471CF8B25B1CA8E700BF00270F701A
:1039D0002E70F0BD10B50446002010700BE020786A
:1039E0000870641C491C1078401C107010789842B4
:1039F00001DB012010BD2078202802D0207800288B
:103A0000EDD10020087000BFF4E700002DE9FF4F62
:103A100085B080468946002700200490039001204D
:103A200002904FF0000B002544461DE0207820282E
:103A300016D005F07F00052812DA0DB945F0800593
:103A400005F07F00042803D120782A2800D00EE05A
:103A5000207805F07F010DF80100681CC5B202E076
:103A6000852D00D103E0641C20780028DED100BF42
:103A70008DB1002005F07F010DF8010051A16846CD
:103A800000F062FA18B900210898017002E00121E3
:103A90000898017000254FF0000A444614E0641CA9
:103AA0000AF1010000F0FF0A2078202802D02078D7
:103AB0002A2809D1204600F0D7F90646282E03D03F
:103AC0002A2E01D0CDF810A02078282802D0207806
:103AD0000028E4D14446049810B10498401C0444E2
:103AE0004FF0000A002654E0207810B94FF0010A88
:103AF00050E02078282803D116B9781CC7B213E00B
:103B00002078292808D13EB917B1781EC7B201E044
:103B10004FF0010A47B93DE02078222804D10EB9C0
:103B2000012000E00020064647B9207820282FD049
:103B3000207889F8000009F1010929E020782C2873
:103B400004D101200290681CC5B214E0207820281E
:103B500011D0207828280ED04DB9BBF1050F06DA18
:103B600020780DF80B000BF1010000F0FF0B02981C
:103B7000401CC0B20290012F0AD10298022807D13E
:103B80000298401CC0B202900398401CC0B203903F
:103B9000641CA9E700BF0398012809D100200DF893
:103BA0000B0008A1684600F0CFF908B90020039087
:103BB000079903980870002089F80000504609B062
:103BC000BDE8F08F766F6964000000002DE9F043D6
:103BD000B5B005460F460024002604E000213D480C
:103BE0008155701CC6B20A2EF8DB06E06D1C2878E1
:103BF00018B9012035B0BDE8F08328782828F5D120
:103C00006D1C61E034AA69462846FFF77FFE064630
:103C100035449DF8D00020B1012827D0FF284CD191
:103C200049E09DF8000000B333A9684600F027F989
:103C300006460EB10220DDE7204600F04DF825498A
:103C40000A31339A0A50A1F12400008B0121A140CE
:103C5000884320491A39088304211E480155601CF5
:103C6000C4B20A2C01DD0320C4E726E0684600F058
:103C700087F9401C00F0FF08204600F02DF8154998
:103C80000A3100EB01094946684600F06EF9114817
:103C90001A38018B0120A040014388B20D491A391E
:103CA00008830C4800F80480601CC4B20A2C01DDB3
:103CB00003209FE701E002209CE700BF2878292825
:103CC00001D0287800B900E09CE700BF3C700020DC
:103CD00090E700000601002002460020002105E0D8
:103CE000044B5B5C0344D8B24B1CD9B29142F7DB66
:103CF000704700000601002010B501210D48FEF7B5
:103D0000E9F8012808D10C48D0F8F0004FF6FF710F
:103D100008440949C1F8F0000648FEF7D8F80649FA
:103D2000D1F8F01008440449C1F8F0000846D0F872
:103D3000F00010BD00080040EC00002010B5044663
:103D400004EBC40000EB04100122C2EB800081B23E
:103D50004FF47A70FEF77CFA01200149C87510BD56
:103D6000EC00002010B50246012000E050430B009B
:103D7000A1F10104E1B2F9D110BD000010B501219B
:103D80000848FEF783F84FF6FF710648FEF703FA7E
:103D900000210448FEF701FA00200349C1F8F000B1
:103DA00010BD000000080040EC00002070B51D4868
:103DB000008800F40040002833D01A48057800201D
:103DC00019494855194881681748884704461CB95D
:103DD0001649C868804721E0134800F0DDF8054621
:103DE000012D00D02C46CCB1012C06D0022C08D0DD
:103DF000032C0AD0042C10D10BE00DA0FEF74AFCD6
:103E00000BE00EA0FEF746FC07E00FA0FEF742FC19
:103E100003E010A0FEF73EFC00BF00BF00200149F8
:103E2000088070BD68000020A8020020EC0000207F
:103E3000BAAFCAFDB4EDCEF3210D0A00B2CECAFD71
:103E4000B4EDCEF3210D0A00B2CECAFDCCABB6E084
:103E5000210D0A00CEB4D5D2B5BDC6A5C5E4B5C402
:103E6000BAAFCAFD210D0A000146491C00E0491CF9
:103E70000878202801D10029F9D1087870472DE968
:103E8000F04307460E4600254FF00A083C46002046
:103E900030601FE02078392802DC207830280ADAE8
:103EA0002078462802DC2078412804DA2078582837
:103EB00009D1012D07D12078412801DB4FF01008EE
:103EC000681CC5B205E0207800B904E00120BDE817
:103ED000F083641CDEE700BF3C46B8F1100F0FD141
:103EE000032D01DA0220F2E72078302806D160782D
:103EF000582803D1A41CA81EC5B204E00320E6E79D
:103F00000DB90420E3E71BE00DB1681EC5B22078AF
:103F1000392806DC2078302803DB2078A0F130092E
:103F200002E02078A0F1370929464046FFF71AFF42
:103F3000316809FB00103060641C207800B900E093
:103F4000E2E700BF0020C2E702460AE010780B78E3
:103F5000984201D001207047107800B902E0521C4D
:103F6000491CF3E700BF0020F5E706E002780A707D
:103F7000027802B902E0401C491CF7E700BF704715
:103F80000146002005E00A7802B903E0421CD0B2E5
:103F9000491CF8E700BF704710B58CB004461E23DB
:103FA0000BAA03A92046FFF715FD0090009810B159
:103FB00001200CB010BD9DF82C00044400200B9093
:103FC0000EE040489DF82C2050F8221003A8FFF77F
:103FD000BBFF00B908E09DF82C00401CC0B20B905C
:103FE0009DF82C000728ECD300BF9DF82C00072873
:103FF00063D2DFE800F004053C5E6564630000BF47
:1040000031A0FEF747FB31A0FEF744FB3FA0FEF7CF
:1040100041FB4EA0FEF73EFB5CA0FEF73BFB6BA016
:10402000FEF738FB79A0FEF735FB86A0FEF732FBE2
:104030008BA0FEF72FFB90A0FEF72CFB94A0FEF7C1
:1040400029FB99A0FEF726FB9EA0FEF723FBA4A068
:10405000FEF720FBB0A0FEF71DFBBDA0FEF71AFB8C
:10406000C8A0FEF717FBD4A0FEF714FB9AE216A037
:10407000FEF710FBE0A0FEF70DFB00200B900EE01A
:10408000ED4800689DF82C2000EBC2004168EBA0D1
:10409000FEF700FB9DF82C00401CC0B20B90E648D8
:1040A000007D9DF82C108842EADC07A0FEF7F2FAAA
:1040B00078E205A0FEF7EEFAC4E171E245E219E20A
:1040C000ECE10000900000200D0A00002D2D2D2DA8
:1040D0002D2D2D2D2D2D2D2D2D2D2D2D2D2D2D2D10
:1040E0002D2D2D2D55534D4152542056332E312D0B
:1040F0002D2D2D2D2D2D2D2D2D2D2D2D2D2D2D2DF0
:104100002D2D2D2D2D2D2D200D0A000020202020BD
:1041100055534D415254CAC7D3C9414C49454E54D9
:10412000454BBFAAB7A2B5C4D2BBB8F6C1E9C7C94F
:10413000B5C4B4AEBFDAB5F7CAD4BBA5BDBBD7E929
:10414000BCFE2CCDA8B9FD200D0A0000CBFC2CC470
:10415000E3BFC9D2D4CDA8B9FDB4AEBFDAD6FACA8E
:10416000D6B5F7D3C3B3CCD0F2C0EFC3E6B5C4C85D
:10417000CEBACEBAAFCAFD2CB2A2D6B4D0D02ED20F
:10418000F2B4CB2CC4E3BFC90D0A0000D2D4CBE6F5
:10419000D2E2B8FCB8C4BAAFCAFDB5C4CAE4C8EB31
:1041A000B2CECAFD28D6A7B3D6CAFDD7D62831309D
:1041B0002F3136BDF8D6C629A1A2D7D6B7FBB4AEEB
:1041C000A1A2BAAFCAFDC8EB0D0A0000BFDAB5D88C
:1041D000D6B7B5C8D7F7CEAAB2CECAFD292CB5A599
:1041E000B8F6BAAFCAFDD7EEB6E0D6A7B3D631302F
:1041F000B8F6CAE4C8EBB2CECAFD2CB2A2D6A7B3B9
:10420000D6BAAFCAFDB7B5200D0A0000BBD8D6B5E7
:10421000CFD4CABE2ED0C2D4F6B2CECAFDCFD4CA35
:10422000BEBDF8D6C6C9E8D6C3B9A6C4DC2CD0C278
:10423000D4F6BDF8D6C6D7AABBBBB9A6C4DC2E0D32
:104240000A000000BCBCCAF5D6A7B3D63A77777788
:104250002E6F70656E6564762E636F6D0D0A0000BB
:1042600055534D415254D3D037B8F6CFB5CDB3C323
:10427000FCC1EE3A0D0A00003F3A20202020202009
:10428000BBF1C8A1B0EFD6FAD0C5CFA20D0A00008D
:1042900068656C703A202020BBF1C8A1B0EFD6FA57
:1042A000D0C5CFA20D0A00006C6973743A2020209B
:1042B000BFC9D3C3B5C4BAAFCAFDC1D0B1ED0D0AF1
:1042C0000A00000069643A2020202020BFC9D3C31F
:1042D000BAAFCAFDB5C44944C1D0B1ED0D0A0A0058
:1042E0006865783A20202020B2CECAFD3136BDF86C
:1042F000D6C6CFD4CABE2CBAF3B8FABFD5B8F12B04
:10430000CAFDD7D6BCB4D6B4D0D0BDF8D6C6D7AACD
:10431000BBBB0D0A0A0000006465633A2020202020
:10432000B2CECAFD3130BDF8D6C6CFD4CABE2CBA83
:10433000F3B8FABFD5B8F12BCAFDD7D6BCB4D6B402
:10434000D0D0BDF8D6C6D7AABBBB0D0A0A00000064
:1043500072756E74696D653A312CBFAAC6F4BAAF36
:10436000CAFDD4CBD0D0BCC6CAB13B302CB9D8B171
:10437000D5BAAFCAFDD4CBD0D0BCC6CAB13B0D0AAA
:104380000A000000C7EBB0B4D5D5B3CCD0F2B1E091
:10439000D0B4B8F1CABDCAE4C8EBBAAFCAFDC3FB1A
:1043A000BCB0B2CECAFDB2A2D2D4BBD8B3B5BCFCAD
:1043B000BDE1CAF82E0D0A002D2D2D2D2D2D2D2DF0
:1043C0002D2D2D2D2D2D2D2D2D2D2D2D2D2D2D2D1D
:1043D0002D2D414C49454E54454B2D2D2D2D2D2D28
:1043E0002D2D2D2D2D2D2D2D2D2D2D2D2D2D2D2DFD
:1043F0002D2D2D200D0A00002D2D2D2D2D2D2D2D97
:104400002D2D2D2D2D2D2D2D2D2D2D2D2D2D2D2DDC
:104410002DBAAFCAFDC7E5B5A52D2D2D2D2D2D2DFE
:104420002D2D2D2D2D2D2D2D2D2D2D2D2D2D2D2DBC
:104430002D2D2D2D200D0A00EC00002025730D0AD6
:104440000000000059A0FEF725F900200B901AE0AB
:10445000664909689DF82C2001EBC20101AB02AA54
:10446000486803A9FFF7D2FA604800689DF82C104D
:1044700050F8312003A95EA0FEF70CF99DF82C003E
:10448000401CC0B20B905948007D9DF82C1088420A
:10449000DEDCAFF2CC30FEF7FDF883E0AFF2D830CF
:1044A000FEF7F8F80BAA03A92046FFF72FFA9DF8AC
:1044B0002C00C8B9694603A8FFF7E1FC0B909DF8F2
:1044C0002C0020B94FA00099FEF7E4F80EE09DF80B
:1044D0002C00042801D002206BE54DA0FEF7DAF88D
:1044E00001204249C87501E0022062E547A0FEF7BD
:1044F000D1F857E045A0FEF7CDF80BAA03A9204656
:10450000FFF704FA9DF82C00C8B9694603A8FFF725
:10451000B6FC0B909DF82C0020B942A00099FEF744
:10452000B9F80EE09DF82C00042801D0022040E5E7
:104530003FA0FEF7AFF800202C49C87501E002202B
:1045400037E532A0FEF7A6F82CE030A0FEF7A2F87F
:104550000BAA03A92046FFF7D9F99DF82C00C8B98A
:10456000694603A8FFF78BFC0B909DF82C0078B9E7
:104570001E49009881F8EC00084690F8EC0018B14C
:1045800030A0FEF787F807E035A0FEF783F803E0D8
:1045900002200EE502200CE51CA0FEF77BF801E0EE
:1045A000012006E500BF002003E500002D2D2D2D84
:1045B0002D2D2D2D2D2D2D2D2D2D2D2D2D2D2D2D2B
:1045C0002D2D2D2D2DBAAFCAFD204944202D2D2D86
:1045D0002D2D2D2D2D2D2D2D2D2D2D2D2D2D2D2D0B
:1045E0002D2D2D2D2D2D2D2D200D0A00EC00002020
:1045F00025732069642069733A0D0A3058253038D4
:10460000580D0A004845583A305825580D0A000000
:104610003136BDF8D6C6B2CECAFDCFD4CABE210D42
:104620000A0000004445433A256C750D0A0000005D
:104630003130BDF8D6C6B2CECAFDCFD4CABE210D28
:104640000A00000052756E2054696D652043616C4C
:1046500063756C6174696F6E204F4E0D0A00000027
:1046600052756E2054696D652043616C63756C6191
:1046700074696F6E204F46460D0A000010B5002089
:10468000FEF7EEFC14480078002824DD134800787B
:10469000002820DD1248007800281CDD1148008821
:1046A00000F2DC501049C88040F24C4088800F482E
:1046B000008800F2DC5048800D48008800F2DC5091
:1046C00008800846FEF7AEFE4FF4FA70FEF7FAFCDB
:1046D00001200849087010BD2E0000202D00002088
:1046E0002C0000205A00002000000020560000206E
:1046F0005800002054000020016070473A04401028
:10470000121432801716180419021A7B03060C00C3
:1047100015083E00703A713572117300A2021181C2
:104720007A207B1C7C287D3C7E557F68807681804A
:104730008288838F849685A386AF87C488D789E8CB
:1047400013E0000010000D001428A505AB07247528
:10475000256326A59F78A068A103A6DFA7DFA8F0A0
:10476000A990AA9413E50E610F4B16021E072102B1
:1047700022912907330B350B371D3871392A3C78C4
:104780004D404E2069006B4074198D4F8E008F0094
:1047900090009100920096009A80B084B10CB20E05
:1047A000B382B80A431444F0453446584728483A7F
:1047B00059885A885B445C675D495E0E64046520D5
:1047C0006605940495086C0A6D554F805080510021
:1047D0005222535E548009036E116F9F550056405C
:1047E00057406A400140024013E71500589E4108B7
:1047F0003F00750576E14C0077013DC24B09C96069
:10480000413834113B02A4899600973098209930A2
:104810009A849B299C039D4C9E3F78047901C8F0A3
:10482000790FC8007910C87E790AC880790BC80151
:10483000790CC80F790DC8207909C8807902C8C0E1
:104840007903C8407905C830792613E5015802601C
:104850004FC050C051005233538D54C0589E000079
:104860003F000000646563006964000072756E7447
:10487000696D650068656C70000000006C69737498
:104880000000000068657800766F696420736574C5
:104890005F6D6F646528753820636F6D6D616E6440
:1048A00029000000766F6964204C45445F534554ED
:1048B000287538206D6F646529000000766F696483
:1048C0002077726974655F61646472287533322081
:1048D000616464722C7533322076616C29000000AB
:1048E00075333220726561645F6164647228753368
:1048F0003220616464722900766F69642064656C9B
:1049000061795F6D7328753136206E6D73290000F3
:10491000766F69642064656C61795F75732875339F
:1049200032206E7573290000766F69642073657498
:104930005F6F66667365742875313620726F6C6CB4
:104940005F6F66667365742C753136207069745FAD
:104950006F66667365742C753136207961775F6F89
:104960006666736574290000766F696420736574E8
:104970005F676F7069742875313620676F5F706983
:1049800074290000A449000800000020E001000094
:10499000240700081C4A0008E001002090E80000FD
:1049A000C426000801702D0102030404150607083F
:1049B00009AC7A030A1829141360481B0874041AF6
:1049C0007C041A68041A84041A64041A6C0413D14F
:1049D000331B08E00813F9461B08BC0813C5301B3D
:1049E00008F8081AD908131049140825111B08A43F
:1049F000101AE9281A88081AF5081A28181AD90866
:104A00001A680822AC14203D3D1408893514083971
:0C4A1000361B08AD0C1A087B01DC00000E
:040000050800018965
:00000001FF
