:020000040800F2
:10000000609E00209D010008A90A00083D0A000822
:10001000A50A000871030008451D00080000000043
:100020000000000000000000000000005513000860
:100030005D09000800000000C90F0008AD140008A9
:10004000B7010008B7010008B7010008B7010008B0
:10005000B7010008B7010008B7010008B7010008A0
:10006000B7010008B7010008B7010008B701000890
:10007000B7010008B7010008B7010008B701000880
:10008000B7010008B7010008B7010008B701000870
:10009000B7010008B7010008B7010008B701000860
:1000A000B7010008B7010008B7010008B701000850
:1000B000B70100088915000845160008B7010008B7
:1000C000B7010008B7010008B7010008B701000830
:1000D000B7010008B51A0008B7010008B701000809
:1000E000B7010008B7010008B7010008B701000810
:1000F000B7010008B7010008B7010008B701000800
:10010000B7010008B7010008B7010008B7010008EF
:10011000B7010008B7010008B7010008B7010008DF
:10012000B7010008B7010008B7010008B7010008CF
:10013000B7010008B7010008B7010008B7010008BF
:10014000B7010008B7010008B7010008B7010008AF
:10015000B7010008B7010008B7010008B70100089F
:10016000B7010008B7010008B7010008B70100088F
:10017000B7010008B7010008CD060008B701000864
:10018000B7010008B7010008DFF80CD000F058F8FC
:100190000048004701240008609E00200648804770
:1001A00006480047FEE7FEE7FEE7FEE7FEE7FEE75C
:1001B000FEE7FEE7FEE7FEE72115000889010008DB
:1001C0002DE9F05F0546002092469B46884606468C
:1001D000814640241BE0284641464746224600F01F
:1001E00041F853465A46C01A914110D31146184659
:1001F000224600F016F82D1A67EB01084F462246FA
:100200000120002100F00DF817EB00094E41201EDF
:10021000A4F10104DFDC484631462A464346BDE8E6
:10022000F09F202A04DB203A00FA02F100207047F8
:100230009140C2F1200320FA03F319439040704724
:10024000064C074D06E0E06840F0010394E8070023
:1002500098471034AC42F6D3FFF79AFF083A0008EB
:10026000283A0008202A04DB203A21FA02F0002173
:10027000704721FA02F3D040C2F1200291400843B6
:100280001946704770B58C1810F8015B15F007031C
:1002900001D110F8013B2A1106D110F8012B03E01F
:1002A00010F8016B01F8016B5B1EF9D12B0705D427
:1002B0000023521E0DD401F8013BFAE710F8013B70
:1002C000CB1A921C03E013F8015B01F8015B521E8C
:1002D000F9D5A142D8D3002070BD000010B54FF46D
:1002E000806000F01FFC01F01BF900F0A9FB01F099
:1002F000E1F84FF4E13001F027FD322000F058FD25
:100300004FF4E13002F0DCF842F2CF0142F20F701C
:1003100001F06AF9134841685420884700F054FC02
:10032000B8B115E04FF400710F4800F083FB4FF4B3
:10033000967002F00FF84FF400710B4800F07CFB50
:100340004FF4967002F006F80021084801F0DDFC39
:10035000E8E74FF47A7001F0FDFF00F0FDF90120AD
:1003600010BD0000A4000020000402400044004032
:1003700000BFFEE700B589B00121084600F036FE57
:100380000121880500F022FE0121172000F01EFE49
:100390000121082000F01AFE002208217C4800F00C
:1003A00026FB4FF48070079002208DF821008DF815
:1003B000200000208DF8220001208DF8230007A9DD
:1003C000734800F0CCFA00214FF4800000F0B2FE38
:1003D0008020079001208DF8200002208DF8210058
:1003E00000208DF8220001208DF8230007A968481D
:1003F00000F0B5FA8021664800F01CFB80200790D1
:1004000000208DF8200003208DF8210000208DF8B9
:10041000220001208DF8230007A95E4800F09FFA12
:1004200080215C4800F008FB0A2001F093FF802146
:10043000584800F0FFFA0A2001F08CFF802155484F
:1004400000F0FAFA0D220421514800F0D0FA0D22F2
:1004500006214F4800F0CBFA0D2206214E4800F04D
:10046000C6FA0D2207214C4800F0C1FA0D220521E1
:100470004A4800F0BCFA0D220621484800F0B7FABD
:100480000D220621464800F0B2FA0D220721444809
:1004900000F0ADFA0D220021404800F0A8FA0D222C
:1004A00001213E4800F0A3FA0D2204213B4800F050
:1004B0009EFAC020079002208DF8200003208DF8BE
:1004C000210000208DF8220001208DF8230007A9CB
:1004D000334800F044FA7320079007A92F4800F032
:1004E0003EFAC020079007A92B4800F038FA5020A8
:1004F000079007A9264800F032FA40F23F10ADF805
:100500000A000120ADF806007720ADF808000120B0
:10051000ADF8040001A800F059F8012000F044F8FB
:100520000020ADF80C00ADF80E00ADF810008020F2
:10053000ADF812000020ADF814004FF40070ADF8D3
:1005400016000020ADF8180003A800F0E5F801211E
:10055000084600F0CFF8012000F060F84FF4806307
:100560001A014FF416510F4800F06AF84E208DF82A
:10057000000001208DF8010002208DF8020001200A
:100580008DF80300684600F091FA09B000BD000044
:1005900000000240000C0240000402400010024033
:1005A000000802406004002030B10749096841F0AA
:1005B0000401054A116005E00349096821F00401BE
:1005C000014A116070470000000005504188028810
:1005D00041EA0241044A1162C188828841EA02412B
:1005E000014A5162704700000000055030B10749D0
:1005F000096841F00101054A116005E003490968F5
:1006000021F00101014A116070470000000005500F
:1006100001494861704700000000055030B10749AA
:10062000096841F48041054A116005E00349096801
:1006300021F48041014A116070470000000005501C
:10064000F0B58FB004460D4616461F4601218805B9
:1006500000F0BCFC144800F099F800BF124800F00C
:1006600041F90028FAD14FF0007000900F48019036
:100670000294002003900495059006974FF4805053
:10068000079008960011099040020A9004200B90F0
:1006900003200C9000200D900E906946024800F057
:1006A0002FF90FB0F0BD000028640240280005506B
:1006B000014600200022044B1B6903EA01020AB133
:1006C000012000E0002070470000055010B5012017
:1006D000FFF7EEFF012809D101F05EFE0120FFF7D0
:1006E00097FF03480078401C0149087010BD0000C6
:1006F0001400002029B1074AD2680243054BDA6092
:1007000006E0044AD268C3439BB21A40014BDA6048
:10071000704700000000055000210E4A126844F2A4
:1007200001039A430B4B1A601A46116840F6F272A5
:100730009143028843881A4383881A43C3881A4323
:1007400003891A4343891A4383891A431143014A8F
:10075000116070470000055010B50121044800F0F9
:1007600009F8642001F0F6FD0120FFF73FFF10BDFE
:100770002864024021B1026842F00102026003E0F5
:10078000026822F00102026070470000016821F057
:10079000010101600021016041608160C16001616F
:1007A000212141614A49884204D13D21484A103AF9
:1007B00091608CE046491831884205D14FF474614C
:1007C000434A103A916082E041493031884205D174
:1007D0004FF474113E4A103A916078E03C49483138
:1007E000884205D14FF07461394A103A91606EE049
:1007F00037496031884204D13649354A103AD160D0
:1008000065E033497831884204D13349304A103A9F
:10081000D1605CE02E499031884204D12F492C4AA6
:10082000103AD16053E02A49A831884205D14FF0EF
:100830003D51274A103AD16049E02949884204D104
:100840003D21274A083A116041E025491831884284
:1008500005D14FF47461224A083A116037E020490B
:100860003031884205D14FF474111D4A083A1160A5
:100870002DE01B494831884205D14FF07461184A78
:10088000083A116023E016496031884204D11149C9
:10089000134A121F11601AE011497831884204D1BD
:1008A0000D490F4A121F116011E00D499031884225
:1008B00004D10A490A4A121F116008E00849A83108
:1008C000884204D14FF03D51054A121F1160704714
:1008D000106002403D000020400F002000003D203D
:1008E00010640240014600200A6802F001020AB1C9
:1008F000012000E0002070470146486880B2704740
:1009000010B500220268134B1A40CC680B682343D1
:100910004C6923438C692343CC6923430C6A2343EA
:100920004C6A23438C6A23434C6B23438C6B2343D5
:100930001A430260426922F00702D1E90B342343D3
:100940001A4342610B6943604B6883608B68C360E4
:1009500010BD00003F801CF0416070477047F0B54B
:100960000A4600210023002400BF3DE0012505FACE
:1009700001F3156805EA03049C4234D105684F0071
:100980000326BE40B543056015794E00B5400668A4
:10099000354305601579012D02D01579022D16D148
:1009A00085684F000326BE40B543856055794E00EB
:1009B000B540866835438560456801268E40B5435D
:1009C0004560456896798E40B6B235434560C56846
:1009D0004F000326BE40B543C560D5794E00B540F3
:1009E000C6683543C560491C1029BFD3F0BDF0B5BA
:1009F000002300244D07ED0E02FA05F3CE1000F19E
:100A0000200555F826504E07F70E0F26BE40B54379
:100A1000CF1000F1200646F82750CE1000F1200537
:100A200055F8265045EA0304CE1000F1200545F89C
:100A30002640F0BD418370470183704700BFFEE749
:100A40001CB50121022000F0C1FA01208DF804003C
:100A500000208DF8060003208DF8050000208DF899
:100A600007004FF40070009069460448FFF777FFD5
:100A70004FF400710148FFF7DFFF1CBD0004024086
:100A800010B504462CB14FF400710548FFF7D2FFB2
:100A900004E04FF400710248FFF7CEFF10BD0000E4
:100AA0000004024000BFFEE77047000070B500215F
:100AB00000230F22C4781CB3174C246804F4E064AC
:100AC000C4F5E064C4F30721C1F10404E3B20A41B0
:100AD00044789C40E1B28478144021430C07210EF5
:100AE0000E4C05786155047804F01F050124AC40D4
:100AF00005786D11AD0005F1E025C5F8004109E06C
:100B0000047804F01F050124AC40054D06787611E9
:100B100045F8264070BD00000CED00E000E400E068
:100B200080E100E002490143024A11607047000081
:100B30000000FA050CED00E0F8B504460D46164637
:100B40001F46C4F3C701172000F00BF9C6F3C70115
:100B5000182000F006F96946322000F0C9F89DF827
:100B6000000000F0C00006F0070140EAC10004F0F8
:100B70000701084300909DF80010322000F0F1F8C2
:100B8000C5F38701192000F0ECF8C7F387011A209C
:100B900000F0E7F86946032000F0AAF89DF800008D
:100BA00000F0F00007F0030140EA810005F00301C6
:100BB000084300909DF80010032000F0D2F80021B7
:100BC000112000F0CEF8F8BD70B5FFF7D3FB00F0B0
:100BD000BFFA00F0C0F8052001F0BCFB00F080F87F
:100BE000054600240AE00B4A02EB44025178094A08
:100BF00012F8140000F0B5F8601CC4B2A72CF2D3B0
:100C000078234FF4A0720A21B82000F005F80020E4
:100C100070BD0000AC3700082DE9FC5F04460D46AE
:100C200016461F4604EB46004FF4447190FBF1F268
:100C300001FB12001FFA80F805EB47001FFA80F94C
:100C400001A9322000F054F883469DF8040000F01A
:100C5000C00001906946032000F04AF883469DF8E1
:100C6000000000F0F000009008F007009DF804106C
:100C700041EAC00004F0070140EA010A514632206F
:100C800000F06FF88346C4F3C70A5146172000F0FE
:100C900068F88346C8F3C70A5146182000F061F887
:100CA000834609F003009DF8001041EA800005F03A
:100CB000030140EA010A5146032000F052F883463E
:100CC000C5F3870A5146192000F04BF88346C9F353
:100CD000870A51461A2000F044F88346BDE8FC9F7D
:100CE00008B569460B2000F003F89DF8000008BD28
:100CF00070B505460C4600F09FFA422000F0DAFA83
:100D000018B100F0BBFA012070BD0A2001F02CFBE5
:100D1000284600F0CFFA18B100F0B0FA0220F3E74D
:100D200000F0ACFA0A2001F01FFB00F085FA432026
:100D300000F0C0FA18B100F0A1FA0320E4E70A209D
:100D400001F012FB00F020FA207001F093FB00F09C
:100D500095FA0020D8E710B58021122000F001F8A4
:100D600010BD70B505460C4600F066FA422000F052
:100D7000A1FA18B100F082FA012070BD0A2001F03A
:100D8000F3FA284600F096FA18B100F077FA02203C
:100D9000F3E70A2001F0E8FA204600F08BFA18B1D8
:100DA00000F06CFA0320E8E700F068FA0020E4E7BE
:100DB00070B58AB00646002542F2107006FB00F4BA
:100DC00007A800F033FE02A800F0DFFD0CB90120F7
:100DD00004E07748844200D900E02046044601211F
:100DE000082000F013F90121084600F01FF9012145
:100DF000112000F0EBF80C20009002208DF8040088
:100E000003208DF8050000208DF8060001208DF8E4
:100E1000070069466748FFF7A2FD022211466548B0
:100E2000FFF7E5FD022203216248FFF7E0FD62487B
:100E300000684008B0FBF4F0401E85B242F210702A
:100E40000890ADF81C500020ADF82400ADF81E004D
:100E500007A95A4800F0A8FD6020ADF8080000205E
:100E6000ADF814000120ADF80A004FF4FA700490B8
:100E700002A9524800F0E6FC0821504800F032FD7B
:100E80000120ADF80A004FF4FA70049002A94B4813
:100E900000F032FD0821494800F06AFD0121474871
:100EA00000F0ECFB0121454800F0FAFB4FF4D44080
:100EB000009002208DF8040003208DF8050000202A
:100EC0008DF8060001208DF8070069463C48FFF7C1
:100ED00046FD012209213A48FFF789FD01220B2135
:100EE0003748FFF784FD01220D213548FFF77FFDCC
:100EF00001220E213248FFF77AFD2F480068B0FB2F
:100F0000F4F0401E85B242F210700890ADF81C500B
:100F10000020ADF82400ADF81E008DF8260007A9CA
:100F2000284800F041FD6020ADF808000020ADF831
:100F30000C00ADF814000820ADF816004001ADF823
:100F400018000020ADF81A000120ADF80A004FF497
:100F5000FA70049002A91B4800F0E4FB4FF4FA7009
:100F6000049002A9174800F01BFC4FF4FA7004909B
:100F700002A9144800F066FC4FF4FA70049002A92C
:100F8000104800F0B9FC01210E4800F095FB01214A
:100F90000C4800F073FB01210A4800F081FB044873
:100FA000844202D900200AB070BD0120FBE7000096
:100FB00000BD0105000002403C000020000C004084
:100FC00000100240000001407047000029B1064AAD
:100FD00012680243044B1A6004E0034A1268824319
:100FE000014B1A60704700003038024029B1064AB0
:100FF00012680243044B1A6004E0034A12688243F9
:10100000014B1A60704700003438024029B1064A8B
:1010100012680243044B1A6004E0034A12688243D8
:10102000014B1A60704700004038024029B1064A5F
:1010300012680243044B1A6004E0034A12688243B8
:10104000014B1A607047000044380240F0B500219F
:1010500000220024022500260223324F3F6807F0B9
:101060000C0121B1042905D0082937D105E02E4F04
:10107000076036E02D4F076033E02A4F3F1F3F687F
:10108000C7F38056274F3F1F3F6807F03F036EB1FD
:10109000264FB7FBF3F7DFF88CC0ACF1040CDCF89B
:1010A00000C0CCF3881C07FB0CF40CE01E4FB7FB10
:1010B000F3F7DFF870C0ACF1040CDCF800C0CCF33F
:1010C000881C07FB0CF4174F3F1F3F68C7F301470D
:1010D0007F1C7D00B4FBF5F7076002E0124F07604C
:1010E00000BF00BF0F4F3F6807F0F0010909104F24
:1010F0007A5C0768D74047600A4F3F6807F4E051C1
:10110000890A0B4F7A5C4768D7408760054F3F6874
:1011100007F46041490B064F7A5C4768D740C760C7
:10112000F0BD0000083802400024F40040787D0142
:101130002C00002002460020044B186820F0EC60D0
:1011400042EA01031843014B186070470838024017
:101150001CB501210220FFF739FF4FF440600090D9
:1011600001208DF8040000208DF8060001208DF884
:10117000070002208DF8050069460248FFF7EFFBE3
:101180001CBD00000004024070B5002400F028F8E7
:10119000322001F0E9F808251AE0322001F0E4F8E5
:1011A0004FF480600D4908806006040E0B48083833
:1011B000006800F4006008B1601CC4B2322001F085
:1011C000D3F84FF480600549891C0880681EC5B2B9
:1011D000002DE2DC00F018F8204670BD1804024033
:1011E0001CB54FF40060009000208DF80400012031
:1011F0008DF8070002208DF8050069460148FFF7C9
:10120000AEFB1CBD000402401CB54FF40060009012
:1012100001208DF8040000208DF8060001208DF8D3
:10122000070002208DF8050069460248FFF797FB8A
:101230001CBD00000004024010B54FF400600E49D0
:101240000880322001F090F84FF480600A4908804D
:10125000322001F089F84FF400600749891C0880AA
:10126000322001F081F84FF480600349891C088026
:10127000322001F079F810BD1804024010B54FF487
:1012800000600B490880322001F06EF84FF4806056
:101290000749891E0880322001F066F84FF400608B
:1012A0000349891E0880322001F05EF810BD00005D
:1012B0001A04024070B50446002622E004F08000C3
:1012C00020B14FF400602249088004E04FF4006030
:1012D0001F49891C08806006040E322001F044F882
:1012E0004FF480601A490880322001F03DF84FF435
:1012F00080601749891C0880322001F035F8701C85
:10130000C6B2082EDADB0A2001F02EF8FFF768FFDC
:10131000322001F029F84FF480600D4908800A203E
:1013200001F022F80A480838006800F4006008B1AB
:10133000012500E000254FF480600549891C0880E4
:10134000322001F011F8FFF75FFF284670BD000062
:1013500018040240704700003CB50346002015E029
:1013600033F810402DF810403DF910408C4201DA5E
:101370000C4607E03DF91040944201DD144601E0BF
:101380003DF910402DF81040441CE0B20428E7DB82
:10139000BDF9064004F5FA74084D2C64BDF904400B
:1013A00004F5FA74EC63BDF9024004F5FA74AC6319
:1013B000BDF9004004F5FA746C633CBD00000140C7
:1013C0000CB50020019000903448006840F4803053
:1013D0003249086000BF3148006800F400300090D6
:1013E0000198401C0190009818B90198B0F5A06FC1
:1013F000F1D12A48006800F4003010B101200090BB
:1014000001E0002000900098012846D12348403098
:10141000006840F080502149403108602048006851
:1014200040F480401E4908601C48083000681B4991
:10143000083108600846006840F40040086008462B
:10144000006840F4A05008601648091F0860081F93
:10145000006840F08070091F086000BF0F480068F6
:1014600000F000700028F9D040F205600E490860D5
:101470000A480830006820F0030008490831086075
:101480000846006840F00200086000BF03480830CA
:10149000006800F00C000828F8D10CBD00380240AC
:1014A0000070004019544007003C024010B500F0A5
:1014B000C7FA10BD30B500BF15480068154AB0FB2B
:1014C000F2F1B1F1807F01D301201DE021F07F40D6
:1014D000401E4FF0E022506150170F22002807DA1B
:1014E00013071D0E0C4B00F00F04241F1D5503E0C5
:1014F00013071C0E094B1C5400BF00204FF0E022C4
:1015000090610720106100200028D5D130BD000077
:101510003C00002040420F0018ED00E000E400E035
:1015200010B51548006840F470001349086013486E
:10153000006840F001001149086000200F4908319F
:1015400008600E4800680E4908400C4908600D48C4
:10155000091D0860081F006820F48020091F08602A
:10156000002006490C310860FFF72AFF4FF00060A9
:1015700001498039086010BD88ED00E00038024064
:10158000FFFFF6FE1030002410B501210B4800F0DB
:10159000AEF801280CD10A4801780AA000F04CFCF2
:1015A0000B4801880BA000F047FC0020044908709C
:1015B0000121024800F071F810BD00000004004055
:1015C000140000206672616D653A25640D0A000002
:1015D000180000206A7065675F646174615F6C6504
:1015E0006E3A25640D0A00007FB504460D460121C0
:1015F0000220FFF70BFDADF804500020ADF8060007
:101600000294ADF80C0001A90D4800F0CDF90122BB
:1016100011460B4800F07CF80121094800F040F821
:101620001D208DF8000001208DF8010003208DF8A9
:10163000020001208DF803006846FFF737FA7FBDEE
:101640000004004010B501210A4800F050F80128BC
:101650000AD10949086980470021064800F0A1F92C
:101660006421044800F09BF90121024800F015F8BC
:1016700010BD000000080040A400002021B1028835
:1016800042F08002028004E002884FF67F731A4025
:1016900002807047CA4302827047CA430282704781
:1016A00021B1028842F00102028004E002884FF674
:1016B000FE731A400280704731B1B0F8442042F402
:1016C0000042A0F8442005E0B0F84420C2F30E0226
:1016D000A0F8442070470146486A7047024600203F
:1016E000138A0B400BB1012000E00020704730B599
:1016F0000246002000230024158A05EA010395898B
:1017000005EA010413B10CB1012000E0002030BD56
:101710001AB183890B43838102E083898B438381E0
:101720007047000070B5002400220023058C4FF69E
:10173000FE7635400584028C8388048B4FF68F75C6
:101740002C40B51E2C400D882C43751E2A408D89D7
:101750002A434D882A43104DA84202D00F4DA8427B
:1017600013D14FF6F7752A40CD892A434FF6FB7502
:101770002A408D882A434FF6FF652B404FF6FF55D0
:101780002B400D8A2B434D8A2B43838004838D6825
:101790004563028470BD0000000001400004014068
:1017A00070B5002400220023058C4FF6EF763540FB
:1017B0000584028C8388048B48F6FF752C404FF615
:1017C000FF452C400D884FF6FF7606EA05252C4391
:1017D0004FF6DF752A408D8906EA05152A434D88A4
:1017E00006EA05152A43154DA84202D0144DA84219
:1017F0001DD14FF67F752A40CD894FF6FF7606EA58
:1018000005152A434FF6BF752A408D8806EA05154F
:101810002A434FF6FF352B404FF2FF752B400D8AC0
:1018200006EA85052B434D8A06EA85052B4383800E
:1018300004838D688563028470BD00000000014050
:101840000004014070B5002400220023058C4FF6EF
:10185000FF6635400584028C8388848B4FF68F7534
:101860002C404FF6FC752C400D882C434FF6FF554D
:101870002A408D894FF6FF7606EA05252A434D88D2
:1018800006EA05252A43154DA84202D0144DA84268
:101890001DD14FF2FF752A40CD894FF6FF7606EA3B
:1018A00005252A434FF6FF352A408D8806EA05258F
:1018B0002A434EF6FF752B404DF6FF752B400D8ADF
:1018C00006EA05152B434D8A06EA05152B4383804E
:1018D00084838D68C563028470BD000000000140F0
:1018E000000401400A460021818B4FF6F77319402E
:1018F000114381837047000070B50022002300244B
:10190000058C4EF6FF7635400584038C8488828BE7
:1019100048F6FF752A404FF6FF452A400D884FF6DE
:10192000FF7606EA05252A434DF6FF752B408D8983
:1019300006EA05352B434D8806EA05352B430A4D4B
:10194000A84202D0094DA84208D14BF6FF752C40A1
:101950000D8A4FF6FF7606EA85152C438480828334
:101960008D680564038470BD0000014000040140DF
:101970000A460021818B4FF2FF7319404FF6FF7327
:1019800003EA0223194381837047002101804180CB
:10199000818081608181C181018241827047C16201
:1019A000704741627047000000220288184B98423D
:1019B0000ED0184B98420BD0B0F1804F08D0164B88
:1019C000984205D0154B984202D0154B984204D14D
:1019D0004FF68F731A404B881A43124B984207D028
:1019E000114B984204D04FF6FF431A400B891A431B
:1019F00002804B68C3620B880385054B984202D076
:101A0000044B984201D18B7A03860123838270476D
:101A100000000140000401400004004000080040B4
:101A2000000C004000100040001400404FF0FF3157
:101A30004160002101800181418081727047000076
:101A40000448006820B103480068401E014908604E
:101A500070470000200000207FB504460D4601219C
:101A60000420FFF7D3FAADF800500020ADF80200D3
:101A70000194ADF8080069460D48FFF795FF012273
:101A800011460B48FFF744FE01210948FFF708FE05
:101A90001E208DF80C0003208DF80D008DF80E002F
:101AA00001208DF80F0003A8FFF700F87FBD0000AC
:101AB0000008004010B540F225511D4800F067F8BD
:101AC00010B31B4800F01CF9C4B21A48008800F497
:101AD0000040C8B91748008800F4804060B10A2C63
:101AE00003D000201349088020E01248008840F409
:101AF00000401049088019E00D2C06D10D480088DF
:101B000040F480400B49088010E00A480088C0F388
:101B10000D0009490C5407480088401C05490880FD
:101B200008460088C72801DD0020088010BD00009D
:101B300000100140280000209801002010B5024646
:101B40000020108A20F470600B884C8823438C8816
:101B50002343CC8823431843108210BD21B18289CE
:101B600042F40052828104E082894DF6FF731A40EC
:101B70008281704702460020B1F5007F00D100BF8E
:101B800013880B400BB1012000E00020704770B5B6
:101B90000246002400230025002040F66A16B142C8
:101BA00000D100BFC1F3421501F01F03012606FA60
:101BB00003F3012D02D19689334006E0022D02D1B4
:101BC000168A334001E0968A33400C12012606FA49
:101BD00004F41688344013B10CB1012000E0002059
:101BE00070BDF0B50346002400260025002040F615
:101BF0006A17B94200D100BF1846C1F3421401F080
:101C00001F06012707FA06F5012C01D10C3004E06C
:101C1000022C01D1103000E014301AB107682F43B4
:101C2000076002E00768AF430760F0BD2DE9FF479A
:101C300005460E460024A14600BFA046B08900B16B
:101C400000BF2C8A24F44054F08804432C82AC89D1
:101C500041F20C608443B08831890843718908439C
:101C60000443AC81AC8A24F44074B0890443AC8250
:101C70006846FFF7EBF92048854202D01F488542AD
:101C800002D1DDF80C9001E0DDF80890A88900F49D
:101C9000004040B109EBC90000EB09103168490070
:101CA000B0FBF1F707E009EBC90000EB0910316860
:101CB0008900B0FBF1F76420B7FBF0F004012009C4
:101CC000642101FB1078A88900F4004040B1322063
:101CD00000EBC800B0FBF1F000F00700044308E09F
:101CE000322000EB08106421B0FBF1F000F00F008F
:101CF00004432C81BDE8FF8700100140001401401F
:101D000001468888C0F308007047C1F3080282804A
:101D100070472DE9F04107460C461546012600BFE5
:101D20000CE021783846FFF7F0FF00BF80213846ED
:101D3000FFF720FF0028F9D0641C761CAE42F0D9D2
:101D4000BDE8F08100BFFEE710B58AB0044601216E
:101D50004804FFF75BF901210820FFF737F9262037
:101D60008DF80C0002208DF80D0000208DF80E007B
:101D700001208DF80F0003A8FEF798FE0722052129
:101D80002B48FEF734FE072206212948FEF72FFED6
:101D90002020019002208DF808008DF80900002015
:101DA0008DF80A0001208DF80B0001A92048FEF7EC
:101DB000D6FD4020019002208DF808008DF8090022
:101DC00001208DF80A0000208DF80B0001A91848A9
:101DD000FEF7C5FD06940020ADF81C00ADF81E000E
:101DE000ADF82000ADF824000C20ADF82200002052
:101DF000ADF81000ADF812004FF40070ADF814000B
:101E00000020ADF8160006A90A48FFF70FFF04A945
:101E10000848FFF793FE012240F225510548FFF7DD
:101E2000E0FE01210348FFF799FE0AB010BD000053
:101E3000000C0240004400400FB4054B10B503A94C
:101E4000044A029800F018F810BC5DF814FB00007A
:101E50007D2300082400002002E008C8121F08C1EA
:101E6000002AFAD170477047002001E001C1121F1B
:101E7000002AFBD1704700002DE9FF4F8DB00F46BF
:101E80000546002606E025280BD0DDE90F12904715
:101E90006D1C761C28780028F5D111B03046BDE8BD
:101EA000F08F0024A246A1460122EC4900E0044341
:101EB00015F8013F203B02FA03F00842F7D12878D9
:101EC0002A2810D06FF02F022878A0F130010929BC
:101ED00014D80AEB8A0102EB410144F0020400EB42
:101EE000010A6D1CF0E701CF5FEA000A03D544F454
:101EF0000054CAF1000A44F002046D1C28782E2810
:101F000017D115F8010F44F004042A280ED06FF001
:101F10002F022878A0F1300109290AD809EB89019C
:101F200002EB410100EB01096D1CF2E757F8049B3D
:101F30006D1C28786C280FD006DC4C2817D0682838
:101F40000DD06A2814D104E0742810D07A280FD15B
:101F50000DE044F400140AE044F4801401E044F479
:101F600040146978814202D104F580146D1C6D1C07
:101F70002A786E2A1FD00CDC632A31D004DC002AB8
:101F80008BD0582A11D1A3E0642A68D0692A0CD1D9
:101F900065E0732A2ED004DC6F2A73D0702A04D136
:101FA0009BE0752A6FD0782A6ED01046DDE90F12BB
:101FB0009047761C50E1C4F30250022806D0032853
:101FC00009D0042801CF09D0066045E101CFF117FF
:101FD000C0E9006140E101CF06803DE106703BE1D0
:101FE00017F8040B8DF8000000208DF80100EB4677
:101FF000012003E057F804BB4FF0FF3061074FF0BA
:10200000000102D40DE008F10101884649450FDACC
:102010008045F8DB1BF808100029F4D108E008F12E
:10202000010188468142FADB1BF808100029F6D12D
:10203000DDE90F23AAEB08008146214600F036F9BE
:10204000304400EB080604E0DDE90F121BF8010B39
:102050009047B8F10108F7D221464846F7E00A2137
:10206000C4F302534FF0000B0891022B04D001CFB0
:10207000C117032B09D00AE0FF1D27F00707F7E877
:10208000020108E032E01FE020E000B2C117042B9B
:1020900001D140B2C117031E71F1000307DA4FF0FE
:1020A000000CD0EB0C006CEB01012D2302E02305AA
:1020B00004D52B238DF82430012303E0E30701D05E
:1020C0002023F7E7984658E00A2110E010210EE09F
:1020D00010204FF0000B08900CE010214FF0000B87
:1020E00044F004044FF00809089103E008214FF080
:1020F000000B0891C4F30253022B04D001CF00213E
:10210000032B06D006E0FF1D27F00707F7E80201C2
:1021100003E080B2042B00D1C0B24FF000082307C7
:102120002BD5702A07D0DDF820C08CF0100C5CEAAB
:102130000B0C05D00EE040238DF82430012308E07D
:1021400050EA010306D030238DF824308DF8252085
:1021500002239846DDF820C08CF0080C5CEA0B0CDA
:102160000BD150EA010301D1630706D530238DF866
:1021700024304FF00108A9F10109582A04D038A2EF
:102180000B9208AA0A920BE03AA2F9E75B46089A7A
:10219000FEF716F80B9B9B5C0A9A521E0A9213706C
:1021A00050EA0102F2D10A98ADEB000000F1200BD9
:1021B000600702D524F4803401E04FF00109D945CD
:1021C00002DDA9EB0B0000E0002000EB0B01414415
:1021D0000890AAEB010AE00306D4DDE90F232146AB
:1021E000504600F063F806444FF0000908E009A9E2
:1021F00011F80900DDE90F12904709F10109761C79
:10220000C145F4DBE0030CD5DDE90F232146504640
:1022100000F04CF8064404E0DDE90F12302090474E
:10222000761C0899481E08900029F5DC08E00A98F9
:102230000A990078491C0A91DDE90F129047761C33
:10224000BBF10001ABF1010BF1DC21465046DDE9A9
:102250000F2300F019F806446D1C1BE60928010045
:10226000303132333435363738396162636465660C
:1022700000000000303132333435363738394142CE
:1022800043444546000000002DE9F0410446002586
:102290001E461746880404D405E039462020B0477E
:1022A0006D1C641EF9D52846BDE8F0812DE9F0418A
:1022B000044600251E469046C80301D5302700E09D
:1022C0002027880404D505E041463846B0476D1CF8
:1022D000641EF9D52846BDE8F081000010B504461B
:1022E000B4F90010A1F57A7000EBD071491009B271
:1022F000114A1180B4F90210A1F57A7000EBD07187
:10230000491009B25180B4F90410A1F57A7000EBBC
:10231000D071491009B29180B4F90610A1F57A7014
:1023200000EBD071491009B2D1804FF47A720021CC
:102330000148FFF711F810BD020000204FF47A7039
:102340000349086000BF024800680028FBD17047BD
:102350002000002000B5024601E0FFF7EFFF10006B
:10236000A2F10102F9D100BD0349086000BF024992
:1023700009680029FBD170472000002000BF054AF2
:10238000128802F04002002AF9D0C2B2014B9A80B2
:10239000704700000010014010B51648007898B949
:1023A00000211548FEF7E6F900BF1348FEF79AFA38
:1023B0000028FAD11048FEF79FFAC0F516500F49D1
:1023C000086001200B4908700A48007802280FD1E4
:1023D0004FF416500849091D086001460648FEF7EB
:1023E000BBFA01210448FEF7C5F900200149087035
:1023F00010BD00001C0000202864024018000020CE
:10240000FDF76CFF154908706420FFF7A3FF14481F
:10241000FFF764FF4FF416551FE0124800780128BB
:1024200016D14FF41645104C41021048FEF702FB3E
:102430002A4621460E48FFF76CFCE811FFF78AFF99
:102440004FF400710948FEF7F7FA022005490870B9
:102450004FF400710548FEF7EFFADEE700000020B8
:102460000A0000201C00002060040020000402403C
:102470000044004010B54FF400600E49088032203F
:10248000FFF772FF4FF480600A4908803220FFF79F
:102490006BFF4FF480600749891C08803220FFF7EA
:1024A00063FF4FF400600349891C08803220FFF766
:1024B0005BFF10BD18040240014608687047000029
:1024C00010B588B0044601210846FEF77FFD0121C2
:1024D0001020FEF7ABFD072209212248FEF787FAFC
:1024E00007220A211F48FEF782FA4FF4C0600690C7
:1024F00002208DF81C008DF81D0000208DF81E00B4
:1025000001208DF81F0006A91648FEF728FA02944C
:102510000020ADF80C00ADF80E00ADF81000ADF8DD
:1025200014000C20ADF8120002A90F48FFF77EFB43
:1025300001210D48FFF712FB012240F225510A4804
:10254000FFF74FFB25208DF8040007208DF80500CC
:1025500001208DF806008DF8070001A8FEF7A6FA05
:1025600008B010BD000002400010014030B595B029
:10257000054613AB12AA09A9284600F039FA044609
:1025800014B1204615B030BD0020149026E0224939
:1025900009689DF8502001EBC20113AB11AA4868ED
:1025A00001A900F025FA04460CB12046EAE709A982
:1025B00001A800F0BBFC60B99DF844009DF84810EC
:1025C000884201DD0220DDE79DF850001249887540
:1025D0000AE09DF85000401CC0B214900E48007DE7
:1025E0009DF850108842D2DC00BF0B48007D9DF85A
:1025F0005010884201D10420C4E714A9284600F0F5
:10260000D7FA04460CB12046BCE79DF850000249B9
:1026100048750020B6E70000A40000202DE9F04135
:102620009AB09C48847D007DA04202DC1AB0BDE8CF
:10263000F0819849096801EBC40106AB07AA486814
:1026400008A900F0D5F908A993A0FFF7F5FB00262B
:1026500044E09048008B0121B1400840D8B12221CC
:102660008FA0FFF7E9FB304600F028FB89492431B1
:10267000471839468BA0FFF7DFFB222188A0FFF720
:10268000DBFB304600F01AFB82492431084410A9D4
:1026900041F8260018E0304600F010FB7D49243157
:1026A000085810A941F826007A48C07D30B910A812
:1026B00050F826107CA0FFF7BFFB05E010A850F8EB
:1026C00026107AA0FFF7B8FB9DF81C00401EB04210
:1026D00002D078A0FFF7B0FB701CC6B29DF81C00BA
:1026E0008642B6DB74A0FFF7A7FB00F039FB694810
:1026F000407D0B280DD2DFE800F0060D151E2732B5
:102700003F4E5F7287006349096851F83400804783
:10271000054690E05F4A126852F8341010988847D6
:10272000054688E05B4B1B6853F83420DDE9100157
:10273000904705467FE0574F3F6857F8343010A860
:1027400007C89847054676E0DFF848C1DCF800C0C6
:102750005CF8347010A80FC8B84705466BE01498B1
:10276000DFF830C10090DCF800C05CF8347010A8CD
:102770000FC8B84705465EE0DDE91401DFF814C173
:10278000CDE90001DCF800C05CF8347010A80FC877
:10279000B84705464FE0DDE914121698DFF8F4C09B
:1027A000CDE900120290DCF800C05CF8347010A88B
:1027B0000FC8B84705463EE0DDE91423DDE91610F1
:1027C000DFF8D0C0CDE90023CDE90210DCF800C06D
:1027D0005CF8347010A80FC8B84705462BE0DDE957
:1027E0001523DDE91710CDE90123CDE90310149875
:1027F000DFF8A0C00090DCF800C05CF8347010A8CE
:102800000FC8B847054616E0DDE91623DDE91810C4
:10281000CDE90223CDE90410DDE91401DFF874C02D
:10282000CDE90001DCF800C05CF8347010A80FC8D6
:10283000B847054600BF00BF00F050FA9DF81800E9
:1028400001280CD11348C07D20B929461BA0FFF7F1
:10285000F3FA07E029461BA0FFF7EEFA02E018A002
:10286000FFF7EAFA0B4890F8EC0088B10948D0F875
:10287000F0000A21B0FBF1F201FB12070548D0F885
:10288000F000B0FBF1F83A46414611A0FFF7D4FA48
:1028900000BFCBE6A40000200D0A2573280000002D
:1028A0002563000025730000256C750030582558FD
:1028B000000000002C000000290000003D256C7580
:1028C0003B0D0A003D305825583B0D0A0000000022
:1028D00046756E6374696F6E2052756E2054696D13
:1028E000653A25642E2531646D730D0A00000000E1
:1028F000F0B503461546002000220026002455E0CE
:102900001F782C2F01D104B901221F78292F01D063
:102910001F780FB904B94AE0002E34D11F78302F48
:1029200002DB1F78392F11DD1F78612F02DB1F7842
:10293000662F0BDD1F78412F02DB1F78462F05DD48
:102940001F78582F02D01F78782F0CD102B12EE0BB
:102950001F78612F03DB1F78203F0F7001E01F7885
:102960000F70491C1FE01F78222F04D102B11EE016
:102970000126012417E01F78202F14D01F782C2F58
:1029800011D0FF2613E01F78222F00D1002402B1BE
:102990000DE044B11F785C2F02D15B1C471CF8B2DC
:1029A0001F780F70491C471CF8B25B1CA8E700BFDA
:1029B00000270F702E70F0BD10B504460020107077
:1029C0000BE020780870641C491C1078401C1070C3
:1029D0001078984201DB012010BD2078202802D019
:1029E00020780028EDD10020087000BFF4E7000037
:1029F0002DE9FF4F85B080468946002700200490CE
:102A00000390012002904FF0000B002544461DE08A
:102A10002078202816D005F07F00052812DA0DB99D
:102A200045F0800505F07F00042803D120782A288E
:102A300000D00EE0207805F07F010DF80100681C41
:102A4000C5B202E0852D00D103E0641C2078002887
:102A5000DED100BF8DB1002005F07F010DF801002F
:102A600051A1684600F062FA18B900210898017077
:102A700002E001210898017000254FF0000A444649
:102A800014E0641C0AF1010000F0FF0A20782028FD
:102A900002D020782A2809D1204600F0D7F906462E
:102AA000282E03D02A2E01D0CDF810A02078282877
:102AB00002D020780028E4D14446049810B104984C
:102AC000401C04444FF0000A002654E0207810B95E
:102AD0004FF0010A50E02078282803D116B9781C5D
:102AE000C7B213E02078292808D13EB917B1781E63
:102AF000C7B201E04FF0010A47B93DE02078222833
:102B000004D10EB9012000E00020064647B9207824
:102B100020282FD0207889F8000009F1010929E048
:102B200020782C2804D101200290681CC5B214E042
:102B30002078202811D0207828280ED04DB9BBF15C
:102B4000050F06DA20780DF80B000BF1010000F0FC
:102B5000FF0B0298401CC0B20290012F0AD10298CC
:102B6000022807D10298401CC0B202900398401C72
:102B7000C0B20390641CA9E700BF0398012809D1E3
:102B800000200DF80B0008A1684600F0CFF908B945
:102B900000200390079903980870002089F800002E
:102BA000504609B0BDE8F08F766F69640000000000
:102BB0002DE9F043B5B005460F460024002604E099
:102BC00000213D488155701CC6B20A2EF8DB06E094
:102BD0006D1C287818B9012035B0BDE8F08328783D
:102BE0002828F5D16D1C61E034AA69462846FFF714
:102BF0007FFE064635449DF8D00020B1012827D03D
:102C0000FF284CD149E09DF8000000B333A9684685
:102C100000F027F906460EB10220DDE7204600F05D
:102C20004DF825490A31339A0A50A1F12400008B4E
:102C30000121A140884320491A39088304211E48F4
:102C40000155601CC4B20A2C01DD0320C4E726E054
:102C5000684600F087F9401C00F0FF08204600F0AD
:102C60002DF815490A3100EB01094946684600F084
:102C70006EF911481A38018B0120A040014388B237
:102C80000D491A3908830C4800F80480601CC4B24E
:102C90000A2C01DD03209FE701E002209CE700BF32
:102CA0002878292801D0287800B900E09CE700BFE7
:102CB0003C70002090E70000BE000020024600208B
:102CC000002105E0044B5B5C0344D8B24B1CD9B235
:102CD0009142F7DB70470000BE00002010B50121D3
:102CE0000D48FEF7FBFC012808D10C48D0F8F00095
:102CF0004FF6FF7108440949C1F8F0000648FEF795
:102D0000EAFC0649D1F8F01008440449C1F8F00083
:102D10000846D0F8F00010BD00080040A4000020D4
:102D200010B5044604EBC40000EB04100122C2EB12
:102D3000800081B24FF47A70FEF78EFE01200149C7
:102D4000C87510BDA400002010B50246012000E0A7
:102D500050430B00A1F10104E1B2F9D110BD000014
:102D600010B501210848FEF795FC4FF6FF710648A3
:102D7000FEF715FE00210448FEF713FE002003496C
:102D8000C1F8F00010BD000000080040A4000020C1
:102D900070B51D48008800F40040002833D01A4860
:102DA000057800201949485519488168174888470F
:102DB00004461CB91649C868804721E0134800F052
:102DC000DDF80546012D00D02C46CCB1012C06D0F3
:102DD000022C08D0032C0AD0042C10D10BE00DA03B
:102DE000FFF72AF80BE00EA0FFF726F807E00FA088
:102DF000FFF722F803E010A0FFF71EF800BF00BFA6
:102E000000200149088070BD2800002098010020A2
:102E1000A4000020BAAFCAFDB4EDCEF3210D0A0024
:102E2000B2CECAFDB4EDCEF3210D0A00B2CECAFD7A
:102E3000CCABB6E0210D0A00CEB4D5D2B5BDC6A547
:102E4000C5E4B5C4BAAFCAFD210D0A000146491C4C
:102E500000E0491C0878202801D10029F9D1087820
:102E600070472DE9F04307460E4600254FF00A084B
:102E70003C46002030601FE02078392802DC2078B2
:102E800030280ADA2078462802DC2078412804DA43
:102E90002078582809D1012D07D12078412801DB5D
:102EA0004FF01008681CC5B205E0207800B904E0B6
:102EB0000120BDE8F083641CDEE700BF3C46B8F1AA
:102EC000100F0FD1032D01DA0220F2E7207830280D
:102ED00006D16078582803D1A41CA81EC5B204E00E
:102EE0000320E6E70DB90420E3E71BE00DB1681EFF
:102EF000C5B22078392806DC2078302803DB20781A
:102F0000A0F1300902E02078A0F1370929464046B7
:102F1000FFF71AFF316809FB00103060641C20784D
:102F200000B900E0E2E700BF0020C2E702460AE085
:102F300010780B78984201D001207047107800B9C2
:102F400002E0521C491CF3E700BF0020F5E706E051
:102F500002780A70027802B902E0401C491CF7E7C7
:102F600000BF70470146002005E00A7802B903E07F
:102F7000421CD0B2491CF8E700BF704710B58CB0B6
:102F800004461E230BAA03A92046FFF715FD009057
:102F9000009810B101200CB010BD9DF82C00044425
:102FA00000200B900EE040489DF82C2050F8221095
:102FB00003A8FFF7BBFF00B908E09DF82C00401CF8
:102FC000C0B20B909DF82C000728ECD300BF9DF8F1
:102FD0002C00072863D2DFE800F004053C5E65643E
:102FE000630000BF31A0FEF727FF31A0FEF724FFEA
:102FF0003FA0FEF721FF4EA0FEF71EFF5CA0FEF7EC
:103000001BFF6BA0FEF718FF79A0FEF715FF86A047
:10301000FEF712FF8BA0FEF70FFF90A0FEF70CFF4C
:1030200094A0FEF709FF99A0FEF706FF9EA0FEF709
:1030300003FFA4A0FEF700FFB0A0FEF7FDFEBDA0B9
:10304000FEF7FAFEC8A0FEF7F7FED4A0FEF7F4FEE6
:103050009AE216A0FEF7F0FEE0A0FEF7EDFE0020DB
:103060000B900EE0ED4800689DF82C2000EBC200AC
:103070004168EBA0FEF7E0FE9DF82C00401CC0B2BA
:103080000B90E648007D9DF82C108842EADC07A0F2
:10309000FEF7D2FE78E205A0FEF7CEFEC4E171E2B3
:1030A00045E219E2ECE10000500000200D0A0000AA
:1030B0002D2D2D2D2D2D2D2D2D2D2D2D2D2D2D2D40
:1030C0002D2D2D2D2D2D2D2D55534D415254205646
:1030D000332E312D2D2D2D2D2D2D2D2D2D2D2D2D15
:1030E0002D2D2D2D2D2D2D2D2D2D2D200D0A0000BA
:1030F0002020202055534D415254CAC7D3C9414CBA
:1031000049454E54454BBFAAB7A2B5C4D2BBB8F689
:10311000C1E9C7C9B5C4B4AEBFDAB5F7CAD4BBA557
:10312000BDBBD7E9BCFE2CCDA8B9FD200D0A00001F
:10313000CBFC2CC4E3BFC9D2D4CDA8B9FDB4AEBF7B
:10314000DAD6FACAD6B5F7D3C3B3CCD0F2C0EFC340
:10315000E6B5C4C8CEBACEBAAFCAFD2CB2A2D6B4B8
:10316000D0D02ED2F2B4CB2CC4E3BFC90D0A0000DC
:10317000D2D4CBE6D2E2B8FCB8C4BAAFCAFDB5C46B
:10318000CAE4C8EBB2CECAFD28D6A7B3D6CAFDD7CB
:10319000D62831302F3136BDF8D6C629A1A2D7D6D0
:1031A000B7FBB4AEA1A2BAAFCAFDC8EB0D0A0000CE
:1031B000BFDAB5D8D6B7B5C8D7F7CEAAB2CECAFD52
:1031C000292CB5A5B8F6BAAFCAFDD7EEB6E0D6A79A
:1031D000B3D63130B8F6CAE4C8EBB2CECAFD2CB2D1
:1031E000A2D6A7B3D6BAAFCAFDB7B5200D0A000064
:1031F000BBD8D6B5CFD4CABE2ED0C2D4F6B2CECAB2
:10320000FDCFD4CABEBDF8D6C6C9E8D6C3B9A6C4D8
:10321000DC2CD0C2D4F6BDF8D6C6D7AABBBBB9A6A3
:10322000C4DC2E0D0A000000BCBCCAF5D6A7B3D67C
:103230003A7777772E6F70656E6564762E636F6D63
:103240000D0A000055534D415254D3D037B8F6CF34
:10325000B5CDB3C3FCC1EE3A0D0A00003F3A2020C1
:1032600020202020BBF1C8A1B0EFD6FAD0C5CFA254
:103270000D0A000068656C703A202020BBF1C8A1DF
:10328000B0EFD6FAD0C5CFA20D0A00006C697374F6
:103290003A202020BFC9D3C3B5C4BAAFCAFDC1D03C
:1032A000B1ED0D0A0A00000069643A2020202020B8
:1032B000BFC9D3C3BAAFCAFDB5C44944C1D0B1ED8B
:1032C0000D0A0A006865783A20202020B2CECAFD97
:1032D0003136BDF8D6C6CFD4CABE2CBAF3B8FABFC1
:1032E000D5B8F12BCAFDD7D6BCB4D6B4D0D0BDF872
:1032F000D6C6D7AABBBB0D0A0A0000006465633AB4
:1033000020202020B2CECAFD3130BDF8D6C6CFD4A1
:10331000CABE2CBAF3B8FABFD5B8F12BCAFDD7D6BE
:10332000BCB4D6B4D0D0BDF8D6C6D7AABBBB0D0AA4
:103330000A00000072756E74696D653A312CBFAA7F
:10334000C6F4BAAFCAFDD4CBD0D0BCC6CAB13B30EC
:103350002CB9D8B1D5BAAFCAFDD4CBD0D0BCC6CA6F
:10336000B13B0D0A0A000000C7EBB0B4D5D5B3CC11
:10337000D0F2B1E0D0B4B8F1CABDCAE4C8EBBAAF7C
:10338000CAFDC3FBBCB0B2CECAFDB2A2D2D4BBD878
:10339000B3B5BCFCBDE1CAF82E0D0A002D2D2D2DB4
:1033A0002D2D2D2D2D2D2D2D2D2D2D2D2D2D2D2D4D
:1033B0002D2D2D2D2D2D414C49454E54454B2D2D58
:1033C0002D2D2D2D2D2D2D2D2D2D2D2D2D2D2D2D2D
:1033D0002D2D2D2D2D2D2D200D0A00002D2D2D2DC7
:1033E0002D2D2D2D2D2D2D2D2D2D2D2D2D2D2D2D0D
:1033F0002D2D2D2D2DBAAFCAFDC7E5B5A52D2D2D2F
:103400002D2D2D2D2D2D2D2D2D2D2D2D2D2D2D2DEC
:103410002D2D2D2D2D2D2D2D200D0A00A400002049
:1034200025730D0A0000000059A0FEF705FD0020DD
:103430000B901AE0664909689DF82C2001EBC20147
:1034400001AB02AA486803A9FFF7D2FA60480068F6
:103450009DF82C1050F8312003A95EA0FEF7ECFC7B
:103460009DF82C00401CC0B20B905948007D9DF87F
:103470002C108842DEDCAFF2CC30FEF7DDFC83E0BE
:10348000AFF2D830FEF7D8FC0BAA03A92046FFF70D
:103490002FFA9DF82C00C8B9694603A8FFF7E1FC94
:1034A0000B909DF82C0020B94FA00099FEF7C4FCAA
:1034B0000EE09DF82C00042801D002206BE54DA001
:1034C000FEF7BAFC01204249C87501E0022062E51E
:1034D00047A0FEF7B1FC57E045A0FEF7ADFC0BAAF4
:1034E00003A92046FFF704FA9DF82C00C8B96946E5
:1034F00003A8FFF7B6FC0B909DF82C0020B942A062
:103500000099FEF799FC0EE09DF82C00042801D0EC
:10351000022040E53FA0FEF78FFC00202C49C87533
:1035200001E0022037E532A0FEF786FC2CE030A057
:10353000FEF782FC0BAA03A92046FFF7D9F99DF8F4
:103540002C00C8B9694603A8FFF78BFC0B909DF8C7
:103550002C0078B91E49009881F8EC00084690F8D4
:10356000EC0018B130A0FEF767FC07E035A0FEF7CD
:1035700063FC03E002200EE502200CE51CA0FEF730
:103580005BFC01E0012006E500BF002003E5000030
:103590002D2D2D2D2D2D2D2D2D2D2D2D2D2D2D2D5B
:1035A0002D2D2D2D2D2D2D2D2DBAAFCAFD204944A9
:1035B000202D2D2D2D2D2D2D2D2D2D2D2D2D2D2D48
:1035C0002D2D2D2D2D2D2D2D2D2D2D2D200D0A00A8
:1035D000A400002025732069642069733A0D0A3025
:1035E00058253038580D0A004845583A3058255863
:1035F0000D0A00003136BDF8D6C6B2CECAFDCFD412
:10360000CABE210D0A0000004445433A256C750DE1
:103610000A0000003130BDF8D6C6B2CECAFDCFD404
:10362000CABE210D0A00000052756E2054696D65F6
:103630002043616C63756C6174696F6E204F4E0D31
:103640000A00000052756E2054696D652043616C5C
:1036500063756C6174696F6E204F46460D0A0000F9
:10366000016070473A0C40D01214328017161804CB
:1036700019021A7A03050C003E0070BA71357211F6
:103680007300A20211817A207B1C7C287D3C7E5530
:103690007F68807681808288838F849685A386AFB9
:1036A00087C488D789E813E0000010000D004200AD
:1036B0001428A505AB072475256326A59F78A06867
:1036C000A6DFA7DFA8F0A990AA9413E50E610F4327
:1036D0001E05210222012300330B371D3871392AC0
:1036E0003C6869556B0A741192009300B104B3826F
:1036F000431444F0454546614751487964046520C8
:103700006605940495086C0A6D556E116F9F6A40AA
:103710000140024013E715004F80508051005222B3
:10372000535E5480550A564F589E41083F05750513
:1037300076C14C0F770A3DC24B01C9604138341144
:103740003B02A4899D4C9E3F78047901C8F0790F13
:10375000C8007910C87E790AC880790BC801790C35
:10376000C80F790DC8207909C8807902C8C07903CB
:10377000C8407905C830792609023B4211806B1A8E
:103780002A002B00920093003B0A121670BA713582
:1037900040908C003A0467C068801E3717161804E2
:1037A00019021A7B328003061500B0843A044010D7
:1037B000121432801716180419021A7B03060C0023
:1037C00015083E00703A713572117300A202118122
:1037D0007A207B1C7C287D3C7E557F6880768180AA
:1037E0008288838F849685A386AF87C488D789E82B
:1037F00013E0000010000D001428A505AB07247588
:10380000256326A59F78A068A103A6DFA7DFA8F0FF
:10381000A990AA9413E50E610F4B16021E272102F0
:1038200022912907330B350B371D3871392A3C7823
:103830004D404E2069006B4074198D4F8E008F00F3
:1038400090009100920096009A80B084B10CB20E64
:10385000B382B80A431444F0453446584728483ADE
:1038600059885A885B445C675D495E0E6404652034
:103870006605940495086C0A6D554F805080510080
:103880005222535E548009036E116F9F55005640BB
:1038900057406A400140024013E71500589E410816
:1038A0003F00750576E14C0077013DC24B09C960C8
:1038B000413834113B02A489960097309820993002
:1038C0009A849B299C039D4C9E3F78047901C8F003
:1038D000790FC8007910C87E790AC880790BC801B1
:1038E000790CC80F790DC8207909C8807902C8C041
:1038F0007903C8407905C830792600003F000000F0
:10390000646563006964000072756E74696D6500BA
:1039100068656C70000000006C6973740000000042
:1039200068657800766F6964204C45445F53455460
:10393000287538206D6F646529000000766F696412
:103940002077726974655F61646472287533322010
:10395000616464722C7533322076616C290000003A
:10396000766F6964204F56373637305F4857287571
:103970003136206873746172742C75313620767319
:10398000746172742C753136206873746F702C7585
:103990003136207673746F70290000007533322041
:1039A000726561645F61646472287533322061649A
:1039B00064722900766F69642064656C61795F6D5B
:1039C0007328753136206E6D73290000766F696437
:1039D0002064656C61795F757328753332206E756C
:1039E000732900007538204F565F5772697465520D
:1039F00065672875382072656749442C2075382022
:103A00007265674461742900283A000800000020AC
:103A10009801000084020008A43A000898010020E0
:103A2000C89C0000681E0008A100091EDC05DC051A
:103A3000E803DC052D01020304041506070809ACA0
:103A40007A030A18291413FC38140810391B0818B3
:103A5000041A04041A20041119041A080413B924BE
:103A60001B089C081361361B083C081355231B08D0
:103A7000B4081A69081ACC0813810A1B0824081311
:103A8000630D1B08E40813390B1B086008226C1433
:103A900020212D14086D2514081D261B08910C1AD1
:043AA000077301DCCB
:040000050800018965
:00000001FF
