:020000040800F2
:10000000E0E800209D010008FD0B0008910B0008AE
:10001000F90B00084D0300086319000800000000F8
:1000200000000000000000000000000001120008B5
:10003000B10A000800000000750E0008E91300086E
:10004000B7010008B7010008B7010008B7010008B0
:10005000B7010008B7010008B7010008B7010008A0
:10006000B7010008B7010008B7010008B701000890
:10007000B7010008B7010008B7010008B701000880
:10008000B7010008B7010008B7010008B701000870
:10009000B7010008B7010008B7010008B701000860
:1000A000B7010008B7010008B7010008B701000850
:1000B000B7010008C514000859150008B701000869
:1000C000B7010008B7010008B7010008B701000830
:1000D000B70100080117000889170008B7010008D8
:1000E000B7010008B7010008B7010008B701000810
:1000F000B7010008B7010008B7010008B701000800
:10010000B7010008B7010008B7010008B7010008EF
:10011000B7010008B7010008B7010008B7010008DF
:10012000B7010008B7010008B7010008B7010008CF
:10013000B7010008B7010008B7010008B7010008BF
:10014000B7010008B7010008B7010008B7010008AF
:10015000B7010008B7010008B7010008B70100089F
:10016000B7010008B7010008B7010008B70100088F
:10017000B7010008B7010008A1060008B701000890
:10018000B7010008B7010008DFF80CD000F058F8FC
:100190000048004765210008E0E800200648804745
:1001A00006480047FEE7FEE7FEE7FEE7FEE7FEE75C
:1001B000FEE7FEE7FEE7FEE75D14000889010008A0
:1001C0002DE9F05F0546002092469B46884606468C
:1001D000814640241BE0284641464746224600F01F
:1001E00041F853465A46C01A914110D31146184659
:1001F000224600F016F82D1A67EB01084F462246FA
:100200000120002100F00DF817EB00094E41201EDF
:10021000A4F10104DFDC484631462A464346BDE8E6
:10022000F09F202A04DB203A00FA02F100207047F8
:100230009140C2F1200320FA03F319439040704724
:10024000064C074D06E0E06840F0010394E8070023
:1002500098471034AC42F6D3FFF79AFF04360008F3
:1002600024360008202A04DB203A21FA02F000217B
:10027000704721FA02F3D040C2F1200291400843B6
:100280001946704770B58C1810F8015B15F007031C
:1002900001D110F8013B2A1106D110F8012B03E01F
:1002A00010F8016B01F8016B5B1EF9D12B0705D427
:1002B0000023521E0DD401F8013BFAE710F8013B70
:1002C000CB1A921C03E013F8015B01F8015B521E8C
:1002D000F9D5A142D8D3002070BD000010B54FF46D
:1002E000806000F0C9FC01F0B9F800F053FC01F0A7
:1002F0007FF84FF4E13001F07BFB4FF4E13001F087
:1003000095FF42F2CF0142F20F7001F0F7F80D486D
:1003100041685420884700F0B9FC50B108E04FF420
:100320000071094800F032FC4FF4967001F05CFE59
:10033000F5E74FF47A7001F057FE00F0F7F901206D
:1003400010BD0000A80000200004024000BFFEE72E
:1003500000B589B00121084600F09EFD0121880505
:1003600000F08AFD0121172000F086FD0121082000
:1003700000F082FD002208217A4800F0E2FB4FF4F1
:100380008070079002208DF821008DF82000002059
:100390008DF8220001208DF8230007A9714800F094
:1003A00088FB00214FF4800000F01AFE80200790A7
:1003B00001208DF8200002208DF8210000208DF80A
:1003C000220001208DF8230007A9664800F071FB88
:1003D0008021644800F0D8FB8020079000208DF831
:1003E000200003208DF8210000208DF8220001203C
:1003F0008DF8230007A95C4800F05BFB80215A4878
:1004000000F0C4FB0A2001F0EFFD8021564800F007
:10041000BBFB0A2001F0E8FD8021534800F0B6FB49
:100420000D2204214F4800F08CFB0D2206214D487F
:1004300000F087FB0D2206214C4800F082FB0D22C4
:1004400007214A4800F07DFB0D220521484800F0B5
:1004500078FB0D220621464800F073FB0D22062191
:10046000444800F06EFB0D220721424800F069FB72
:100470000D2200213E4800F064FB0D2201213C4882
:1004800000F05FFB0D220421394800F05AFBC02028
:10049000079002208DF8200003208DF82100002015
:1004A0008DF8220001208DF8230007A9314800F0C3
:1004B00000FB7320079007A92D4800F0FAFAC0202E
:1004C000079007A9294800F0F4FA5020079007A9DF
:1004D000244800F0EEFA40F23F10ADF80A00012087
:1004E000ADF806007720ADF808000120ADF8040053
:1004F00001A800F055F8012000F040F80020ADF808
:100500000C00ADF80E00ADF810008020ADF8120020
:100510000020ADF81400ADF81600ADF8180003A8DF
:1005200000F0E4F80121084600F0CEF8012000F0C8
:100530005FF84FF480631A014FF416510E4800F033
:1005400069F84E208DF8000002208DF8010000208F
:100550008DF8020001208DF80300684600F050FB82
:1005600009B000BD00000240000C0240000402403F
:1005700000100240000802401402002030B1074978
:10058000096841F00401054A116005E00349096862
:1005900021F00401014A116070470000000005507D
:1005A0004188028841EA0241044A1162C188828876
:1005B00041EA0241014A51627047000000000550C3
:1005C00030B10749096841F00101054A116005E0B1
:1005D0000349096821F00101014A116070470000D8
:1005E00000000550014948617047000000000550B7
:1005F00030B10749096841F48041054A116005E0BE
:100600000349096821F48041014A116070470000E4
:1006100000000550F0B58FB004460D4616461F4643
:100620000121880500F028FC144800F099F800BF6B
:10063000124800F041F90028FAD14FF00070009004
:100640000F480190029400200390049505900697AE
:100650004FF48050079008960011099040020A90CC
:1006600004200B9003200C9000200D900E90694602
:10067000024800F02FF90FB0F0BD000028640240DE
:1006800028000550014600200022044B1B6903EAA4
:1006900001020AB1012000E000207047000005506F
:1006A00010B50120FFF7EEFF012809D101F026FD6A
:1006B0000120FFF797FF03480078401C01490870AC
:1006C00010BD00001000002029B1074AD268024383
:1006D000054BDA6006E0044AD268C3439BB21A4075
:1006E000014BDA60704700000000055000210E4AFF
:1006F000126844F201039A430B4B1A601A461168C0
:1007000040F6F2729143028843881A4383881A4361
:10071000C3881A4303891A4343891A4383891A43B6
:100720001143014A116070470000055010B50121C6
:10073000044800F009F8642001F056FC0120FFF79E
:100740003FFF10BD2864024021B1026842F001025F
:10075000026003E0026822F00102026070470000BC
:10076000016821F0010101600021016041608160A8
:10077000C1600161212141614A49884204D13D2182
:10078000484A103A91608CE046491831884205D1B8
:100790004FF47461434A103A916082E0414930312C
:1007A000884205D14FF474113E4A103A916078E0C6
:1007B0003C494831884205D14FF07461394A103ABA
:1007C00091606EE037496031884204D13649354A3C
:1007D000103AD16065E033497831884204D1334919
:1007E000304A103AD1605CE02E499031884204D101
:1007F0002F492C4A103AD16053E02A49A831884247
:1008000005D14FF03D51274A103AD16049E02949BE
:10081000884204D13D21274A083A116041E0254928
:100820001831884205D14FF47461224A083A1160A8
:1008300037E020493031884205D14FF474111D4A08
:10084000083A11602DE01B494831884205D14FF02C
:100850007461184A083A116023E0164960318842F1
:1008600004D11149134A121F11601AE0114978315D
:10087000884204D10D490F4A121F116011E00D4941
:100880009031884204D10A490A4A121F116008E0D7
:100890000849A831884204D14FF03D51054A121F42
:1008A00011607047106002403D000020400F0020A2
:1008B00000003D2010640240014600200A6802F05A
:1008C00001020AB1012000E000207047014648689B
:1008D00080B2704710B500220268134B1A40CC68F2
:1008E0000B6823434C6923438C692343CC6923431E
:1008F0000C6A23434C6A23438C6A23434C6B234387
:100900008C6B23431A430260426922F00702D1E94B
:100910000B3423431A4342610B6943604B68836085
:100920008B68C36010BD00003F801CF041607047C1
:1009300010B504463448007838B9AA2C05D10120F6
:1009400031490870314804705DE02F480078012873
:1009500007D1AF2C05D102202B4908702B484470D9
:1009600051E029480078022807D1F12C05DA03204C
:10097000254908702548847045E0234800780328FD
:100980000CD1322C0ADA04201F4908701F48C470A9
:100990001F48047000201F49087034E01A4800788E
:1009A000042819D11A480078002815DD1848007865
:1009B000401E174908701748007816490978491CE5
:1009C000144A1170001D11490C5411480078D0B917
:1009D00005200D49087016E00B48007805280FD156
:1009E0000020094908700B480078001D07490C5485
:1009F00008480078401DC1B2044800F00DF802E03C
:100A000000200149087010BD0E000020E201002006
:100A10000C0000200D00002030B50023002204E06F
:100A2000845C1C44E3B2541CE2B24C1E9442F7DCDA
:100A3000441814F8014C9C4200D030BD0478AA2C14
:100A400002D14478AF2C00D0F7E78478012C04D190
:100A50000479144D2C7044796C708478022C04D184
:100A60000479114D2C7044796C708478032C17D163
:100A70004479057944EA05240C4D2C80C4798579A4
:100A800044EA0524094D6C80447A057A44EA052439
:100A9000064DAC80C47A857A44EA0524034DEC8087
:100AA00000BFCAE71C000020240000200000002036
:100AB0007047F0B50A4600210023002400BF3DE046
:100AC000012505FA01F3156805EA03049C4234D1B7
:100AD00005684F000326BE40B543056015794E00FA
:100AE000B5400668354305601579012D02D01579AA
:100AF000022D16D185684F000326BE40B5438560A0
:100B000055794E00B54086683543856045680126B5
:100B10008E40B5434560456896798E40B6B2354300
:100B20004560C5684F000326BE40B543C560D57912
:100B30004E00B540C6683543C560491C1029BFD377
:100B4000F0BDF0B5002300244D07ED0E02FA05F3C9
:100B5000CE1000F1200555F826504E07F70E0F264F
:100B6000BE40B543CF1000F1200646F82750CE1006
:100B700000F1200555F8265045EA0304CE1000F197
:100B8000200545F82640F0BD41837047018370473A
:100B900000BFFEE71CB50121022000F06DF9012025
:100BA0008DF8040000208DF8060003208DF8050064
:100BB00000208DF807004FF400700090694604484B
:100BC000FFF777FF4FF400710148FFF7DFFF1CBD0F
:100BD0000004024010B504462CB14FF400710548E2
:100BE000FFF7D2FF04E04FF400710248FFF7CEFF99
:100BF00010BD00000004024000BFFEE77047000087
:100C000070B5002100230F22C4781CB3174C246850
:100C100004F4E064C4F5E064C4F30721C1F1040402
:100C2000E3B20A4144789C40E1B284781440214305
:100C30000C07210E0E4C05786155047804F01F0551
:100C40000124AC4005786D11AD0005F1E025C5F833
:100C5000004109E0047804F01F050124AC40054D73
:100C60000678761145F8264070BD00000CED00E0D6
:100C700000E400E080E100E002490143024A116023
:100C8000704700000000FA050CED00E070B5FFF7BA
:100C90005FFB00F0B3F900F0C0F8052001F0A4F903
:100CA00000F080F8054600240AE00B4A02EB4402FB
:100CB0005178094A12F8140000F0B5F8601CC4B26B
:100CC000B12CF2D37923A12282214FF4AC7000F031
:100CD00005F8002070BD0000D03300082DE9FC5F4E
:100CE00004460D4616461F4604EB46004FF4447179
:100CF00090FBF1F201FB12001FFA80F805EB4700B0
:100D00001FFA80F901A9322000F054F883469DF8BB
:100D1000040000F0C00001906946032000F04AF88A
:100D200083469DF8000000F0F000009008F00700F6
:100D30009DF8041041EAC00004F0070140EA010AEE
:100D40005146322000F06FF88346C4F3C70A51467B
:100D5000172000F068F88346C8F3C70A51461820E8
:100D600000F061F8834609F003009DF8001041EAA5
:100D7000800005F0030140EA010A5146032000F01B
:100D800052F88346C5F3870A5146192000F04BF804
:100D90008346C9F3870A51461A2000F044F8834677
:100DA000BDE8FC9F08B569460B2000F003F89DF8EC
:100DB000000008BD70B505460C4600F093F94220CE
:100DC00000F0CEF918B100F0AFF9012070BD0A2093
:100DD00001F014F9284600F0C3F918B100F0A4F9A5
:100DE0000220F3E700F0A0F90A2001F007F900F073
:100DF00079F9432000F0B4F918B100F095F9032017
:100E0000E4E70A2001F0FAF800F014F9207001F08C
:100E1000E7F900F089F90020D8E710B58021122009
:100E200000F001F810BD70B505460C4600F05AF907
:100E3000422000F095F918B100F076F9012070BD5C
:100E40000A2001F0DBF8284600F08AF918B100F01A
:100E50006BF90220F3E70A2001F0D0F8204600F0F9
:100E60007FF918B100F060F90320E8E700F05CF9C1
:100E70000020E4E77047000029B1064A12680243E7
:100E8000044B1A6004E0034A12688243014B1A6063
:100E9000704700003038024029B1064A1268024308
:100EA000044B1A6004E0034A12688243014B1A6043
:100EB000704700003438024029B1064A12680243E4
:100EC000044B1A6004E0034A12688243014B1A6023
:100ED000704700004038024029B1064A12680243B8
:100EE000044B1A6004E0034A12688243014B1A6003
:100EF0007047000044380240F0B500210022002471
:100F0000022500260223324F3F6807F00C0121B171
:100F1000042905D0082937D105E02E4F076036E0B7
:100F20002D4F076033E02A4F3F1F3F68C7F38056BD
:100F3000274F3F1F3F6807F03F036EB1264FB7FBB7
:100F4000F3F7DFF88CC0ACF1040CDCF800C0CCF394
:100F5000881C07FB0CF40CE01E4FB7FBF3F7DFF81F
:100F600070C0ACF1040CDCF800C0CCF3881C07FBAB
:100F70000CF4174F3F1F3F68C7F301477F1C7D00EC
:100F8000B4FBF5F7076002E0124F076000BF00BF37
:100F90000F4F3F6807F0F0010909104F7A5C0768AE
:100FA000D74047600A4F3F6807F4E051890A0B4F6A
:100FB0007A5C4768D7408760054F3F6807F4604117
:100FC000490B064F7A5C4768D740C760F0BD000008
:100FD000083802400024F40040787D0138000020E9
:100FE00002460020044B186820F0EC6042EA01033E
:100FF0001843014B18607047083802401CB50121A6
:101000000220FFF739FF4FF44060009001208DF877
:10101000040000208DF8060001208DF80700022052
:101020008DF8050069460248FFF743FD1CBD00002E
:101030000004024070B5002400F028F8322000F0CF
:10104000DDFF08251AE0322000F0D8FF4FF4806061
:101050000D4908806006040E0B480838006800F44B
:10106000006008B1601CC4B2322000F0C7FF4FF42A
:1010700080600549891C0880681EC5B2002DE2DC2D
:1010800000F018F8204670BD180402401CB54FF45B
:101090000060009000208DF8040001208DF807000A
:1010A00002208DF8050069460148FFF702FD1CBDCE
:1010B000000402401CB54FF40060009001208DF840
:1010C000040000208DF8060001208DF807000220A2
:1010D0008DF8050069460248FFF7EBFC1CBD0000D7
:1010E0000004024010B54FF400600E490880322021
:1010F00000F084FF4FF480600A490880322000F03D
:101100007DFF4FF400600749891C0880322000F001
:1011100075FF4FF480600349891C0880322000F07D
:101120006DFF10BD1804024010B54FF400600B496C
:101130000880322000F062FF4FF480600749891E6A
:101140000880322000F05AFF4FF400600349891EE6
:101150000880322000F052FF10BD00001A04024047
:1011600070B50446002622E004F0800020B14FF460
:1011700000602249088004E04FF400601F49891C88
:1011800008806006040E322000F038FF4FF48060C3
:101190001A490880322000F031FF4FF4806017496F
:1011A000891C0880322000F029FF701CC6B2082E6E
:1011B000DADB0A2000F022FFFFF768FF322000F0A0
:1011C0001DFF4FF480600D4908800A2000F016FFD3
:1011D0000A480838006800F4006008B1012500E002
:1011E00000254FF480600549891C0880322000F0FA
:1011F00005FFFFF75FFF284670BD0000180402409E
:101200007047000070B505460C462146014800F0C5
:1012100067FC70BD9C01002073B5002400260025EA
:10122000AA222146641C17484254AF222146641C5E
:10123000425401222146641C425400222146641C6F
:1012400042549DF800202146641C42549DF8012020
:101250002146641C4254201F0A49C87000BF05E0A3
:101260000848405D3044C6B2681CC5B2A542F7DBF1
:101270002046611CCCB203490E5421460148FFF7B9
:10128000C1FF7CBD9C0100202DE9F04106460F46C0
:101290000024A0460025AA222146641C1648425478
:1012A000AF222146641C425404222146641C42544D
:1012B00000222146641C42542146641C46542146A7
:1012C000641C4754201F0C49C87000BF06E00A4840
:1012D000405D404400F0FF08681CC5B2A542F6DB43
:1012E0002046611CCCB2044901F800802146024826
:1012F000FFF788FFBDE8F0819C0100200CB50020BD
:10130000019000903448006840F480303249086011
:1013100000BF3148006800F4003000900198401C84
:101320000190009818B90198B0F5A06FF1D12A4842
:10133000006800F4003010B10120009001E00020AE
:1013400000900098012846D123484030006840F0C2
:1013500080502149403108602048006840F48040B6
:101360001E4908601C48083000681B4908310860A5
:101370000846006840F4004008600846006840F4F1
:10138000A05008601648091F0860081F006840F058
:101390008070091F086000BF0F48006800F00070EF
:1013A0000028F9D040F205600E4908600A4808306C
:1013B000006820F00300084908310860084600680A
:1013C00040F00200086000BF03480830006800F0E9
:1013D0000C000828F8D10CBD003802400070004015
:1013E00019544007003C024010B500F04FF910BD01
:1013F00030B500BF15480068154AB0FBF2F1B1F1F5
:10140000807F01D301201DE021F07F40401E4FF07E
:10141000E022506150170F22002807DA13071D0E33
:101420000C4B00F00F04241F1D5503E013071C0E86
:10143000094B1C5400BF00204FF0E02290610720B0
:10144000106100200028D5D130BD000048000020E8
:1014500040420F0018ED00E000E400E010B5154830
:10146000006840F47000134908601348006840F0B9
:1014700001001149086000200F49083108600E483A
:1014800000680E4908400C4908600D48091D0860B5
:10149000081F006820F48020091F0860002006490A
:1014A0000C310860FFF72AFF4FF0006001498039D6
:1014B000086010BD88ED00E000380240FFFFF6FE36
:1014C0001030002410B50121094800F07FF80128F0
:1014D00009D1084801780120FFF7D6FE0020054910
:1014E0000870054908700121014800F054F810BD4A
:1014F000000400400F000020100000207FB50446CB
:101500000D4601210220FFF7D7FCADF80450002062
:10151000ADF806000294ADF80C0001A90D4800F0EA
:1015200073F8012211460B4800F061F801210948C7
:1015300000F034F81D208DF8000003208DF8010024
:1015400000208DF8020001208DF803006846FFF7A7
:1015500057FB7FBD0004004010B501210A4800F090
:1015600035F801280AD10949086980470021064851
:1015700000F048F86421044800F042F801210248D4
:1015800000F009F810BD000000080040A80000208D
:10159000CA4302827047CA430282704721B102885F
:1015A00042F00102028004E002884FF6FE731A4006
:1015B000028070470146486A704702460020138A3D
:1015C0000B400BB1012000E00020704730B502460F
:1015D000002000230024158A05EA0103958905EA05
:1015E000010413B10CB1012000E0002030BD1AB19C
:1015F00083890B43838102E083898B438381704716
:10160000C16270474162704700220288184B9842BD
:101610000ED0184B98420BD0B0F1804F08D0164B2B
:10162000984205D0154B984202D0154B984204D1F0
:101630004FF68F731A404B881A43124B984207D0CB
:10164000114B984204D04FF6FF431A400B891A43BE
:1016500002804B68C3620B880385054B984202D019
:10166000044B984201D18B7A038601238382704711
:101670000000014000040140000400400008004058
:10168000000C0040001000400014004004480068B6
:1016900020B103480068401E0149086070470000FF
:1016A000340000207FB504460D4601210420FFF7D9
:1016B00003FCADF800500020ADF802000194ADF835
:1016C000080069460D48FFF79FFF012211460B48AD
:1016D000FFF78DFF01210948FFF760FF1E208DF8FD
:1016E0000C0003208DF80D008DF80E0001208DF800
:1016F0000F0003A8FFF784FA7FBD00000008004038
:1017000010B540F225511D4800F06DF810B31B488C
:1017100000F022F9C4B21A48008800F40040C8B9A9
:101720001748008800F4804060B10A2C03D00020E4
:101730001349088020E01248008840F40040104916
:10174000088019E00D2C06D10D48008840F4804037
:101750000B49088010E00A480088C0F30D000949D1
:101760000C5407480088401C05490880084600883A
:10177000C72801DD0020088010BD000000100140D6
:101780003000002014E3002010B500F0EDF810BD8B
:1017900010B50022002340F66A14A14200D100BF18
:1017A0000A1201249440A3B2DC43048010BD10B59A
:1017B00002460020108A20F470600B884C88234376
:1017C0008C882343CC8823431843108210BD21B159
:1017D000828942F40052828104E082894DF6FF73CF
:1017E0001A408281704770B502460024002300250C
:1017F000002040F66A16B14200D100BFC1F3421585
:1018000001F01F03012606FA03F3012D02D1968988
:10181000334006E0022D02D1168A334001E0968A59
:1018200033400C12012606FA04F41688344013B132
:101830000CB1012000E0002070BDF0B5034600248B
:1018400000260025002040F66A17B94200D100BFEB
:101850001846C1F3421401F01F06012707FA06F5E6
:10186000012C01D10C3004E0022C01D1103000E039
:1018700014301AB107682F43076002E00768AF43CE
:101880000760F0BD2DE9FF4705460E460024A1463E
:1018900000BFA046B08900B100BF2C8A24F4405498
:1018A000F08804432C82AC8941F20C608443B088F8
:1018B00031890843718908430443AC81AC8A24F41C
:1018C0004074B0890443AC826846FFF715FB20489A
:1018D000854202D01F48854202D1DDF80C9001E01C
:1018E000DDF80890A88900F4004040B109EBC90078
:1018F00000EB091031684900B0FBF1F707E009EB94
:10190000C90000EB091031688900B0FBF1F76420D1
:10191000B7FBF0F004012009642101FB1078A889CD
:1019200000F4004040B1322000EBC800B0FBF1F001
:1019300000F00700044308E0322000EB08106421A7
:10194000B0FBF1F000F00F0004432C81BDE8FF87ED
:10195000001001400014014001468888C0F30800CF
:10196000704700BFFEE7000010B51D48008800F07A
:10197000080018B11A48001D0088C4B240F2255171
:101980001748FFF730FF58B140F225511448FFF7D0
:10199000FFFE1348001D0088C4B22046FEF7C8FFB2
:1019A00040F227710E48FFF71EFFC0B10D480178C5
:1019B0000078401C0B4A10700B48405C0849091D18
:1019C00008801046007809490978884207D1044800
:1019D0000C30008820F0800001490C31088010BDD7
:1019E0000044004032000020DCE3002033000020EF
:1019F00010B58AB0044601214804FFF75DFA0121C1
:101A00000820FFF739FA26208DF80C0001208DF808
:101A10000D0000208DF80E0001208DF80F0003A8A6
:101A2000FFF7EEF8072205212B48FFF78AF8072277
:101A300006212948FFF785F82020019002208DF823
:101A400008008DF8090000208DF80A0001208DF8AB
:101A50000B0001A92048FFF72CF84020019002203C
:101A60008DF808008DF8090001208DF80A0000208B
:101A70008DF80B0001A91848FFF71BF80694002009
:101A8000ADF81C00ADF81E00ADF82000ADF8240044
:101A90000C20ADF822000020ADF81000ADF81200C7
:101AA0004FF40070ADF814000020ADF8160006A940
:101AB0000A48FFF7E7FE04A90848FFF778FE01226D
:101AC00040F225510548FFF7B8FE01210348FFF712
:101AD0007EFE0AB010BD0000000C02400044004031
:101AE00070B505460E4600240AE0295D0C480278D0
:101AF0000078401C0A4B18700A488154601CC4B21C
:101B0000B442F2DB0848008800F0800030B90122BE
:101B100040F2277104480C38FFF78FFE70BD0000BB
:101B200033000020DCE300200C4400400FB4054BE0
:101B300010B503A9044A029800F018F810BC5DF82B
:101B400014FB0000112000082C00002002E008C84F
:101B5000121F08C1002AFAD170477047002001E027
:101B600001C1121F002AFBD1704700002DE9FF4F71
:101B70008DB00F460546002606E025280BD0DDE98E
:101B80000F1290476D1C761C28780028F5D111B0F3
:101B90003046BDE8F08F0024A246A1460122EC4960
:101BA00000E0044315F8013F203B02FA03F008422D
:101BB000F7D128782A2810D06FF02F022878A0F1CA
:101BC0003001092914D80AEB8A0102EB410144F0E3
:101BD000020400EB010A6D1CF0E701CF5FEA000A86
:101BE00003D544F40054CAF1000A44F002046D1C09
:101BF00028782E2817D115F8010F44F004042A285C
:101C00000ED06FF02F022878A0F1300109290AD8F0
:101C100009EB890102EB410100EB01096D1CF2E7C0
:101C200057F8049B6D1C28786C280FD006DC4C28D4
:101C300017D068280DD06A2814D104E0742810D079
:101C40007A280FD10DE044F400140AE044F4801423
:101C500001E044F440146978814202D104F5801413
:101C60006D1C6D1C2A786E2A1FD00CDC632A31D0C3
:101C700004DC002A8BD0582A11D1A3E0642A68D052
:101C8000692A0CD165E0732A2ED004DC6F2A73D048
:101C9000702A04D19BE0752A6FD0782A6ED0104646
:101CA000DDE90F129047761C50E1C4F30250022880
:101CB00006D0032809D0042801CF09D0066045E1E9
:101CC00001CFF117C0E9006140E101CF06803DE19D
:101CD00006703BE117F8040B8DF8000000208DF82A
:101CE0000100EB46012003E057F804BB4FF0FF3042
:101CF00061074FF0000102D40DE008F101018846B0
:101D000049450FDA8045F8DB1BF808100029F4D1AB
:101D100008E008F1010188468142FADB1BF808104F
:101D20000029F6D1DDE90F23AAEB08008146214600
:101D300000F036F9304400EB080604E0DDE90F124C
:101D40001BF8010B9047B8F10108F7D2214648462D
:101D5000F7E00A21C4F302534FF0000B0891022B65
:101D600004D001CFC117032B09D00AE0FF1D27F0D3
:101D70000707F7E8020108E032E01FE020E000B2C8
:101D8000C117042B01D140B2C117031E71F100032A
:101D900007DA4FF0000CD0EB0C006CEB01012D23A7
:101DA00002E0230504D52B238DF82430012303E022
:101DB000E30701D02023F7E7984658E00A2110E016
:101DC00010210EE010204FF0000B08900CE01021C5
:101DD0004FF0000B44F004044FF00809089103E0B1
:101DE00008214FF0000B0891C4F30253022B04D0DA
:101DF00001CF0021032B06D006E0FF1D27F00707C7
:101E0000F7E8020103E080B2042B00D1C0B24FF02A
:101E1000000823072BD5702A07D0DDF820C08CF0EE
:101E2000100C5CEA0B0C05D00EE040238DF824303A
:101E3000012308E050EA010306D030238DF8243056
:101E40008DF8252002239846DDF820C08CF0080C80
:101E50005CEA0B0C0BD150EA010301D1630706D5F4
:101E600030238DF824304FF00108A9F10109582AD8
:101E700004D038A20B9208AA0A920BE03AA2F9E722
:101E80005B46089AFEF79CF90B9B9B5C0A9A521ED4
:101E90000A92137050EA0102F2D10A98ADEB0000E9
:101EA00000F1200B600702D524F4803401E04FF0EC
:101EB0000109D94502DDA9EB0B0000E0002000EB91
:101EC0000B0141440890AAEB010AE00306D4DDE9C6
:101ED0000F232146504600F063F806444FF00009F6
:101EE00008E009A911F80900DDE90F12904709F18E
:101EF0000109761CC145F4DBE0030CD5DDE90F23B5
:101F00002146504600F04CF8064404E0DDE90F128B
:101F100030209047761C0899481E08900029F5DC6F
:101F200008E00A980A990078491C0A91DDE90F1225
:101F30009047761CBBF10001ABF1010BF1DC2146AF
:101F40005046DDE90F2300F019F806446D1C1BE62E
:101F5000092801003031323334353637383961627F
:101F60006364656600000000303132333435363743
:101F70003839414243444546000000002DE9F04114
:101F8000044600251E461746880404D405E0394659
:101F90002020B0476D1C641EF9D52846BDE8F081AD
:101FA0002DE9F041044600251E469046C80301D5A0
:101FB000302700E02027880404D505E04146384654
:101FC000B0476D1C641EF9D52846BDE8F0810000BD
:101FD0004FF47A700349086000BF02480068002887
:101FE000FBD170473400002000B5024601E0FFF746
:101FF000EFFF1000A2F10102F9D100BD0349086012
:1020000000BF024909680029FBD170473400002055
:1020100000BF054A128802F04002002AF9D0C2B27D
:10202000014B9A80704700000010014010B507482E
:1020300001780120FFF728F9054803C8FFF7ECF8FD
:1020400002480078401C0149087010BD0F000020B4
:102050001C0000202DE9F04F03468946002400278C
:10206000A44600203EE0002136E000EB800A03EBAE
:102070008A1A1AF811A04FEACA6A4FEA1A6800EBE6
:10208000800A03EB8A1A3AF811A00AF4FC6A4FEAB4
:10209000EA0500EB800A03EB8A1A3AF811A00AF469
:1020A000784A4FEA2A26B8F13C0F11DA3C2D0FDAB4
:1020B000642E0DDD074404F1010A1FFA8AF401F1D0
:1020C0009E0A4FF0A00B9AFBFBFE0BFB1EAAD4440A
:1020D00001F1010A1FFA8AF1A029C6DB00F1010A09
:1020E0001FFA8AF07828BEDBB7FBF4FA82F800A06A
:1020F000BCFBF4FA82F801A0BDE8F08F10B51648D9
:10210000007898B900211548FEF71EFB00BF134860
:10211000FEF7D2FB0028FAD11048FEF7D7FBC0F536
:1021200016500F49086001200B4908700A480078D2
:1021300002280FD14FF416500849091D08600146C6
:102140000648FEF7F3FB01210448FEF7FDFA0020E4
:102150000149087010BD00001800002028640240EA
:1021600014000020FEF7BAF81649087008460178F6
:102170000120FFF789F8144C22E014480078012868
:102180000ED141021248FEF7FFFC124A12492046C6
:10219000FFF760FF02200D49087000200F4908700A
:1021A0000E48007860B90948007848B94FF40071CA
:1021B0000748FEF7EBFCFFF739FF012007490870DD
:1021C000DBE700000F0000201402002018000020B0
:1021D000000402401C000020149800200800002089
:1021E00010B54FF400600E4908803220FFF706FF5B
:1021F0004FF480600A4908803220FFF7FFFE4FF459
:1022000080600749891C08803220FFF7F7FE4FF4F1
:1022100000600349891C08803220FFF7EFFE10BDE3
:1022200018040240014608687047000010B588B0E5
:10223000044601210846FEF71FFE01211020FEF78B
:102240004BFE072209212248FEF77BFC07220A21C8
:102250001F48FEF776FC4FF4C060069002208DF810
:102260001C008DF81D0000208DF81E0001208DF847
:102270001F0006A91648FEF71CFC02940020ADF8CA
:102280000C00ADF80E00ADF81000ADF814000C20F5
:10229000ADF8120002A90F48FFF7F4FA01210D482A
:1022A000FFF795FA012240F225510A48FFF7C5FAD7
:1022B00025208DF8040001208DF805008DF806001A
:1022C0008DF8070001A8FEF79BFC08B010BD0000C8
:1022D000000002400010014030B595B0054613AB38
:1022E00012AA09A9284600F039FA044614B120467A
:1022F00015B030BD0020149026E0224909689DF8F1
:10230000502001EBC20113AB11AA486801A900F0EB
:1023100025FA04460CB12046EAE709A901A800F015
:10232000BBFC60B99DF844009DF84810884201DD6F
:102330000220DDE79DF85000124988750AE09DF8FB
:102340005000401CC0B214900E48007D9DF8501003
:102350008842D2DC00BF0B48007D9DF850108842B7
:1023600001D10420C4E714A9284600F0D7FA044696
:102370000CB12046BCE79DF850000249487500208A
:10238000B6E70000A80000202DE9F0419AB09C4873
:10239000847D007DA04202DC1AB0BDE8F08198493E
:1023A000096801EBC40106AB07AA486808A900F058
:1023B000D5F908A993A0FFF7B9FB002644E090489F
:1023C000008B0121B1400840D8B122218FA0FFF736
:1023D000ADFB304600F028FB8949243147183946C7
:1023E0008BA0FFF7A3FB222188A0FFF79FFB3046BD
:1023F00000F01AFB82492431084410A941F8260054
:1024000018E0304600F010FB7D492431085810A92F
:1024100041F826007A48C07D30B910A850F826103F
:102420007CA0FFF783FB05E010A850F826107AA0E7
:10243000FFF77CFB9DF81C00401EB04202D078A044
:10244000FFF774FB701CC6B29DF81C008642B6DB19
:1024500074A0FFF76BFB00F039FB6948407D0B2847
:102460000DD2DFE800F0060D151E27323F4E5F72D9
:1024700087006349096851F834008047054690E0B9
:102480005F4A126852F8341010988847054688E071
:102490005B4B1B6853F83420DDE91001904705467B
:1024A0007FE0574F3F6857F8343010A807C8984767
:1024B000054676E0DFF848C1DCF800C05CF834700F
:1024C00010A80FC8B84705466BE01498DFF830C174
:1024D0000090DCF800C05CF8347010A80FC8B84752
:1024E00005465EE0DDE91401DFF814C1CDE9000125
:1024F000DCF800C05CF8347010A80FC8B847054677
:102500004FE0DDE914121698DFF8F4C0CDE90012AF
:102510000290DCF800C05CF8347010A80FC8B8470F
:1025200005463EE0DDE91423DDE91610DFF8D0C0F2
:10253000CDE90023CDE90210DCF800C05CF834706E
:1025400010A80FC8B84705462BE0DDE91523DDE9E3
:102550001710CDE90123CDE903101498DFF8A0C0CE
:102560000090DCF800C05CF8347010A80FC8B847C1
:10257000054616E0DDE91623DDE91810CDE9022352
:10258000CDE90410DDE91401DFF874C0CDE90001E4
:10259000DCF800C05CF8347010A80FC8B8470546D6
:1025A00000BF00BF00F050FA9DF8180001280CD1C0
:1025B0001348C07D20B929461BA0FFF7B7FA07E0F2
:1025C00029461BA0FFF7B2FA02E018A0FFF7AEFA07
:1025D0000B4890F8EC0088B10948D0F8F0000A21C7
:1025E000B0FBF1F201FB12070548D0F8F000B0FB98
:1025F000F1F83A46414611A0FFF798FA00BFCBE642
:10260000A80000200D0A25732800000025630000A3
:1026100025730000256C7500305825580000000017
:102620002C000000290000003D256C753B0D0A00C0
:102630003D305825583B0D0A0000000046756E637A
:1026400074696F6E2052756E2054696D653A256409
:102650002E2531646D730D0A00000000F0B50346AD
:102660001546002000220026002455E01F782C2F5C
:1026700001D104B901221F78292F01D01F780FB989
:1026800004B94AE0002E34D11F78302F02DB1F78C6
:10269000392F11DD1F78612F02DB1F78662F0BDDCC
:1026A0001F78412F02DB1F78462F05DD1F78582F3A
:1026B00002D01F78782F0CD102B12EE01F78612F45
:1026C00003DB1F78203F0F7001E01F780F70491C5B
:1026D0001FE01F78222F04D102B11EE00126012441
:1026E00017E01F78202F14D01F782C2F11D0FF2631
:1026F00013E01F78222F00D1002402B10DE044B175
:102700001F785C2F02D15B1C471CF8B21F780F703A
:10271000491C471CF8B25B1CA8E700BF00270F70DC
:102720002E70F0BD10B50446002010700BE020782C
:102730000870641C491C1078401C10701078984276
:1027400001DB012010BD2078202802D0207800284D
:10275000EDD10020087000BFF4E700002DE9FF4F25
:1027600085B0804689460027002004900390012010
:1027700002904FF0000B002544461DE020782028F1
:1027800016D005F07F00052812DA0DB945F0800556
:1027900005F07F00042803D120782A2800D00EE01D
:1027A000207805F07F010DF80100681CC5B202E039
:1027B000852D00D103E0641C20780028DED100BF05
:1027C0008DB1002005F07F010DF8010051A1684690
:1027D00000F062FA18B900210898017002E00121A6
:1027E0000898017000254FF0000A444614E0641C6C
:1027F0000AF1010000F0FF0A2078202802D020789A
:102800002A2809D1204600F0D7F90646282E03D001
:102810002A2E01D0CDF810A02078282802D02078C8
:102820000028E4D14446049810B10498401C0444A4
:102830004FF0000A002654E0207810B94FF0010A4A
:1028400050E02078282803D116B9781CC7B213E0CD
:102850002078292808D13EB917B1781EC7B201E007
:102860004FF0010A47B93DE02078222804D10EB983
:10287000012000E00020064647B9207820282FD00C
:10288000207889F8000009F1010929E020782C2836
:1028900004D101200290681CC5B214E020782028E1
:1028A00011D0207828280ED04DB9BBF1050F06DADB
:1028B00020780DF80B000BF1010000F0FF0B0298DF
:1028C000401CC0B20290012F0AD10298022807D101
:1028D0000298401CC0B202900398401CC0B2039002
:1028E000641CA9E700BF0398012809D100200DF856
:1028F0000B0008A1684600F0CFF908B9002003904A
:10290000079903980870002089F80000504609B024
:10291000BDE8F08F766F6964000000002DE9F04398
:10292000B5B005460F460024002604E000213D48CE
:102930008155701CC6B20A2EF8DB06E06D1C2878A3
:1029400018B9012035B0BDE8F08328782828F5D1E2
:102950006D1C61E034AA69462846FFF77FFE0646F3
:1029600035449DF8D00020B1012827D0FF284CD154
:1029700049E09DF8000000B333A9684600F027F94C
:1029800006460EB10220DDE7204600F04DF825494D
:102990000A31339A0A50A1F12400008B0121A14091
:1029A000884320491A39088304211E480155601CB8
:1029B000C4B20A2C01DD0320C4E726E0684600F01B
:1029C00087F9401C00F0FF08204600F02DF815495B
:1029D0000A3100EB01094946684600F06EF91148DA
:1029E0001A38018B0120A040014388B20D491A39E1
:1029F00008830C4800F80480601CC4B20A2C01DD76
:102A000003209FE701E002209CE700BF28782928E7
:102A100001D0287800B900E09CE700BF3C7000209E
:102A200090E70000C200002002460020002105E0DF
:102A3000044B5B5C0344D8B24B1CD9B29142F7DB28
:102A400070470000C200002010B501210D48FEF7BC
:102A5000B4FD012808D10C48D0F8F0004FF6FF7102
:102A600008440949C1F8F0000648FEF7A3FD0649ED
:102A7000D1F8F01008440449C1F8F0000846D0F835
:102A8000F00010BD00080040A800002010B504466A
:102A900004EBC40000EB04100122C2EB800081B201
:102AA0004FF47A70FEF7FEFD01200149C87510BD94
:102AB000A800002010B50246012000E050430B00A2
:102AC000A1F10104E1B2F9D110BD000010B501215E
:102AD0000848FEF75DFD4FF6FF710648FEF790FDD2
:102AE00000210448FEF78EFD00200349C1F8F000E4
:102AF00010BD000000080040A800002070B51D486F
:102B0000008800F40040002833D01A4805780020DF
:102B100019494855194881681748884704461CB91F
:102B20001649C868804721E0134800F0DDF80546E3
:102B3000012D00D02C46CCB1012C06D0022C08D09F
:102B4000032C0AD0042C10D10BE00DA0FEF7EEFFF1
:102B50000BE00EA0FEF7EAFF07E00FA0FEF7E6FF8E
:102B600003E010A0FEF7E2FF00BF00BF0020014914
:102B7000088070BD3000002014E30020A800002071
:102B8000BAAFCAFDB4EDCEF3210D0A00B2CECAFD34
:102B9000B4EDCEF3210D0A00B2CECAFDCCABB6E047
:102BA000210D0A00CEB4D5D2B5BDC6A5C5E4B5C4C5
:102BB000BAAFCAFD210D0A000146491C00E0491CBC
:102BC0000878202801D10029F9D1087870472DE92B
:102BD000F04307460E4600254FF00A083C46002009
:102BE00030601FE02078392802DC207830280ADAAB
:102BF0002078462802DC2078412804DA20785828FA
:102C000009D1012D07D12078412801DB4FF01008B0
:102C1000681CC5B205E0207800B904E00120BDE8D9
:102C2000F083641CDEE700BF3C46B8F1100F0FD103
:102C3000032D01DA0220F2E72078302806D16078EF
:102C4000582803D1A41CA81EC5B204E00320E6E75F
:102C50000DB90420E3E71BE00DB1681EC5B2207872
:102C6000392806DC2078302803DB2078A0F13009F1
:102C700002E02078A0F1370929464046FFF71AFF05
:102C8000316809FB00103060641C207800B900E056
:102C9000E2E700BF0020C2E702460AE010780B78A6
:102CA000984201D001207047107800B902E0521C10
:102CB000491CF3E700BF0020F5E706E002780A7040
:102CC000027802B902E0401C491CF7E700BF7047D8
:102CD0000146002005E00A7802B903E0421CD0B2A8
:102CE000491CF8E700BF704710B58CB004461E239E
:102CF0000BAA03A92046FFF715FD0090009810B11C
:102D000001200CB010BD9DF82C00044400200B9055
:102D10000EE040489DF82C2050F8221003A8FFF741
:102D2000BBFF00B908E09DF82C00401CC0B20B901E
:102D30009DF82C000728ECD300BF9DF82C00072835
:102D400063D2DFE800F004053C5E6564630000BF09
:102D500031A0FEF7EBFE31A0FEF7E8FE3FA0FEF744
:102D6000E5FE4EA0FEF7E2FE5CA0FEF7DFFE6BA0E4
:102D7000FEF7DCFE79A0FEF7D9FE86A0FEF7D6FEB0
:102D80008BA0FEF7D3FE90A0FEF7D0FE94A0FEF736
:102D9000CDFE99A0FEF7CAFE9EA0FEF7C7FEA4A036
:102DA000FEF7C4FEB0A0FEF7C1FEBDA0FEF7BEFE5A
:102DB000C8A0FEF7BBFED4A0FEF7B8FE9AE216A0AC
:102DC000FEF7B4FEE0A0FEF7B1FE00200B900EE08F
:102DD000ED4800689DF82C2000EBC2004168EBA094
:102DE000FEF7A4FE9DF82C00401CC0B20B90E648F4
:102DF000007D9DF82C108842EADC07A0FEF796FEC5
:102E000078E205A0FEF792FEC4E171E245E219E224
:102E1000ECE100005C0000200D0A00002D2D2D2D9E
:102E20002D2D2D2D2D2D2D2D2D2D2D2D2D2D2D2DD2
:102E30002D2D2D2D55534D4152542056332E312DCD
:102E40002D2D2D2D2D2D2D2D2D2D2D2D2D2D2D2DB2
:102E50002D2D2D2D2D2D2D200D0A00002020202080
:102E600055534D415254CAC7D3C9414C49454E549C
:102E7000454BBFAAB7A2B5C4D2BBB8F6C1E9C7C912
:102E8000B5C4B4AEBFDAB5F7CAD4BBA5BDBBD7E9EC
:102E9000BCFE2CCDA8B9FD200D0A0000CBFC2CC433
:102EA000E3BFC9D2D4CDA8B9FDB4AEBFDAD6FACA51
:102EB000D6B5F7D3C3B3CCD0F2C0EFC3E6B5C4C820
:102EC000CEBACEBAAFCAFD2CB2A2D6B4D0D02ED2D2
:102ED000F2B4CB2CC4E3BFC90D0A0000D2D4CBE6B8
:102EE000D2E2B8FCB8C4BAAFCAFDB5C4CAE4C8EBF4
:102EF000B2CECAFD28D6A7B3D6CAFDD7D628313060
:102F00002F3136BDF8D6C629A1A2D7D6B7FBB4AEAD
:102F1000A1A2BAAFCAFDC8EB0D0A0000BFDAB5D84E
:102F2000D6B7B5C8D7F7CEAAB2CECAFD292CB5A55B
:102F3000B8F6BAAFCAFDD7EEB6E0D6A7B3D63130F1
:102F4000B8F6CAE4C8EBB2CECAFD2CB2A2D6A7B37B
:102F5000D6BAAFCAFDB7B5200D0A0000BBD8D6B5AA
:102F6000CFD4CABE2ED0C2D4F6B2CECAFDCFD4CAF8
:102F7000BEBDF8D6C6C9E8D6C3B9A6C4DC2CD0C23B
:102F8000D4F6BDF8D6C6D7AABBBBB9A6C4DC2E0DF5
:102F90000A000000BCBCCAF5D6A7B3D63A7777774B
:102FA0002E6F70656E6564762E636F6D0D0A00007E
:102FB00055534D415254D3D037B8F6CFB5CDB3C3E6
:102FC000FCC1EE3A0D0A00003F3A202020202020CC
:102FD000BBF1C8A1B0EFD6FAD0C5CFA20D0A000050
:102FE00068656C703A202020BBF1C8A1B0EFD6FA1A
:102FF000D0C5CFA20D0A00006C6973743A2020205E
:10300000BFC9D3C3B5C4BAAFCAFDC1D0B1ED0D0AB3
:103010000A00000069643A2020202020BFC9D3C3E1
:10302000BAAFCAFDB5C44944C1D0B1ED0D0A0A001A
:103030006865783A20202020B2CECAFD3136BDF82E
:10304000D6C6CFD4CABE2CBAF3B8FABFD5B8F12BC6
:10305000CAFDD7D6BCB4D6B4D0D0BDF8D6C6D7AA90
:10306000BBBB0D0A0A0000006465633A20202020E3
:10307000B2CECAFD3130BDF8D6C6CFD4CABE2CBA46
:10308000F3B8FABFD5B8F12BCAFDD7D6BCB4D6B4C5
:10309000D0D0BDF8D6C6D7AABBBB0D0A0A00000027
:1030A00072756E74696D653A312CBFAAC6F4BAAFF9
:1030B000CAFDD4CBD0D0BCC6CAB13B302CB9D8B134
:1030C000D5BAAFCAFDD4CBD0D0BCC6CAB13B0D0A6D
:1030D0000A000000C7EBB0B4D5D5B3CCD0F2B1E054
:1030E000D0B4B8F1CABDCAE4C8EBBAAFCAFDC3FBDD
:1030F000BCB0B2CECAFDB2A2D2D4BBD8B3B5BCFC70
:10310000BDE1CAF82E0D0A002D2D2D2D2D2D2D2DB2
:103110002D2D2D2D2D2D2D2D2D2D2D2D2D2D2D2DDF
:103120002D2D414C49454E54454B2D2D2D2D2D2DEA
:103130002D2D2D2D2D2D2D2D2D2D2D2D2D2D2D2DBF
:103140002D2D2D200D0A00002D2D2D2D2D2D2D2D59
:103150002D2D2D2D2D2D2D2D2D2D2D2D2D2D2D2D9F
:103160002DBAAFCAFDC7E5B5A52D2D2D2D2D2D2DC1
:103170002D2D2D2D2D2D2D2D2D2D2D2D2D2D2D2D7F
:103180002D2D2D2D200D0A00A800002025730D0ADD
:103190000000000059A0FEF7C9FC00200B901AE0C7
:1031A000664909689DF82C2001EBC20101AB02AA17
:1031B000486803A9FFF7D2FA604800689DF82C1010
:1031C00050F8312003A95EA0FEF7B0FC9DF82C005A
:1031D000401CC0B20B905948007D9DF82C108842CD
:1031E000DEDCAFF2CC30FEF7A1FC83E0AFF2D830EA
:1031F000FEF79CFC0BAA03A92046FFF72FFA9DF8C7
:103200002C00C8B9694603A8FFF7E1FC0B909DF8B4
:103210002C0020B94FA00099FEF788FC0EE09DF825
:103220002C00042801D002206BE54DA0FEF77EFCA7
:1032300001204249C87501E0022062E547A0FEF77F
:1032400075FC57E045A0FEF771FC0BAA03A92046C8
:10325000FFF704FA9DF82C00C8B9694603A8FFF7E8
:10326000B6FC0B909DF82C0020B942A00099FEF707
:103270005DFC0EE09DF82C00042801D0022040E502
:103280003FA0FEF753FC00202C49C87501E0022046
:1032900037E532A0FEF74AFC2CE030A0FEF746FCF2
:1032A0000BAA03A92046FFF7D9F99DF82C00C8B94D
:1032B000694603A8FFF78BFC0B909DF82C0078B9AA
:1032C0001E49009881F8EC00084690F8EC0018B10F
:1032D00030A0FEF72BFC07E035A0FEF727FC03E04B
:1032E00002200EE502200CE51CA0FEF71FFC01E009
:1032F000012006E500BF002003E500002D2D2D2D47
:103300002D2D2D2D2D2D2D2D2D2D2D2D2D2D2D2DED
:103310002D2D2D2D2DBAAFCAFD204944202D2D2D48
:103320002D2D2D2D2D2D2D2D2D2D2D2D2D2D2D2DCD
:103330002D2D2D2D2D2D2D2D200D0A00A800002026
:1033400025732069642069733A0D0A305825303896
:10335000580D0A004845583A305825580D0A0000C3
:103360003136BDF8D6C6B2CECAFDCFD4CABE210D05
:103370000A0000004445433A256C750D0A00000020
:103380003130BDF8D6C6B2CECAFDCFD4CABE210DEB
:103390000A00000052756E2054696D652043616C0F
:1033A00063756C6174696F6E204F4E0D0A000000EA
:1033B00052756E2054696D652043616C63756C6154
:1033C00074696F6E204F46460D0A00000160704719
:1033D0003A044010121432801716180419021A7B8E
:1033E00003060C0015083E00703A71357211730027
:1033F000A20211817A207B1C7C287D3C7E557F684F
:10340000807681808288838F849685A386AF87C4E7
:1034100088D789E813E0000010000D001428A505E6
:10342000AB072475256326A59F78A068A103A6DFB6
:10343000A7DFA8F0A990AA9413E50E610F4B16021E
:103440001E37210222912907330B350B371D3871A6
:10345000392A3C784D404E2069006B4074198D4FDD
:103460008E008F0090009100920096009A80B084A8
:10347000B10CB20EB382B80A431444F04534465836
:103480004728483A59885A885B445C675D495E0E14
:10349000640465206605940495086C0A6D554F8098
:1034A000508051005222535E548009036E116F9F69
:1034B0005500564057406A400140024013E715004E
:1034C000589E41083F00750576E14C0077013DC2EA
:1034D0004B09C960413834113B02A48996009730EA
:1034E000982099309A849B299C039D4C9E3F780498
:1034F0007901C8F0790FC8007910C87E790AC880B0
:10350000790BC801790CC80F790DC8207909C880DA
:103510007902C8C07903C8407905C830792613E517
:10352000015802604FC050C051005233538D54C0F7
:10353000589E00003F00000064656300696400005D
:1035400072756E74696D650068656C7000000000CE
:103550006C6973740000000068657800766F6964B8
:10356000204C45445F534554287538206D6F646581
:1035700029000000766F69642077726974655F6165
:103580006464722875333220616464722C7533323E
:103590002076616C29000000753332207265616409
:1035A0005F6164647228753332206164647229003B
:1035B000766F69642064656C61795F6D732875311D
:1035C00036206E6D73290000766F69642064656C27
:1035D00061795F757328753332206E757329000029
:1035E0007538204F565F5772697465526567287544
:1035F000382072656749442C20753820726567440D
:103600006174290024360008000000209C0100009D
:10361000840200088C3600089C01002044E700006A
:103620005C1B0008013C2D01020304041506070879
:1036300009AC7A030A1829141334351B0848041AF4
:1036400050041A3C041A58041A38041A400413256A
:10365000221B08980813CD331B08740813E91F1B9D
:1036600008B0081AFD081AC80813D50B1B085C0817
:1036700013270E1B08E008227814208D2A1B08D976
:0C368000381B892328190C1A066B01DC8A
:040000050800018965
:00000001FF
