:020000040800F2
:1000000070E800209D0100085D0C0008150C000838
:10001000590C000869020008691B00080000000074
:10002000000000000000000000000000F9120008BD
:10003000350B0008000000006F0F000829170008AA
:10004000B7010008B7010008B7010008B7010008B0
:10005000B7010008B7010008B7010008B7010008A0
:10006000B7010008B7010008B7010008B701000890
:10007000B7010008B7010008B7010008B701000880
:10008000B7010008B7010008B7010008B701000870
:10009000B7010008B7010008B7010008B701000860
:1000A000B7010008B7010008B7010008B701000850
:1000B000B701000805180008B7010008B7010008DB
:1000C000B7010008B7010008B7010008B701000830
:1000D000B70100088919000891190008B701000844
:1000E000B7010008B7010008B7010008B701000810
:1000F000B7010008B7010008B7010008B701000800
:10010000B7010008B7010008B7010008B7010008EF
:10011000B7010008B7010008B7010008B7010008DF
:10012000B7010008B7010008B7010008B7010008CF
:10013000B7010008B7010008B7010008B7010008BF
:10014000B7010008B7010008B7010008B7010008AF
:10015000B7010008B7010008B7010008B70100089F
:10016000B7010008B7010008B7010008B70100088F
:10017000B7010008B7010008BD050008B701000875
:10018000B7010008B7010008DFF80CD000F018F83C
:10019000004800471922000870E800200648804700
:1001A00006480047FEE7FEE7FEE7FEE7FEE7FEE75C
:1001B000FEE7FEE7FEE7FEE79D170008890100085D
:1001C000064C074D06E0E06840F0010394E80700A4
:1001D00098471034AC42F6D3FFF7DAFFF824000852
:1001E0001825000810B54FF4806000F075FD01F08F
:1001F000D5FA00F011FD01F09BFA4FF4E13001F067
:10020000F5FC4FF4E13001F0C3FD42F2CF0142F2C0
:100210000F7001F013FB00F069FDB8B115E04FF469
:1002200000710F4800F0F2FC4FF4967001F02EFFC1
:100230004FF400710A4800F0EBFC4FF4967001F0A7
:1002400025FF0021074801F08BFCE8E74FF47A70A6
:1002500001F01CFF00F0F8F902F04CF8012010BD8D
:10026000000402400044004000BFFEE700B589B032
:100270000121084600F08CFE0121880500F078FE7F
:100280000121172000F074FE0121082000F070FE0B
:10029000002208217A4800F096FC4FF48070079005
:1002A00002208DF821008DF8200000208DF822001A
:1002B00001208DF8230007A9714800F03CFC0021C3
:1002C0004FF4800000F008FF8020079001208DF897
:1002D000200002208DF8210000208DF8220001204E
:1002E0008DF8230007A9664800F025FC80216448AA
:1002F00000F08CFC8020079000208DF82000032067
:100300008DF8210000208DF8220001208DF82300B7
:1003100007A95C4800F00FFC80215A4800F078FCE7
:100320000A2001F0B3FE8021564800F06FFC0A203D
:1003300001F0ACFE8021534800F06AFC0D2204213C
:100340004F4800F040FC0D2206214D4800F03BFCD8
:100350000D2206214C4800F036FC0D2207214A48A8
:1003600000F031FC0D220521484800F02CFC0D2244
:100370000621464800F027FC0D220621444800F0E3
:1003800022FC0D220721424800F01DFC0D22002115
:100390003E4800F018FC0D2201213C4800F013FCFF
:1003A0000D220421394800F00EFCC02007900220E5
:1003B0008DF8200003208DF8210000208DF8220008
:1003C00001208DF8230007A9314800F0B4FB732009
:1003D000079007A92D4800F0AEFBC020079007A9A1
:1003E000294800F0A8FB5020079007A9244800F0F6
:1003F000A2FB40F23F10ADF80A000120ADF8060064
:100400007720ADF808000120ADF8040001A800F045
:1004100055F8012000F040F80020ADF80C00ADF8D0
:100420000E00ADF810008020ADF812000020ADF8ED
:100430001400ADF81600ADF8180003A800F0E4F8B9
:100440000121084600F0CEF8012000F05FF84FF4DB
:1004500080631A014FF416510E4800F069F84E20DF
:100460008DF8000002208DF8010000208DF80200B8
:1004700001208DF80300684600F0F2FB09B000BDD2
:1004800000000240000C0240000402400010024044
:10049000000802407003002030B10749096841F0AC
:1004A0000401054A116005E00349096821F00401CF
:1004B000014A116070470000000005504188028821
:1004C00041EA0241044A1162C188828841EA02413C
:1004D000014A5162704700000000055030B10749E1
:1004E000096841F00101054A116005E00349096806
:1004F00021F00101014A1160704700000000055021
:1005000001494861704700000000055030B10749BB
:10051000096841F48041054A116005E00349096812
:1005200021F48041014A116070470000000005502D
:10053000F0B58FB004460D4616461F4601218805CA
:1005400000F016FD144800F099F800BF124800F0C2
:1005500041F90028FAD14FF0007000900F48019047
:100560000294002003900495059006974FF4805064
:10057000079008960011099040020A9004200B9001
:1005800003200C9000200D900E906946024800F068
:100590002FF90FB0F0BD000028640240280005507C
:1005A000014600200022044B1B6903EA01020AB144
:1005B000012000E0002070470000055010B5012028
:1005C000FFF7EEFF012809D101F0F2FD0120FFF74E
:1005D00097FF03480078401C0149087010BD0000D7
:1005E0002400002029B1074AD2680243054BDA6093
:1005F00006E0044AD268C3439BB21A40014BDA605A
:10060000704700000000055000210E4A126844F2B5
:1006100001039A430B4B1A601A46116840F6F272B6
:100620009143028843881A4383881A43C3881A4334
:1006300003891A4343891A4383891A431143014AA0
:10064000116070470000055010B50121044800F00A
:1006500009F8642001F01AFD0120FFF73FFF10BDEB
:100660002864024021B1026842F00102026003E006
:10067000026822F00102026070470000016821F068
:10068000010101600021016041608160C160016180
:10069000212141614A49884204D13D21484A103A0A
:1006A00091608CE046491831884205D14FF474615D
:1006B000434A103A916082E041493031884205D185
:1006C0004FF474113E4A103A916078E03C49483149
:1006D000884205D14FF07461394A103A91606EE05A
:1006E00037496031884204D13649354A103AD160E1
:1006F00065E033497831884204D13349304A103AB1
:10070000D1605CE02E499031884204D12F492C4AB7
:10071000103AD16053E02A49A831884205D14FF000
:100720003D51274A103AD16049E02949884204D115
:100730003D21274A083A116041E025491831884295
:1007400005D14FF47461224A083A116037E020491C
:100750003031884205D14FF474111D4A083A1160B6
:100760002DE01B494831884205D14FF07461184A89
:10077000083A116023E016496031884204D11149DA
:10078000134A121F11601AE011497831884204D1CE
:100790000D490F4A121F116011E00D499031884236
:1007A00004D10A490A4A121F116008E00849A83119
:1007B000884204D14FF03D51054A121F1160704725
:1007C000106002403D000020400F002000003D204E
:1007D00010640240014600200A6802F001020AB1DA
:1007E000012000E0002070470146486880B2704751
:1007F00010B500220268134B1A40CC680B682343E3
:100800004C6923438C692343CC6923430C6A2343FB
:100810004C6A23438C6A23434C6B23438C6B2343E6
:100820001A430260426922F00702D1E90B342343E4
:100830001A4342610B6943604B6883608B68C360F5
:1008400010BD00003F801CF04160704710B50446A9
:100850003448007838B9AA2C05D1012031490870F4
:10086000314804705DE02F480078012807D1AF2C93
:1008700005D102202B4908702B48447051E02948CB
:100880000078022807D1F12C05DA032025490870E9
:100890002548847045E02348007803280CD1322C89
:1008A0000ADA04201F4908701F48C4701F480470EA
:1008B00000201F49087034E01A480078042819D134
:1008C0001A480078002815DD18480078401E17499E
:1008D00008701748007816490978491C144A1170A5
:1008E000001D11490C5411480078D0B905200D495C
:1008F000087016E00B48007805280FD10020094940
:1009000008700B480078001D07490C54084800780F
:10091000401DC1B2044800F081F802E00020014906
:10092000087010BD1E000020100100201C000020D7
:100930001D00002010B504463448007838B9AA2CB0
:1009400005D1012031490870314804705DE02F481D
:100950000078012807D1AF2C05D102202B4908705F
:100960002B48447051E029480078022807D1F12C27
:1009700005DA0320254908702548847045E023489E
:10098000007803280CD1322C0ADA04201F490870A1
:100990001F48C4701F48047000201F49087034E0CD
:1009A0001A480078042819D11A480078002815DD63
:1009B00018480078401E17490870174800781649F3
:1009C0000978491C144A1170001D11490C54114832
:1009D0000078D0B905200D49087016E00B48007862
:1009E00005280FD10020094908700B480078001D28
:1009F00007490C5408480078401DC1B2044800F073
:100A00000DF802E000200149087010BD210000200F
:100A1000420100201F000020200000202DE9F041AD
:100A200004460D460027002604E0A05D3844C7B206
:100A3000701CC6B2681EB042F7DC601910F8010CD9
:100A4000B84201D0BDE8F0812078AA2802D16078B0
:100A5000AF2800D0F6E7A078012815D120792E49DB
:100A6000087060794870A07900EE100AB8EE400A6C
:100A7000DFED2A0A80EE201A084680ED011AE0799F
:100A80000872012026490870A078022812D1207926
:100A90002449087060794870A07900EE100AB8EE19
:100AA000400ADFED1E0A80EE201A084680ED011A8A
:100AB000E0790872A078032817D16079217940EA9B
:100AC000012019490880E079A17940EA01201649FE
:100AD0004880607A217A40EA012013498880E07AD0
:100AE000A17A40EA01201049C880A078042810D1DA
:100AF0002079012807D160790C49087008460178EF
:100B0000012000F061FD2079022802D160790849B6
:100B1000087000BF96E70000580100200000C8429E
:100B20001B000020640100200000002022000020A3
:100B3000230000207047F0B50A460021002300245E
:100B400000BF3DE0012505FA01F3156805EA03043D
:100B50009C4234D105684F000326BE40B543056072
:100B600015794E00B5400668354305601579012DAD
:100B700002D01579022D16D185684F000326BE409C
:100B8000B543856055794E00B5408668354385602C
:100B9000456801268E40B5434560456896798E408C
:100BA000B6B235434560C5684F000326BE40B54325
:100BB000C560D5794E00B540C6683543C560491C4F
:100BC0001029BFD3F0BDF0B5002300244D07ED0E72
:100BD00002FA05F3CE1000F1200555F826504E0715
:100BE000F70E0F26BE40B543CF1000F1200646F8A1
:100BF0002750CE1000F1200555F8265045EA030491
:100C0000CE1000F1200545F82640F0BD4183704725
:100C10000183704700BFFEE71CB50121022000F0F0
:100C2000A7F901208DF8040000208DF806000320AC
:100C30008DF8050000208DF807004FF4007000903B
:100C400069460448FFF777FF4FF400710148FFF74A
:100C5000DFFF1CBD0004024000BFFEE7704700003C
:100C600070B5002100230F22C4781CB3174C2468F0
:100C700004F4E064C4F5E064C4F30721C1F10404A2
:100C8000E3B20A4144789C40E1B2847814402143A5
:100C90000C07210E0E4C05786155047804F01F05F1
:100CA0000124AC4005786D11AD0005F1E025C5F8D3
:100CB000004109E0047804F01F050124AC40054D13
:100CC0000678761145F8264070BD00000CED00E076
:100CD00000E400E080E100E002490143024A1160C3
:100CE000704700000000FA050CED00E070B5FFF75A
:100CF000BDFA00F0FFF900F0C0F8052001F0C6F9D8
:100D000000F080F8054600240AE00B4A02EB44029A
:100D10005178094A12F8140000F0B5F8601CC4B20A
:100D2000B12CF2D37923A12282214FF4AC7000F0D0
:100D300005F8002070BD0000942300082DE9FC5F39
:100D400004460D4616461F4604EB46004FF4447118
:100D500090FBF1F201FB12001FFA80F805EB47004F
:100D60001FFA80F901A9322000F054F883469DF85B
:100D7000040000F0C00001906946032000F04AF82A
:100D800083469DF8000000F0F000009008F0070096
:100D90009DF8041041EAC00004F0070140EA010A8E
:100DA0005146322000F06FF88346C4F3C70A51461B
:100DB000172000F068F88346C8F3C70A5146182088
:100DC00000F061F8834609F003009DF8001041EA45
:100DD000800005F0030140EA010A5146032000F0BB
:100DE00052F88346C5F3870A5146192000F04BF8A4
:100DF0008346C9F3870A51461A2000F044F8834617
:100E0000BDE8FC9F08B569460B2000F003F89DF88B
:100E1000000008BD70B505460C4600F0DFF9422021
:100E200000F01AFA18B100F0FBF9012070BD0A2099
:100E300001F036F9284600F00FFA18B100F0F0F989
:100E40000220F3E700F0ECF90A2001F029F900F0A4
:100E5000C5F9432000F000FA18B100F0E1F90320D1
:100E6000E4E70A2001F01CF900F060F9207001F0BD
:100E70001FFA00F0D5F90020D8E710B58021122024
:100E800000F001F810BD70B505460C4600F0A6F95B
:100E9000422000F0E1F918B100F0C2F9012070BD64
:100EA0000A2001F0FDF8284600F0D6F918B100F04C
:100EB000B7F90220F3E70A2001F0F2F8204600F02B
:100EC000CBF918B100F0ACF90320E8E700F0A8F97D
:100ED0000020E4E730EEC01A80ED031A90ED031A0B
:100EE000D0ED041A31EE611A80ED081A90ED061A61
:100EF000D0ED031A31EE211A80ED061A90ED061A94
:100F0000D0ED071AF1EE611AB4EEE11AF1EE10FA23
:100F100004D290ED071AB1EE411A0DE090ED061AD9
:100F2000D0ED071AB4EEE11AF1EE10FA02DD90ED01
:100F3000071A01E090ED061A80ED061A90ED001AEE
:100F4000D0ED031A21EE211AD0ED011A90ED062AF8
:100F500001EE821AD0ED021A90ED082A01EE821AF3
:100F600080ED091A90ED031A80ED041A704770475E
:100F700029B1064A12680243044B1A6004E0034A8E
:100F800012688243014B1A607047000030380240FB
:100F900029B1064A12680243044B1A6004E0034A6E
:100FA00012688243014B1A607047000034380240D7
:100FB00029B1064A12680243044B1A6004E0034A4E
:100FC00012688243014B1A607047000040380240AB
:100FD00029B1064A12680243044B1A6004E0034A2E
:100FE00012688243014B1A60704700004438024087
:100FF000F0B5002100220024022500260223324FF2
:101000003F6807F00C0121B1042905D0082937D128
:1010100005E02E4F076036E02D4F076033E02A4F82
:101020003F1F3F68C7F38056274F3F1F3F6807F0B9
:101030003F036EB1264FB7FBF3F7DFF88CC0ACF17E
:10104000040CDCF800C0CCF3881C07FB0CF40CE0AB
:101050001E4FB7FBF3F7DFF870C0ACF1040CDCF8FF
:1010600000C0CCF3881C07FB0CF4174F3F1F3F68F0
:10107000C7F301477F1C7D00B4FBF5F7076002E072
:10108000124F076000BF00BF0F4F3F6807F0F0012D
:101090000909104F7A5C0768D74047600A4F3F68DC
:1010A00007F4E051890A0B4F7A5C4768D7408760A4
:1010B000054F3F6807F46041490B064F7A5C47686B
:1010C000D740C760F0BD0000083802400024F4009B
:1010D00040787D013800002002460020044B18684B
:1010E00020F0EC6042EA01031843014B186070479E
:1010F000083802401CB501210220FFF739FF4FF4E8
:101100004060009001208DF8040000208DF806005A
:1011100001208DF8070002208DF80500694602487D
:10112000FFF709FD1CBD00000004024070B500245B
:1011300000F028F8322000F0B3FF08251AE0322032
:1011400000F0AEFF4FF480600D4908806006040E89
:101150000B480838006800F4006008B1601CC4B295
:10116000322000F09DFF4FF480600549891C088003
:10117000681EC5B2002DE2DC00F018F8204670BDF4
:10118000180402401CB54FF40060009000208DF858
:10119000040001208DF8070002208DF80500694643
:1011A0000148FFF7C8FC1CBD000402401CB54FF409
:1011B0000060009001208DF8040000208DF80600EA
:1011C00001208DF8070002208DF8050069460248CD
:1011D000FFF7B1FC1CBD00000004024010B54FF445
:1011E00000600E490880322000F05AFF4FF4806002
:1011F0000A490880322000F053FF4FF4006007498D
:10120000891C0880322000F04BFF4FF480600349B6
:10121000891C0880322000F043FF10BD18040240F2
:1012200010B54FF400600B490880322000F038FF01
:101230004FF480600749891E0880322000F030FF9B
:101240004FF400600349891E0880322000F028FF17
:1012500010BD00001A04024070B50446002622E0CA
:1012600004F0800020B14FF400602249088004E0BF
:101270004FF400601F49891C08806006040E32206C
:1012800000F00EFF4FF480601A490880322000F011
:1012900007FF4FF480601749891C0880322000F056
:1012A000FFFE701CC6B2082EDADB0A2000F0F8FE42
:1012B000FFF768FF322000F0F3FE4FF480600D4925
:1012C00008800A2000F0ECFE0A480838006800F4A4
:1012D000006008B1012500E000254FF48060054959
:1012E000891C0880322000F0DBFEFFF75FFF2846F4
:1012F00070BD0000180402407047000073B5002460
:1013000000260025AA222146641C2B484254AF2205
:101310002146641C425406222146641C4254002289
:101320002146641C42549DF801202146641C42540D
:101330009DF800202146641C42549DF8032021465C
:10134000641C42549DF802202046611CCCB21A490C
:101350000A549DF805202046611CCCB216490A5457
:101360009DF804202046611CCCB213490A549DF814
:1013700007202046611CCCB20F490A549DF8062074
:101380002046611CCCB20C490A54201FC87000BF13
:1013900005E00948405D3044C6B2681CC5B2A542AC
:1013A000F7DB2046611CCCB203490E5421460248AB
:1013B00000F052F87CBD0000FC000020F7B50024CE
:1013C000002600259DED010ADFED210A20EE200A0E
:1013D000BCEEC00A10EE100AC7B2AA222146641C55
:1013E0001C484254AF222146641C4254022221462A
:1013F000641C425400222146641C42549DF8002083
:101400002146641C42549DF801202146641C42542C
:101410002146641C47549DF808202046611CCCB22C
:101420000C490A54201FC87000BF05E00948405D00
:101430003044C6B2681CC5B2A542F7DB2046611C29
:10144000CCB204490E542146024800F005F8FEBD16
:101450000000C842FC00002070B505460C4621463D
:10146000014800F02DFC70BDFC00002073B5002485
:1014700000260025AA222146641C2B484254AF2294
:101480002146641C425403222146641C425400221B
:101490002146641C42549DF801202146641C42549C
:1014A0009DF800202146641C42549DF803202146EB
:1014B000641C42549DF802202046611CCCB21A499B
:1014C0000A549DF805202046611CCCB216490A54E6
:1014D0009DF804202046611CCCB213490A549DF8A3
:1014E00007202046611CCCB20F490A549DF8062003
:1014F0002046611CCCB20C490A54201FC87000BFA2
:1015000005E00948405D3044C6B2681CC5B2A5423A
:10151000F7DB2046611CCCB203490E542146024839
:10152000FFF79AFF7CBD0000FC000020F7B5002407
:10153000002600259DED010ADFED210A20EE200A9C
:10154000BCEEC00A10EE100AC7B2AA222146641CE3
:101550001C484254AF222146641C425401222146B9
:10156000641C425400222146641C42549DF8002011
:101570002146641C42549DF801202146641C4254BB
:101580002146641C47549DF808202046611CCCB2BB
:101590000C490A54201FC87000BF05E00948405D8F
:1015A0003044C6B2681CC5B2A542F7DB2046611CB8
:1015B000CCB204490E5421460248FFF74DFFFEBD50
:1015C0000000C842FC0000202DE9F04106460F460D
:1015D0000024A0460025AA222146641C1648425435
:1015E000AF222146641C425404222146641C42540A
:1015F00000222146641C42542146641C4654214664
:10160000641C4754201F0C49C87000BF06E00A48FC
:10161000405D404400F0FF08681CC5B2A542F6DBFF
:101620002046611CCCB2044901F8008021460248E2
:10163000FFF712FFBDE8F081FC0000200CB5002090
:10164000019000903448006840F4803032490860CE
:1016500000BF3148006800F4003000900198401C41
:101660000190009818B90198B0F5A06FF1D12A48FF
:10167000006800F4003010B10120009001E000206B
:1016800000900098012846D123484030006840F07F
:1016900080502149403108602048006840F4804073
:1016A0001E4908601C48083000681B490831086062
:1016B0000846006840F4004008600846006840F4AE
:1016C000A05008601648091F0860081F006840F015
:1016D0008070091F086000BF0F48006800F00070AC
:1016E0000028F9D040F205600E4908600A48083029
:1016F000006820F0030008490831086008460068C7
:1017000040F00200086000BF03480830006800F0A5
:101710000C000828F8D10CBD0038024000700040D1
:1017200019544007003C024010B500F021F910BDEB
:1017300030B500BF15480068154AB0FBF2F1B1F1B1
:10174000807F01D301201DE021F07F40401E4FF03B
:10175000E022506150170F22002807DA13071D0EF0
:101760000C4B00F00F04241F1D5503E013071C0E43
:10177000094B1C5400BF00204FF0E022906107206D
:10178000106100200028D5D130BD000048000020A5
:1017900040420F0018ED00E000E400E010B51548ED
:1017A000006840F47000134908601348006840F076
:1017B00001001149086000200F49083108600E48F7
:1017C00000680E4908400C4908600D48091D086072
:1017D000081F006820F48020091F086000200649C7
:1017E0000C310860FFF72AFF4FF000600149803993
:1017F000086010BD88ED00E000380240FFFFF6FEF3
:101800001030002410B50121094800F054F80128D7
:1018100009D1084801780220FFF7D6FE00200649CA
:101820000870044908700121014800F035F810BD26
:101830000004004023000020240000207FB504465F
:101840000D4601210220FFF7B3FBADF80450002044
:10185000ADF806000294ADF80C0001A90D4800F0A7
:1018600045F8012211460B4800F036F801210948DD
:1018700000F015F81D208DF8000003208DF8010000
:1018800000208DF8020001208DF803006846FFF764
:10189000E7F97FBD00040040CA430282704721B1CE
:1018A000028842F00102028004E002884FF6FE73D3
:1018B0001A400280704730B5024600200023002401
:1018C000158A05EA0103958905EA010413B10CB1F3
:1018D000012000E0002030BD1AB183890B438381D1
:1018E00002E083898B4383817047000000220288D5
:1018F000184B98420ED0184B98420BD0B0F1804F45
:1019000008D0164B984205D0154B984202D0154B83
:10191000984204D14FF68F731A404B881A43124BEA
:10192000984207D0114B984204D04FF6FF431A401B
:101930000B891A4302804B68C3620B880385054BF1
:10194000984202D0044B984201D18B7A038601233E
:101950008382704700000140000401400004004001
:1019600000080040000C004000100040001400403F
:101970000448006820B103480068401E014908601F
:10198000704700003000002010B500F0EFF810BDE7
:1019900010B500F0B9F910BD10B50022002340F6D3
:1019A0006A14A14200D100BF0A1201249440A3B2DC
:1019B000DC43048010BD10B502460020108A20F4DC
:1019C00070600B884C8823438C882343CC88234346
:1019D0001843108210BD21B1828942F400528281E5
:1019E00004E082894DF6FF731A408281704770B51A
:1019F0000246002400230025002040F66A16B1426A
:101A000000D100BFC1F3421501F01F03012606FA01
:101A100003F3012D02D19689334006E0022D02D155
:101A2000168A334001E0968A33400C12012606FAEA
:101A300004F41688344013B10CB1012000E00020FA
:101A400070BDF0B50346002400260025002040F6B6
:101A50006A17B94200D100BF1846C1F3421401F021
:101A60001F06012707FA06F5012C01D10C3004E00E
:101A7000022C01D1103000E014301AB107682F4356
:101A8000076002E00768AF430760F0BD2DE9FF473C
:101A900005460E460024A14600BFA046B08900B10D
:101AA00000BF2C8A24F44054F08804432C82AC8973
:101AB00041F20C608443B08831890843718908433E
:101AC0000443AC81AC8A24F44074B0890443AC82F2
:101AD0006846FFF78DFA2048854202D01F488542AC
:101AE00002D1DDF80C9001E0DDF80890A88900F43F
:101AF000004040B109EBC90000EB09103168490012
:101B0000B0FBF1F707E009EBC90000EB0910316801
:101B10008900B0FBF1F76420B7FBF0F00401200965
:101B2000642101FB1078A88900F4004040B1322004
:101B300000EBC800B0FBF1F000F00700044308E040
:101B4000322000EB08106421B0FBF1F000F00F0030
:101B500004432C81BDE8FF870010014000140140C0
:101B6000C1F308028280704700BFFEE710B51B4832
:101B7000008800F0080010B118488088C4B240F214
:101B800025511648FFF733FF50B140F22551134855
:101B9000FFF702FF11488088C4B22046FEF756FEC8
:101BA00040F227710D48FFF722FFA8B10C480178D9
:101BB0000078401C0A4A10700A48405C0749888037
:101BC0001046007808490978884205D10348808981
:101BD00020F080000149888110BD00000010014004
:101BE00034000020700100203500002010B58AB0BC
:101BF000044601210846FFF7BBF901211020FFF739
:101C0000E7F925208DF80C0001208DF80D008DF8E6
:101C10000E008DF80F0003A8FFF722F80722092114
:101C20002548FEF7D0FF07220A212348FEF7CBFF05
:101C30004FF4C060019002208DF808008DF8090073
:101C400000208DF80A0001208DF80B0001A91A4828
:101C5000FEF771FF06940020ADF81C00ADF81E00E1
:101C6000ADF82000ADF824000C20ADF8220006A944
:101C70001248FFF70BFF0020ADF81000ADF812007E
:101C80004FF40070ADF814000020ADF8160006A95E
:101C90000A48FFF7FBFE04A90848FFF78CFE012263
:101CA00040F225510548FFF7CCFE01210348FFF71C
:101CB00092FE0AB010BD000000000240001001407A
:101CC00070B505460E4600240AE0295D0B480278EF
:101CD0000078401C094B187009488154601CC4B23C
:101CE000B442F2DB0748808900F0800028B9012265
:101CF00040F227710348FFF7A4FE70BD35000020B5
:101D0000700100200010014010B51D48008800F04F
:101D1000080018B11A48001D0088C4B240F22551CD
:101D20001748FFF764FE58B140F225511448FFF7F9
:101D300033FE1348001D0088C4B22046FEF7FAFDAA
:101D400040F227710E48FFF752FEC0B10D480178EE
:101D50000078401C0B4A10700B48405C0849091D74
:101D600008801046007809490978884207D104485C
:101D70000C30008820F0800001490C31088010BD33
:101D80000044004036000020700200203700002090
:101D900010B58AB0044601214804FFF709F9012172
:101DA0000820FFF7E5F826208DF80C0001208DF8BB
:101DB0000D0000208DF80E0001208DF80F0003A803
:101DC000FEF74EFF072205212B48FEF7FCFE0722F7
:101DD00006212948FEF7F7FE2020019002208DF809
:101DE00008008DF8090000208DF80A0001208DF808
:101DF0000B0001A92048FEF79EFE40200190022022
:101E00008DF808008DF8090001208DF80A000020E7
:101E10008DF80B0001A91848FEF78DFE06940020EE
:101E2000ADF81C00ADF81E00ADF82000ADF82400A0
:101E30000C20ADF822000020ADF81000ADF8120023
:101E40004FF40070ADF814000020ADF8160006A99C
:101E50000A48FFF71BFE04A90848FFF7ACFD012262
:101E600040F225510548FFF7ECFD01210348FFF73B
:101E7000B2FD0AB010BD0000000C0240004400405A
:101E800002E008C8121F08C1002AFAD17047704743
:101E9000002001E001C1121F002AFBD170470000A1
:101EA0001CB50A4807C8FFF789FA0849D1E90101BA
:101EB000CDE9000105480368054807C800F00CF8A3
:101EC00004480078401C034908701CBD64010020D0
:101ED00058010020230000200FB40EB507A807C842
:101EE0008DE80700144804A90EC900F02DF8134826
:101EF00090ED090ADFED120A30EE200ABCEEC00AAE
:101F000010EE100A0F49C8800B4890ED090ADFED6A
:101F10000C0A30EE200ABCEEC00A10EE100A48800F
:101F20000846016801914068014602900198FFF758
:101F3000E5F903B05DF814FB5C000020840000208C
:101F40000080BB44080000201FB504469FED130A23
:101F5000B0EE403A9DF8190010B9DFED102A05E007
:101F60009DF8190000EE100AF8EE402A9DF81900BD
:101F7000052803DB9DF819009B2803DD084800783D
:101F80008DF81900F0EE430AB0EE620A2046FEF723
:101F9000A1FF9DF80500034908701FBD0000A04285
:101FA00019000020180000200FB40EB507A807C8BC
:101FB0008DE80700144804A90EC900F02DF8134855
:101FC00090ED090ADFED120A30EE200ABCEEC00ADD
:101FD00010EE100A0F49C8800B4890ED090ADFED9A
:101FE0000C0A30EE200ABCEEC00A10EE100A48803F
:101FF0000846016801914068014602900198FFF788
:1020000035FA03B05DF814FB5C000020840000206A
:102010000080BB44000000201FB504469FED130A5A
:10202000B0EE403A9DF8050010B9DFED102A05E04A
:102030009DF8050000EE100AF8EE402A9DF8050014
:10204000052803DB9DF805009B2803DD0848007880
:102050008DF80500F0EE620AB0EE430A2046FEF766
:1020600039FF9DF80500024908701FBD0000A0421D
:10207000180000204FF47A700349086000BF02483E
:1020800000680028FBD170473000002000B50246F0
:1020900001E0FFF7EFFF1000A2F10102F9D100BD4E
:1020A0000349086000BF024909680029FBD1704755
:1020B000300000201CB5084807C8FFF737FA074969
:1020C000D1E90101CDE9000104480368024807C8CD
:1020D000FFF76AFF1CBD00005801002064010020CA
:1020E0002DE9F04F04468946002300279C469A4676
:1020F00082F808A0002042E000213AE000EB800ACC
:1021000004EB8A1A1AF811A04FEACA6A4FEA1A6851
:1021100000EB800A04EB8A1A3AF811A00AF4FC6A70
:102120004FEAEA0500EB800A04EB8A1A3AF811A09C
:102130000AF4784A4FEA2A26B8F1410F15DA412D00
:1021400013DA5F2E11DD074403F1010A1FFA8AF347
:1021500001F19E0A4FF0A00B9AFBFBFE0BFB1EAA9F
:10216000D4444FF0010A82F808A001F1010A1FFAD5
:102170008AF1A029C2DB00F1010A1FFA8AF078284F
:10218000BADBB7FBF3FA82F800A0BCFBF3FA82F8E3
:1021900001A000EE103AB8EE400ADFED040A80EE2E
:1021A000201A82ED011ABDE8F08F0000000096466B
:1021B00010B51648007898B900211548FEF752FA74
:1021C00000BF1348FEF706FB0028FAD11048FEF7BF
:1021D0000BFBC0F516500F49086001200B49087031
:1021E0000A48007802280FD14FF416500849091DFB
:1021F000086001460648FEF727FB01210448FEF768
:1022000031FA00200149087010BD00002C000020A8
:102210002864024028000020FDF7E4FF1C490870F4
:10222000084601780220FFF7CFF91A4C2FE01A4830
:10223000007801280ED141021848FEF7E7FC184A41
:1022400018492046FFF74CFF022013490870002070
:10225000154908701448007860B90F48007848B9EB
:102260004FF400710D48FEF7D3FCFFF719FE012073
:102270000D4908700D480078012808D1410207482F
:10228000FEF7C6FCFFF716FF002008490870CEE7EE
:1022900023000020700300202C00002000040240D6
:1022A00064010020709900201A0000201B0000200B
:1022B00010B54FF400600E4908803220FFF7F0FEA1
:1022C0004FF480600A4908803220FFF7E9FE4FF49E
:1022D00080600749891C08803220FFF7E1FE4FF437
:1022E00000600349891C08803220FFF7D9FE10BD29
:1022F000180402409FED200A204880ED000A9FED5F
:10230000200A80ED010A9FED1E0A80ED020A9FED72
:102310001D0A80ED070A9FED180A1B4880ED000A90
:102320009FED170A80ED010A9FED150A80ED020A64
:102330009FED140A80ED070A9FED0F0A134880ED08
:10234000000A9FED0F0A80ED010A9FED0D0A80ED56
:10235000020A9FED0C0A80ED070AB7EE000A0C484E
:1023600080ED000A9FED060A80ED010A9FED040A48
:1023700080ED020A704700009A99193F5C00002026
:102380000000000000007A44AC000020D4000020CF
:10239000840000203A0440101214328017161804EA
:1023A00019021A7B03060C0015083E00703A7135BD
:1023B00072117300A20211817A207B1C7C287D3C63
:1023C0007E557F68807681808288838F849685A3FE
:1023D00086AF87C488D789E813E0000010000D009D
:1023E0001428A505AB072475256326A59F78A0684A
:1023F000A103A6DFA7DFA8F0A990AA9413E50E61B8
:102400000F4B16021E07210222912907330B350BB1
:10241000371D3871392A3C784D404E2069006B4099
:1024200074198D4F8E008F009000910092009600DD
:102430009A80B084B10CB20EB382B80A431444F04F
:10244000453446584728483A59885A885B445C675F
:102450005D495E0E640465206605940495086C0A67
:102460006D554F80508051005222535E54800903B5
:102470006E116F9F5500564057406A400140024020
:1024800013E71500589E41083F00750576E14C00A2
:1024900077013DC24B09C960413834113B02A48920
:1024A00096009730982099309A849B299C039D4CE4
:1024B0009E3F78047901C8F0790FC8007910C87E72
:1024C000790AC880790BC801790CC80F790DC8202A
:1024D0007909C8807902C8C07903C8407905C83035
:1024E000792613E5015802604FC050C051005233A5
:1024F000538D54C0589E000018250008000000208D
:102500005C000000801E0008742500085C000020AC
:1025100014E80000901E0008000000000000000009
:1025200000000000000000000000000000000000AB
:10253000000000000000000000000000000000009B
:10254000000000000000000000000000000000008B
:102550000000000001020304010203040607080949
:10256000007A030A000000000000000001020304DA
:042570000607080949
:040000050800018965
:00000001FF
