:020000040800F2
:10000000C8E700209D010008E10B0008990B0008DB
:10001000DD0B0008650200084D1800080000000014
:10002000000000000000000000000000E5110008D2
:10003000B90A000800000000590E00081D1400084D
:10004000B7010008B7010008B7010008B7010008B0
:10005000B7010008B7010008B7010008B7010008A0
:10006000B7010008B7010008B7010008B701000890
:10007000B7010008B7010008B7010008B701000880
:10008000B7010008B7010008B7010008B701000870
:10009000B7010008B7010008B7010008B701000860
:1000A000B7010008B7010008B7010008B701000850
:1000B000B7010008F9140008B7010008B7010008EB
:1000C000B7010008B7010008B7010008B701000830
:1000D000B70100086D16000875160008B701000882
:1000E000B7010008B7010008B7010008B701000810
:1000F000B7010008B7010008B7010008B701000800
:10010000B7010008B7010008B7010008B7010008EF
:10011000B7010008B7010008B7010008B7010008DF
:10012000B7010008B7010008B7010008B7010008CF
:10013000B7010008B7010008B7010008B7010008BF
:10014000B7010008B7010008B7010008B7010008AF
:10015000B7010008B7010008B7010008B70100089F
:10016000B7010008B7010008B7010008B70100088F
:10017000B7010008B7010008C1050008B701000871
:10018000B7010008B7010008DFF80CD000F018F83C
:10019000004800472D1C0008C8E70020064880479B
:1001A00006480047FEE7FEE7FEE7FEE7FEE7FEE75C
:1001B000FEE7FEE7FEE7FEE791140008890100086C
:1001C000064C074D06E0E06840F0010394E80700A4
:1001D00098471034AC42F6D3FFF7DAFF301F00081F
:1001E000501F000810B54FF4806000F037FD01F09B
:1001F0004FF900F0D3FC01F015F94FF4E13001F0B4
:1002000067FB4FF4E13001F035FC42F2CF0142F2DE
:100210000F7001F085F900F02BFDB8B115E04FF437
:1002200000710E4800F0B4FC4FF4967001F0B6FC7B
:100230004FF40071094800F0ADFC4FF4967001F0E6
:10024000ADFC0021064801F0FDFAE8E74FF47A70B2
:1002500001F0A4FC00F0FAF910BD00000004024017
:100260000044004000BFFEE700B589B00121084608
:1002700000F004FE0121880500F0F0FD01211720A7
:1002800000F0ECFD0121082000F0E8FD002208212B
:100290007C4800F05AFC4FF48070079002208DF8E3
:1002A00021008DF8200000208DF8220001208DF81B
:1002B000230007A9734800F000FC00214FF48000E0
:1002C00000F080FE8020079001208DF820000220A1
:1002D0008DF8210000208DF8220001208DF82300E8
:1002E00007A9684800F0E9FB8021664800F050FC4F
:1002F0008020079000208DF8200003208DF8210039
:1003000000208DF8220001208DF8230007A95E4807
:1003100000F0D3FB80215C4800F03CFC0A2001F097
:100320003DFC8021584800F033FC0A2001F036FCE7
:100330008021554800F02EFC0D220421514800F088
:1003400004FC0D2206214F4800F0FFFB0D22062180
:100350004E4800F0FAFB0D2207214C4800F0F5FB57
:100360000D2205214A4800F0F0FB0D2206214848E5
:1003700000F0EBFB0D220621464800F0E6FB0D22C3
:100380000721444800F0E1FB0D220021404800F025
:10039000DCFB0D2201213E4800F0D7FB0D22042199
:1003A0003B4800F0D2FBC020079002208DF82000CF
:1003B00003208DF8210000208DF8220001208DF807
:1003C000230007A9334800F078FB7320079007A9A2
:1003D0002F4800F072FBC020079007A92B4800F0BF
:1003E0006CFB5020079007A9264800F066FB40F2FE
:1003F0003F10ADF80A000120ADF806007720ADF8F7
:1004000008000120ADF8040001A800F059F801200F
:1004100000F044F80020ADF80C00ADF80E00ADF887
:1004200010008020ADF812000020ADF814004FF449
:100430000070ADF816000020ADF8180003A800F019
:10044000E5F80121084600F0CFF8012000F060F83F
:100450004FF480631A014FF416510F4800F06AF808
:100460004E208DF8000002208DF8010000208DF84C
:10047000020001208DF80300684600F0B3FB09B0CC
:1004800000BD000000000240000C024000040240D9
:100490000010024000080240C402002030B10749A9
:1004A000096841F00401054A116005E00349096843
:1004B00021F00401014A116070470000000005505E
:1004C0004188028841EA0241044A1162C188828857
:1004D00041EA0241014A51627047000000000550A4
:1004E00030B10749096841F00101054A116005E092
:1004F0000349096821F00101014A116070470000B9
:100500000000055001494861704700000000055097
:1005100030B10749096841F48041054A116005E09E
:100520000349096821F48041014A116070470000C5
:1005300000000550F0B58FB004460D4616461F4624
:100540000121880500F08AFC144800F099F800BFEA
:10055000124800F041F90028FAD14FF000700090E5
:100560000F4801900294002003900495059006978F
:100570004FF48050079008960011099040020A90AD
:1005800004200B9003200C9000200D900E906946E3
:10059000024800F02FF90FB0F0BD000028640240BF
:1005A00028000550014600200022044B1B6903EA85
:1005B00001020AB1012000E0002070470000055050
:1005C00010B50120FFF7EEFF012809D101F0FAFA7A
:1005D0000120FFF797FF03480078401C014908708D
:1005E00010BD00002000002029B1074AD268024354
:1005F000054BDA6006E0044AD268C3439BB21A4056
:10060000014BDA60704700000000055000210E4ADF
:10061000126844F201039A430B4B1A601A461168A0
:1006200040F6F2729143028843881A4383881A4342
:10063000C3881A4303891A4343891A4383891A4397
:100640001143014A116070470000055010B50121A7
:10065000044800F009F8642001F0A0FA0120FFF737
:100660003FFF10BD2864024021B1026842F0010240
:10067000026003E0026822F001020260704700009D
:10068000016821F001010160002101604160816089
:10069000C1600161212141614A49884204D13D2163
:1006A000484A103A91608CE046491831884205D199
:1006B0004FF47461434A103A916082E0414930310D
:1006C000884205D14FF474113E4A103A916078E0A7
:1006D0003C494831884205D14FF07461394A103A9B
:1006E00091606EE037496031884204D13649354A1D
:1006F000103AD16065E033497831884204D13349FA
:10070000304A103AD1605CE02E499031884204D1E1
:100710002F492C4A103AD16053E02A49A831884227
:1007200005D14FF03D51274A103AD16049E029499F
:10073000884204D13D21274A083A116041E0254909
:100740001831884205D14FF47461224A083A116089
:1007500037E020493031884205D14FF474111D4AE9
:10076000083A11602DE01B494831884205D14FF00D
:100770007461184A083A116023E0164960318842D2
:1007800004D11149134A121F11601AE0114978313E
:10079000884204D10D490F4A121F116011E00D4922
:1007A0009031884204D10A490A4A121F116008E0B8
:1007B0000849A831884204D14FF03D51054A121F23
:1007C00011607047106002403D000020400F002083
:1007D00000003D2010640240014600200A6802F03B
:1007E00001020AB1012000E000207047014648687C
:1007F00080B2704710B500220268134B1A40CC68D3
:100800000B6823434C6923438C692343CC692343FE
:100810000C6A23434C6A23438C6A23434C6B234367
:100820008C6B23431A430260426922F00702D1E92C
:100830000B3423431A4342610B6943604B68836066
:100840008B68C36010BD00003F801CF041607047A2
:1008500010B504463448007838B9AA2C05D10120D7
:1008600031490870314804705DE02F480078012854
:1008700007D1AF2C05D102202B4908702B484470BA
:1008800051E029480078022807D1F12C05DA03202D
:10089000254908702548847045E0234800780328DE
:1008A0000CD1322C0ADA04201F4908701F48C4708A
:1008B0001F48047000201F49087034E01A4800786F
:1008C000042819D11A480078002815DD1848007846
:1008D000401E174908701748007816490978491CC6
:1008E000144A1170001D11490C5411480078D0B9F8
:1008F00005200D49087016E00B48007805280FD137
:100900000020094908700B480078001D07490C5465
:1009100008480078401DC1B2044800F081F802E0A8
:1009200000200149087010BD1A0000207C00002042
:10093000180000201900002010B504463448007843
:1009400038B9AA2C05D1012031490870314804700A
:100950005DE02F480078012807D1AF2C05D1022097
:100960002B4908702B48447051E029480078022830
:1009700007D1F12C05DA0320254908702548847039
:1009800045E02348007803280CD1322C0ADA0420F1
:100990001F4908701F48C4701F48047000201F4979
:1009A000087034E01A480078042819D11A480078F1
:1009B000002815DD18480078401E174908701748B0
:1009C000007816490978491C144A1170001D114914
:1009D0000C5411480078D0B905200D49087016E074
:1009E0000B48007805280FD10020094908700B48F2
:1009F0000078001D07490C5408480078401DC1B21A
:100A0000044800F00DF802E000200149087010BD14
:100A10001D000020AE0000201B0000201C00002054
:100A200030B50023002204E0845C1C44E3B2541C73
:100A3000E2B24C1E9442F7DC441814F8014C9C427C
:100A400000D030BD0478AA2C02D14478AF2C00D05D
:100A5000F7E78478012C04D10479144D2C70447983
:100A60006C708478022C04D10479114D2C70447977
:100A70006C708478032C17D14479057944EA0524F5
:100A80000C4D2C80C479857944EA0524094D6C808D
:100A9000447A057A44EA0524064DAC80C47A857A06
:100AA00044EA0524034DEC8000BFCAE72C00002077
:100AB00034000020000000207047F0B50A460021F5
:100AC0000023002400BF3DE0012505FA01F315686D
:100AD00005EA03049C4234D105684F000326BE405A
:100AE000B543056015794E00B5400668354305608D
:100AF0001579012D02D01579022D16D185684F0088
:100B00000326BE40B543856055794E00B5408668E2
:100B100035438560456801268E40B543456045688C
:100B200096798E40B6B235434560C5684F000326BE
:100B3000BE40B543C560D5794E00B540C668354363
:100B4000C560491C1029BFD3F0BDF0B500230024B7
:100B50004D07ED0E02FA05F3CE1000F1200555F811
:100B600026504E07F70E0F26BE40B543CF1000F1BA
:100B7000200646F82750CE1000F1200555F82650E3
:100B800045EA0304CE1000F1200545F82640F0BDEB
:100B9000418370470183704700BFFEE71CB5012108
:100BA000022000F05BF901208DF8040000208DF890
:100BB000060003208DF8050000208DF807004FF493
:100BC0000070009069460448FFF777FF4FF400710A
:100BD0000148FFF7DFFF1CBD0004024000BFFEE735
:100BE0007047000070B5002100230F22C4781CB3A9
:100BF000174C246804F4E064C4F5E064C4F30721EE
:100C0000C1F10404E3B20A4144789C40E1B2847823
:100C1000144021430C07210E0E4C057861550478D1
:100C200004F01F050124AC4005786D11AD0005F1FD
:100C3000E025C5F8004109E0047804F01F0501240F
:100C4000AC40054D0678761145F8264070BD000091
:100C50000CED00E000E400E080E100E00249014327
:100C6000024A1160704700000000FA050CED00E038
:100C700070B5FFF7F9FA00F0B3F900F0C0F80520FD
:100C800000F08CFF00F080F8054600240AE00B4AD3
:100C900002EB44025178094A12F8140000F0B5F84A
:100CA000601CC4B2A72CF2D378234FF4A0720A219F
:100CB000B82000F005F8002070BD0000E01D00081D
:100CC0002DE9FC5F04460D4616461F4604EB460020
:100CD0004FF4447190FBF1F201FB12001FFA80F80F
:100CE00005EB47001FFA80F901A9322000F054F803
:100CF00083469DF8040000F0C0000190694603207F
:100D000000F04AF883469DF8000000F0F0000090E3
:100D100008F007009DF8041041EAC00004F0070144
:100D200040EA010A5146322000F06FF88346C4F3CE
:100D3000C70A5146172000F068F88346C8F3C70A6F
:100D40005146182000F061F8834609F003009DF831
:100D5000001041EA800005F0030140EA010A514613
:100D6000032000F052F88346C5F3870A5146192044
:100D700000F04BF88346C9F3870A51461A2000F069
:100D800044F88346BDE8FC9F08B569460B2000F097
:100D900003F89DF8000008BD70B505460C4600F04C
:100DA00093F9422000F0CEF918B100F0AFF901201C
:100DB00070BD0A2000F0FCFE284600F0C3F918B10F
:100DC00000F0A4F90220F3E700F0A0F90A2000F0F7
:100DD000EFFE00F079F9432000F0B4F918B100F00B
:100DE00095F90320E4E70A2000F0E2FE00F014F990
:100DF000207000F047FF00F089F90020D8E710B517
:100E00008021122000F001F810BD70B505460C4697
:100E100000F05AF9422000F095F918B100F076F987
:100E2000012070BD0A2000F0C3FE284600F08AF9B8
:100E300018B100F06BF90220F3E70A2000F0B8FEC9
:100E4000204600F07FF918B100F060F90320E8E7D0
:100E500000F05CF90020E4E77047000029B1064A81
:100E600012680243044B1A6004E0034A126882438A
:100E7000014B1A60704700003038024029B1064A21
:100E800012680243044B1A6004E0034A126882436A
:100E9000014B1A60704700003438024029B1064AFD
:100EA00012680243044B1A6004E0034A126882434A
:100EB000014B1A60704700004038024029B1064AD1
:100EC00012680243044B1A6004E0034A126882432A
:100ED000014B1A607047000044380240F0B5002111
:100EE00000220024022500260223324F3F6807F02B
:100EF0000C0121B1042905D0082937D105E02E4F76
:100F0000076036E02D4F076033E02A4F3F1F3F68F0
:100F1000C7F38056274F3F1F3F6807F03F036EB16E
:100F2000264FB7FBF3F7DFF88CC0ACF1040CDCF80C
:100F300000C0CCF3881C07FB0CF40CE01E4FB7FB81
:100F4000F3F7DFF870C0ACF1040CDCF800C0CCF3B0
:100F5000881C07FB0CF4174F3F1F3F68C7F301477E
:100F60007F1C7D00B4FBF5F7076002E0124F0760BD
:100F700000BF00BF0F4F3F6807F0F0010909104F95
:100F80007A5C0768D74047600A4F3F6807F4E05132
:100F9000890A0B4F7A5C4768D7408760054F3F68E6
:100FA00007F46041490B064F7A5C4768D740C76039
:100FB000F0BD0000083802400024F40040787D01B4
:100FC0004400002002460020044B186820F0EC602A
:100FD00042EA01031843014B186070470838024089
:100FE0001CB501210220FFF739FF4FF4406000904B
:100FF00001208DF8040000208DF8060001208DF8F6
:10100000070002208DF8050069460248FFF755FDEC
:101010001CBD00000004024070B5002400F028F858
:10102000322000F0C5FD08251AE0322000F0C0FD96
:101030004FF480600D4908806006040E0B480838A4
:10104000006800F4006008B1601CC4B2322000F0F7
:10105000AFFD4FF480600549891C0880681EC5B249
:10106000002DE2DC00F018F8204670BD18040240A4
:101070001CB54FF40060009000208DF804000120A2
:101080008DF8070002208DF8050069460148FFF73A
:1010900014FD1CBD000402401CB54FF4006000901C
:1010A00001208DF8040000208DF8060001208DF845
:1010B000070002208DF8050069460248FFF7FDFC95
:1010C0001CBD00000004024010B54FF400600E4942
:1010D0000880322000F06CFD4FF480600A490880DF
:1010E000322000F065FD4FF400600749891C08803C
:1010F000322000F05DFD4FF480600349891C0880B8
:10110000322000F055FD10BD1804024010B54FF418
:1011100000600B490880322000F04AFD4FF48060E7
:101120000749891E0880322000F042FD4FF400601C
:101130000349891E0880322000F03AFD10BD0000EE
:101140001A04024070B50446002622E004F0800034
:1011500020B14FF400602249088004E04FF40060A1
:101160001F49891C08806006040E322000F020FD13
:101170004FF480601A490880322000F019FD4FF4C6
:1011800080601749891C0880322000F011FD701C16
:10119000C6B2082EDADB0A2000F00AFDFFF768FF6E
:1011A000322000F005FD4FF480600D4908800A20D0
:1011B00000F0FEFC0A480838006800F4006008B13E
:1011C000012500E000254FF480600549891C088056
:1011D000322000F0EDFCFFF75FFF284670BD0000F5
:1011E000180402407047000070B505460C462146C1
:1011F000014800F0D7FB70BD6800002073B50024E3
:1012000000260025AA222146641C2B484254AF2206
:101210002146641C425402222146641C425400228E
:101220002146641C42549DF801202146641C42540E
:101230009DF800202146641C42549DF8032021465D
:10124000641C42549DF802202046611CCCB21A490D
:101250000A549DF805202046611CCCB216490A5458
:101260009DF804202046611CCCB213490A549DF815
:1012700007202046611CCCB20F490A549DF8062075
:101280002046611CCCB20C490A54201FC87000BF14
:1012900005E00948405D3044C6B2681CC5B2A542AD
:1012A000F7DB2046611CCCB203490E5421460248AC
:1012B000FFF79AFF7CBD0000680000202DE9F04197
:1012C00006460F460024A0460025AA222146641C9B
:1012D00016484254AF222146641C42540122214642
:1012E000641C425400222146641C42542146641C62
:1012F00046542146641C4754201F0C49C87000BF47
:1013000006E00A48405D404400F0FF08681CC5B292
:10131000A542F6DB2046611CCCB2044901F80080EE
:1013200021460248FFF760FFBDE8F0816800002019
:101330000CB50020019000903448006840F48030E3
:101340003249086000BF3148006800F40030009066
:101350000198401C0190009818B90198B0F5A06F51
:10136000F1D12A48006800F4003010B1012000904B
:1013700001E0002000900098012846D12348403029
:10138000006840F0805021494031086020480068E2
:1013900040F480401E4908601C48083000681B4922
:1013A000083108600846006840F4004008600846BC
:1013B000006840F4A05008601648091F0860081F24
:1013C000006840F08070091F086000BF0F48006887
:1013D00000F000700028F9D040F205600E49086066
:1013E0000A480830006820F0030008490831086006
:1013F0000846006840F00200086000BF034808305B
:10140000006800F00C000828F8D10CBD003802403C
:101410000070004019544007003C024010B500F035
:1014200019F910BD30B500BF15480068154AB0FB6A
:10143000F2F1B1F1807F01D301201DE021F07F4066
:10144000401E4FF0E022506150170F22002807DAAB
:1014500013071D0E0C4B00F00F04241F1D5503E055
:1014600013071C0E094B1C5400BF00204FF0E02254
:1014700090610720106100200028D5D130BD000008
:101480005400002040420F0018ED00E000E400E0AE
:1014900010B51548006840F47000134908601348FF
:1014A000006840F001001149086000200F49083130
:1014B00008600E4800680E4908400C4908600D4855
:1014C000091D0860081F006820F48020091F0860BB
:1014D000002006490C310860FFF72AFF4FF000603A
:1014E00001498039086010BD88ED00E000380240F5
:1014F000FFFFF6FE1030002410B50121064800F071
:101500004CF8012802D1002004490870012102484A
:1015100000F034F810BD000000040040200000205E
:101520007FB504460D4601210220FFF7B7FCADF858
:1015300004500020ADF806000294ADF80C0001A99B
:101540000D4800F045F8012211460B4800F036F82E
:101550000121094800F015F81D208DF80000032036
:101560008DF8010000208DF8020001208DF80300A5
:101570006846FFF737FB7FBD00040040CA43028284
:10158000704721B1028842F00102028004E0028823
:101590004FF6FE731A400280704730B502460020B5
:1015A00000230024158A05EA0103958905EA010450
:1015B00013B10CB1012000E0002030BD1AB18389C5
:1015C0000B43838102E083898B4383817047000052
:1015D00000220288184B98420ED0184B98420BD02C
:1015E000B0F1804F08D0164B984205D0154B984269
:1015F00002D0154B984204D14FF68F731A404B8896
:101600001A43124B984207D0114B984204D04FF620
:10161000FF431A400B891A4302804B68C3620B8850
:101620000385054B984202D0044B984201D18B7A36
:1016300003860123838270470000014000040140BB
:101640000004004000080040000C00400010004072
:10165000001400400448006820B103480068401EA0
:1016600001490860704700003C00002010B500F000
:10167000EFF810BD10B500F0B9F910BD10B500229B
:10168000002340F66A14A14200D100BF0A120124CF
:101690009440A3B2DC43048010BD10B50246002084
:1016A000108A20F470600B884C8823438C88234375
:1016B000CC8823431843108210BD21B1828942F4A3
:1016C0000052828104E082894DF6FF731A408281C4
:1016D000704770B50246002400230025002040F624
:1016E0006A16B14200D100BFC1F3421501F01F03D9
:1016F000012606FA03F3012D02D19689334006E054
:10170000022D02D1168A334001E0968A33400C1232
:10171000012606FA04F41688344013B10CB10120F6
:1017200000E0002070BDF0B503460024002600252F
:10173000002040F66A17B94200D100BF1846C1F335
:10174000421401F01F06012707FA06F5012C01D10A
:101750000C3004E0022C01D1103000E014301AB13A
:1017600007682F43076002E00768AF430760F0BDDA
:101770002DE9FF4705460E460024A14600BFA046BE
:10178000B08900B100BF2C8A24F44054F08804438F
:101790002C82AC8941F20C608443B08831890843C3
:1017A000718908430443AC81AC8A24F44074B08945
:1017B0000443AC826846FFF791FB2048854202D083
:1017C0001F48854202D1DDF80C9001E0DDF8089059
:1017D000A88900F4004040B109EBC90000EB0910F2
:1017E00031684900B0FBF1F707E009EBC90000EBF5
:1017F000091031688900B0FBF1F76420B7FBF0F005
:1018000004012009642101FB1078A88900F400403C
:1018100040B1322000EBC800B0FBF1F000F007004F
:10182000044308E0322000EB08106421B0FBF1F023
:1018300000F00F0004432C81BDE8FF870010014039
:1018400000140140C1F308028280704700BFFEE728
:1018500010B51B48008800F0080010B118488088B7
:10186000C4B240F225511648FFF733FF50B140F2A1
:1018700025511348FFF702FF11488088C4B2204663
:10188000FEF7E6FF40F227710D48FFF722FFA8B1EF
:101890000C4801780078401C0A4A10700A48405CE5
:1018A000074988801046007808490978884205D1A0
:1018B0000348808920F080000149888110BD000024
:1018C0000010014040000020C20000204100002024
:1018D00010B58AB0044601210846FFF7BFFA01217E
:1018E0001020FFF7EBFA25208DF80C0001208DF871
:1018F0000D008DF80E008DF80F0003A8FFF772F9A8
:10190000072209212548FFF720F907220A21234849
:10191000FFF71BF94FF4C060019002208DF808001A
:101920008DF8090000208DF80A0001208DF80B00C9
:1019300001A91A48FFF7C1F806940020ADF81C0071
:10194000ADF81E00ADF82000ADF824000C20ADF875
:10195000220006A91248FFF70BFF0020ADF8100087
:10196000ADF812004FF40070ADF814000020ADF88F
:10197000160006A90A48FFF7FBFE04A90848FFF76E
:101980008CFE012240F225510548FFF7CCFE0121D3
:101990000348FFF792FE0AB010BD000000000240AD
:1019A0000010014070B505460E4600240AE0295D8E
:1019B0000B4802780078401C094B18700948815484
:1019C000601CC4B2B442F2DB0748808900F080009A
:1019D00028B9012240F227710348FFF7A4FE70BD29
:1019E00041000020C20000200010014010B51D4839
:1019F000008800F0080018B11A48001D0088C4B221
:101A000040F225511748FFF764FE58B140F22551C6
:101A10001448FFF733FE1348001D0088C4B2204667
:101A2000FEF78AFF40F227710E48FFF752FEC0B161
:101A30000D4801780078401C0B4A10700B48405C40
:101A40000849091D0880104600780949097888422C
:101A500007D104480C30008820F0800001490C3187
:101A6000088010BD0044004042000020C201002058
:101A70004300002010B58AB0044601214804FFF756
:101A80000DFA01210820FFF7E9F926208DF80C0056
:101A900001208DF80D0000208DF80E0001208DF83A
:101AA0000F0003A8FFF79EF8072205212B48FFF738
:101AB0004CF8072206212948FFF747F8202001901B
:101AC00002208DF808008DF8090000208DF80A002A
:101AD00001208DF80B0001A92048FEF7EEFF402001
:101AE000019002208DF808008DF8090001208DF882
:101AF0000A0000208DF80B0001A91848FEF7DDFF51
:101B000006940020ADF81C00ADF81E00ADF82000D2
:101B1000ADF824000C20ADF822000020ADF8100034
:101B2000ADF812004FF40070ADF814000020ADF8CD
:101B3000160006A90A48FFF71BFE04A90848FFF78C
:101B4000ACFD012240F225510548FFF7ECFD0121D3
:101B50000348FFF7B2FD0AB010BD0000000C0240C0
:101B60000044004002E008C8121F08C1002AFAD150
:101B700070477047002001E001C1121F002AFBD10D
:101B8000704700004FF47A700349086000BF0248B4
:101B900000680028FBD170473C00002000B50246D9
:101BA00001E0FFF7EFFF1000A2F10102F9D100BD43
:101BB0000349086000BF024909680029FBD170474A
:101BC0003C00002010B51648007898B9002115484F
:101BD000FEF74AFD00BF1348FEF7FEFD0028FAD1CC
:101BE0001048FEF703FEC0F516500F4908600120AB
:101BF0000B4908700A48007802280FD14FF416509C
:101C00000849091D086001460648FEF71FFE01212C
:101C10000448FEF729FD00200149087010BD0000AE
:101C20002800002028640240240000201CB5FEF794
:101C3000D9FA00BF1FE04FF400710F48FEF7A8FF6C
:101C40004FF47A70FFF7AAFF0C4A51781078FFF72B
:101C500035FB0B48016800914068014601900098EF
:101C6000FFF7CCFA4FF400710348FEF793FF4FF4EF
:101C70007A70FFF793FFDEE7000402402C0000209B
:101C80001000002010B54FF400600E49088032208B
:101C9000FFF78EFF4FF480600A4908803220FFF77B
:101CA00087FF4FF480600749891C08803220FFF7C6
:101CB0007FFF4FF400600349891C08803220FFF742
:101CC00077FF10BD180402403A0C40D01214328045
:101CD0001716180419021A7A03050C003E0070BA90
:101CE000713572117300A20211817A207B1C7C284D
:101CF0007D3C7E557F68807681808288838F849644
:101D000085A386AF87C488D789E813E00000100058
:101D10000D0042001428A505AB072475256326A5F0
:101D20009F78A068A6DFA7DFA8F0A990AA9413E582
:101D30000E610F431E05210222012300330B371DC4
:101D40003871392A3C6869556B0A74119200930006
:101D5000B104B382431444F0454546614751487984
:101D6000640465206605940495086C0A6D556E112F
:101D70006F9F6A400140024013E715004F8050807A
:101D800051005222535E5480550A564F589E4108C6
:101D90003F05750576C14C0F770A3DC24B01C960FE
:101DA000413834113B02A4899D4C9E3F780479014F
:101DB000C8F0790FC8007910C87E790AC880790BFD
:101DC000C801790CC80F790DC8207909C88079023B
:101DD000C8C07903C8407905C830792609023B425A
:101DE0003A044010121432801716180419021A7B94
:101DF00003060C0015083E00703A7135721173002D
:101E0000A20211817A207B1C7C287D3C7E557F6854
:101E1000807681808288838F849685A386AF87C4ED
:101E200088D789E813E0000010000D001428A505EC
:101E3000AB072475256326A59F78A068A103A6DFBC
:101E4000A7DFA8F0A990AA9413E50E610F4B160224
:101E50001E27210222912907330B350B371D3871BC
:101E6000392A3C784D404E2069006B4074198D4FE3
:101E70008E008F0090009100920096009A80B084AE
:101E8000B10CB20EB382B80A431444F0453446583C
:101E90004728483A59885A885B445C675D495E0E1A
:101EA000640465206605940495086C0A6D554F809E
:101EB000508051005222535E548009036E116F9F6F
:101EC0005500564057406A400140024013E7150054
:101ED000589E41083F00750576E14C0077013DC2F0
:101EE0004B09C960413834113B02A48996009730F0
:101EF000982099309A849B299C039D4C9E3F78049E
:101F00007901C8F0790FC8007910C87E790AC880B5
:101F1000790BC801790CC80F790DC8207909C880E0
:101F20007902C8C07903C8407905C8307926000015
:101F3000501F00080000002068000000641B00081B
:101F4000B81F00086800002060E70000741B00084C
:101F50000000000000000000000000000000000081
:101F60000000000000000000000000000000000071
:101F70000000000000000000000000000000000061
:101F80000000000000000000000000000000000051
:101F9000000000000000000001020304010203042D
:101FA00006070809007A030A00000000000000008C
:081FB000010203040607080901
:040000050800018965
:00000001FF
